:0400000009EF01F013
:100008004F829DB29EA2FFD04D4A4E2A4DC001F0AC
:100018004EC002F0130E046E880E036E9FEC06F0BD
:1000280002BE06D0F50E015C010E0258D8B017D0FA
:100038004DC001F04EC002F0000E046E050E036EB6
:100048009FEC06F001500210D8A404D0090E4B26EC
:10005800000E4C22000E0001766F000E30D04DC00D
:1000680001F04EC002F0130E046E880E036E9FEC72
:1000780006F002BE06D0C40E015C090E0258D8B0C4
:1000880005D0030E4C6E840E4B6EA9D04DC001F006
:100098004EC002F0130E046E880E036E9FEC06F03D
:1000A80002BE06D0B80E015C0B0E0258D8B009D0BB
:1000B8004B06D8A04C06000E0001766F010E756F36
:1000C8008ED04DC001F04EC002F0130E046E880EA3
:1000D800036E9FEC06F002BE06D0AC0E015C0D0E5E
:1000E8000258D8B013D04DC001F04EC002F0000E37
:1000F800046E050E036E9FEC06F001500210D8A4A2
:10010800DAD7FE0E4B26FF0E4C22D5D74DC001F094
:100118004EC002F0130E046E880E036E9FEC06F0BC
:1001280002BE06D0A00E015C0F0E0258D8B012D045
:100138004DC001F04EC002F0000E046E050E036EB5
:100148009FEC06F001500210D8A449D04B06D8A065
:100158004C0645D04DC001F04EC002F0130E046E9F
:10016800880E036E9FEC06F002BE06D0940E015C6A
:10017800110E0258D8B013D04DC001F04EC002F095
:10018800000E046E190E036E9FEC06F0015002106B
:10019800D8A425D0FC0E4B26FF0E4C2220D04DC0F3
:1001A80001F04EC002F0130E046E880E036E9FEC31
:1001B80006F002BE06D0880E015C130E0258D8B0B5
:1001C8000ED04DC001F04EC002F0000E046E190EA4
:1001D800036E9FEC06F001500210D8B4B7D7880E12
:1001E8004D1804E1130E4E18D8B49D924BC001F07F
:1001F8004CC002F0000E046E040E036E25EC06F0EF
:100208000150BE6E9E924F921100B8EF08F0000E9A
:100218004E6E000E4D6E000E4C6E000E4B6E000EB4
:100228000001606F000E616F000E626F000E6C6F50
:10023800000E6B6F6BC073F06CC074F0F4EC07F0D9
:10024800A9EC08F0070E146E000E156E7F0E166EE0
:10025800000E69EC07F0000EC6EC08F0000E216EE7
:10026800FA0E226E7F0E236E000E256E000E246E8F
:10027800000E98EC07F0000E216EF80E226E7F0E2D
:10028800236E000E256E000E246E070E98EC07F004
:10029800160E216EF60E226E7F0E236E000E256E50
:1002A800000E246E070E98EC07F0070E216EEB0E79
:1002B800226E7F0E236E000E256E000E246E060E33
:1002C80098EC07F04DC009F04EC00AF0010E0C6E14
:1002D800F40E0B6EE3EC05F009C071F00AC072F081
:1002E800030E216E71C022F072C023F0000E256E3D
:1002F800000E246E000EECEC03F0120E216EF10ECF
:10030800226E7F0E236E000E256E000E246E000EE8
:1003180098EC07F04DC009F04EC00AF0000E0C6EC4
:10032800320E0B6E67EC06F009500A10D8B428D0CC
:1003380060C024F061C025F062C026F0C00E186EBF
:10034800B40E196E430E1A6E73C011F074C012F019
:1003580035EC08F011C015F012C016F013C017F0F4
:1003680064EC04F015C027F016C028F017C029F077
:1003780018EC03F024C060F025C061F026C062F0DC
:10038800160E216E60C009F061C00AF062C00BF061
:10039800D7EC04F009C022F00AC023F0000E256E45
:1003A800000E246E000EECEC03F04DC009F04EC0B8
:1003B8000AF0010E0C6EF40E0B6EE3EC05F00ABEAB
:1003C80006D00A5056E10A0E095CD8B052D04DC08A
:1003D80009F04EC00AF0010E0C6EF40E0B6EE3EC41
:1003E80005F009C071F00AC072F0020E216E71C0EA
:1003F80022F072C023F0000E256E000E246E000E4F
:10040800ECEC03F0030E216EFD0E226E7F0E236EC0
:10041800000E256E000E246E000E98EC07F04DC0FD
:1004280009F04EC00AF0000E0C6E320E0B6EE3ECB3
:1004380005F009C063F00AC064F063C009F064C045
:100448000AF0000E0C6E0A0E0B6E67EC06F009C07F
:1004580063F00AC064F0040E216E63C022F064C029
:1004680023F0000E256E000E246E000EECEC03F057
:1004780051D04DC009F04EC00AF0010E0C6EF40EBA
:100488000B6EE3EC05F009C071F00AC072F0020EC1
:10049800216E71C022F072C023F0000E256E000E8E
:1004A800246E000EECEC03F0040E216EFD0E226E9D
:1004B8007F0E236E000E256E000E246E000E98EC43
:1004C80007F04DC009F04EC00AF0000E0C6E320E57
:1004D8000B6EE3EC05F009C065F00AC066F065C074
:1004E80009F066C00AF0000E0C6E0A0E0B6E67EC7F
:1004F80006F009C065F00AC066F0050E216E65C0F9
:1005080022F066C023F0000E256E000E246E000E49
:10051800ECEC03F04BC009F04CC00AF0000E0C6E76
:100528000A0E0B6EE3EC05F009C073F00AC074F014
:100538000C0E216E73C022F074C023F0000E256EDD
:10054800000E246E060EECEC03F0000174BF06D01A
:1005580074510DE10A0E735DD8B009D0060E146E01
:10056800410E156E7F0E166E060E69EC07F000013F
:1005780075517611D8A42CD06BC067F06CC068F0A8
:1005880018D0000E6E6F000E6D6F6751070F186E52
:100598006D51780FD7EC06F000016D4B6E2B6EBFD6
:1005A800F4D76E5104E1070E6D5DD8A0EED7674B06
:1005B800682B7351675D6851800A4A6E7451800ACE
:1005C8004A58D8A0DED773C06BF074C06CF0A2D6BE
:1005D800010E7325696F000E74216A6F1AD0000E20
:1005E800706F000E6F6F70BF06D070510FE1070E6D
:1005F8006F5DD8B00BD06951070F186E6F51780F27
:1006080008EC07F000016F4B702BEDD76907D8A0F5
:100618006A076B51695D6A51800A4A6E6C51800A9B
:100628004A58D8A0D0D7DBD726C02AF02B6A2C6A24
:1006380025342A3601E32B802A502F6E29C02AF050
:100648002B6A2C6A28342A3601E32B802A502E6E16
:100658002F50D8B40AD02E502F5CD8B00DD02F50C0
:100668002E5C2A6E180E2A6407D027C024F028C0F2
:1006780025F029C026F012002E50D8B40AD02F50E9
:100688002E5CD8B00DD02E502F5C2A6E180E2A641E
:1006980007D024C024F025C025F026C026F012007B
:1006A800060E2D6E26BE2D8E29BE2D8C258EFF0E94
:1006B8002416FF0E2516000E2616288EFF0E271666
:1006C800FF0E2816000E29162E502F5CD8B01BD00E
:1006D800D8902736283629362E062F502E18D8B40B
:1006E8000DD02D062DC02AF0070E2A16D8B406D034
:1006F800EFD7D8902632253224322F2A2E502F18A1
:10070800D8B41FD0F6D72F502E5CD8B01AD0D890B6
:100718002436253626362F062F502E18D8B40DD05D
:100728002D062DC02AF0070E2A16D8B406D0EFD70A
:10073800D8902932283227322E2A2E502F18D8A4A2
:10074800F7D72DAE0CD0FF0E241AFF0E251AFF0E78
:10075800261A010E2426000E2522000E26222DAC74
:100768000CD0FF0E271AFF0E281AFF0E291A010EA9
:100778002726000E2822000E2922000E2D6E245056
:100788002726255028222650292229AE0ED0FF0ED2
:10079800271AFF0E281AFF0E291A010E2726000E07
:1007A8002822000E2922010E2D6E27C009F028C02C
:1007B8000AF029C00BF02FC00CF02DC00DF040EC52
:1007C80005F009C024F00AC025F00BC026F012007D
:1007D800476E23AE19D021C014F02D0E156E24C01B
:1007E80016F025C017F0475097EC05F0212A22C0D3
:1007F80009F023C00AF0FF0E0C6E0B6884EC08F0B9
:1008080009C022F00AC023F0000E496E000E486E9F
:1008180022502310D8A426D0300E276E484A492AE1
:1008280021D04850270FD96EDA6A22C009F023C0B8
:100838000AF0000E0C6E0A0E0B6E67EC06F00950FB
:10084800300FDF6E484A492A22C009F023C00AF057
:10085800000E0C6E0A0E0B6EE3EC05F009C022F0D8
:100868000AC023F023BE24D02350DBE12204D8A001
:100878001FD0D7D74806D8A049064850270FD96EA9
:10088800DA6ADF50266E2650226E236A21C014F0E1
:1008980022C015F024C016F025C017F0475097EC79
:1008A80005F0212A7F0E216403D0472A000E216E0D
:1008B80049BE12004950DEE14804D8A01200DAD738
:1008C80017C01BF01C6A1D6A16341B3601E31C8016
:1008D8001B50226E2250D8A407D0000E156E000EB1
:1008E800166E000E176E12001AC01BF01C6A1D6AE5
:1008F80019341B3601E31C801B50236E2350D8A4E7
:1009080007D0000E156E000E166E000E176E120040
:10091800000E1F6E000E206E000E216E2350890FF0
:10092800225E17C023F01A50231A800E2316168E43
:10093800FF0E1516FF0E1616000E1716198EFF0E4F
:100948001816FF0E1916000E1A16180E1E6ED890DD
:100958001F36203621361850155C195016581A5073
:100968001758D8A007D01850155E1950165A1A50A3
:10097800175A1F80D8901536163617361E2EE7D709
:100988001FC009F020C00AF021C00BF022C00CF0F3
:1009980023C00DF040EC05F009C015F00AC016F0B0
:1009A8000BC017F012000BC00DF00E6A0F6A0A3464
:1009B8000D3601E30E800D50176E1750D8A409D0DC
:1009C800000E096E000E0A6E000E0B6E000E0C6E05
:1009D8001200170E0D6E09C00EF00AC00FF00BC002
:1009E80010F00D28116E04D0D89010320F320E324C
:1009F800112EFAD70E50126E0A8EFF0E0916FF0E30
:100A08000A16000E0B160950136E0A50146E0B507E
:100A1800156E166A8E0E175E17AE0DD01750800A27
:100A28008F0FD8A0CDD7D890163215321432133282
:100A3800173EF9D70DD0170E176407D0C1D7D89035
:100A4800133614361536163617061750D8A4F7D7A6
:100A58001250D8B408D0161E151E141E136C000EA2
:100A680014221522162213C009F014C00AF015C06A
:100A78000BF016C00CF012000C50D8B405D0095079
:100A88000A100B10D8A40CD0000E096E000E0A6EC6
:100A9800000E0B6E12000C2AD8900B320A32093263
:100AA800000E09140E6E000E0A140F6EFE0E0B14C3
:100AB800106E0E500F101010D8B40CD0ECD70C2AB2
:100AC800010E0926000E0A22000E0B22D8900B32C6
:100AD8000A320932000E09140E6E000E0A140F6E47
:100AE800FF0E0B14106E0E500F101010D8B406D055
:100AF800E6D70C06D89009360A360B360ABE03D05C
:100B0800020E0C60F6D70CA00A9ED8900C320C503E
:100B18000B120D50D8A40B8E09C009F00AC00AF0B8
:100B28000BC00BF012001A6EE00E1524096E0A6A4B
:100B3800FF0E0A22000E0C6E050E0B6E84EC08F0F8
:100B480009C01DF00AC01EF01450050DF3CF14F0B3
:100B5800000E206E000E1F6E16501710D8A40BD072
:100B6800F70E1D24F66E7D0E1E20F76E0800F55058
:100B78001B6E1C6A0ED0F70E1D24F66E7D0E1E200D
:100B8800F76E0800F550186E196A181C1B6E191CB0
:100B98001C6E14C00EF01BC00FF01A50C6EC07F004
:100BA800142A1D4A1E2A1F4A202A20BED5D72050A3
:100BB80005E1050E1F5CD8B01200CED71200000E5A
:100BC8000E6E0CAE06D00B6C0C1ED8B00C2A010EA3
:100BD8000E6E0AAE06D0096C0A1ED8B00A2A010E9B
:100BE8000E1A000E106E000E0F6E0B500C10D8B4BB
:100BF8001CD0010E0D6E04D0D8900B360C360D2A81
:100C08000CAEFAD7D8900F3610360B50095C0C5042
:100C18000A58D8A005D00B50095E0C500A5A0F800C
:100C2800D8900C320B320D2EEDD70E50D8B404D01C
:100C38000F6C101ED8B0102A0FC009F010C00AF0AF
:100C48001200000E066E04AE06D0036C041ED8B067
:100C5800042A010E066E02AE06D0016C021ED8B040
:100C6800022A010E061A000E086E000E076E0350C7
:100C78000410D8B41CD0010E056E04D0D8900336E9
:100C88000436052A04AEFAD7D8900736083603503A
:100C9800015C04500258D8A005D00350015E0450EE
:100CA800025A0780D89004320332052EEDD7065039
:100CB800D8B404D0076C081ED8B0082A07C001F0C1
:100CC80008C002F01200000E0E6E0AAE06D0096CC3
:100CD8000A1ED8B00A2A010E0E6E0CAE04D00B6C98
:100CE8000C1ED8B00C2A0B500C10D8B418D0010E1A
:100CF8000D6E04D0D8900B360C360D2A0CAEFAD7F0
:100D08000B50095C0C500A58D8A004D00B50095E4F
:100D18000C500A5AD8900C320B320D2EF1D70E50C7
:100D2800D8B404D0096C0A1ED8B00A2A09C009F040
:100D38000AC00AF01200000E066E02AE06D0016C60
:100D4800021ED8B0022A010E066E04AE04D0036C4F
:100D5800041ED8B0042A03500410D8B418D0010EC9
:100D6800056E04D0D89003360436052A04AEFAD7A7
:100D78000350015C04500258D8A004D00350015E0F
:100D88000450025AD89004320332052EF1D7065087
:100D9800D8B404D0016C021ED8B0022A01C001F0F8
:100DA80002C002F01200226E22C019F0D890193247
:100DB800D8901932D89019321950206E216A22C061
:100DC80019F0070E1916010E1A6E000E1B6E192A5D
:100DD80003D0D8901A361B36192EFBD71AC01CF030
:100DE8001BC01DF018C015F0205097EC08F0196EC4
:100DF80019501E6E1F6A18C00EF01C501E100F6E80
:100E08002050C6EC07F01200226E22C019F0D890CC
:100E18001932D8901932D89019321950206E216A97
:100E280022C019F0070E1916010E1A6E000E1B6E5D
:100E3800192A03D0D8901A361B36192EFBD71A1C3C
:100E48001C6E1B1C1D6E18C015F0205097EC08F086
:100E5800196E19501E6E1F6A18C00EF01C501E1411
:100E68000F6E2050C6EC07F01200106E400E0E6098
:100E780004D0000E126E010E03D0000E126E020E88
:100E8800116E11C014F00F50D8B406D01050D4EC25
:100E980008F00E5018EC08F014506CEC08F0956847
:100EA800000E936E1404D8B48190020E1418D8B4AE
:100EB80081928186818400F0818800F083CF13F0CD
:100EC800819881808182135012001A6E1AC01BF01B
:100ED8001C6A1CD015C01DF01E6A09D01DC00EF07A
:100EE800000E0F6E1B50C6EC07F01D4A1E2A165046
:100EF800176E186A1D50175C1850800A196E1E501C
:100F0800800A1958D8B0EAD71B4A1C2A1450176E01
:100F1800186A1B50175C1850800A196E1C50800AFA
:100F28001958D8A01200D6D7266E000E286E000ECB
:100F3800276E15D021502724146E22C0F6FF23C037
:100F4800F7FF0800F5CF15F024C016F025C017F0FC
:100F5800265097EC05F0224A232A274A282A22C03D
:100F6800F6FF23C0F7FF0800F5500A0AD8B41200AC
:100F780022C0F6FF23C0F7FF0800F5500009D8B4D7
:100F88001200D8D7106E400E0E6004D0000E126EFC
:100F9800010E03D0000E126E020E116E11C013F076
:100FA8001050D4EC08F00E5018EC08F013506CEC0C
:100FB80008F0000E936E1304D8B48190020E131833
:100FC800D8B481928196818400F0818800F00FC0A6
:100FD80083FF000E956E00F0819881808182120057
:100FE800000E0F01396F000E3A6F000E3B6F000EB6
:100FF800956E000E936E000E836E000E816E000ECD
:10100800826EF28EF28CF28C9468000E496FF90EA3
:10101800BB6E000EBE6E0C0EBD6E9E92060EBA6EB4
:101028009D82000E946E12000D6E400E0D600CD065
:10103800010E0B6E0D50400951EC08F0020E0B6EBC
:10104800400E51EC08F01200010E0B6E7F0E51ECB1
:1010580008F0020E0B6E0D50C00F400951EC08F05D
:101068001200000E146E12AE06D0116C121ED8B00B
:10107800122A010E146E11C009F012C00AF00B6A90
:101088008E0E0C6E14C00DF040EC05F009C011F086
:101098000AC012F00BC013F012000C6E0B506CEC6F
:1010A80008F0000E936E0B04D8B48190020E0B1852
:1010B800D8B481928196819400F0818800F00CC0A8
:1010C80083FF000E956E00F0819881808182120066
:1010D8000A6E9568000E936E0A04D8B48190020EC9
:1010E8000A18D8B481928186819400F0818800F032
:1010F80083CF09F0819809BEF9D7818081821200D7
:1011080009500B02F3CF0DF0F4CF0EF009500C028A
:10111800F3500E260A500B02F3500E260DC009F0AC
:101128000EC00AF01200176E15C00EF0010E0F6EF9
:10113800175039EC07F015C00EF0010E0F6E17505E
:1011480039EC07F0166E16501200818A010E0B6EEC
:101158003F0E51EC08F0020E0B6E3F0E51EC08F0FA
:10116800000EC6EC08F012000001766B756B4E6A33
:101178004D6A4C6A4B6A4F904F92000EF86E000110
:101188000BEF01F00D6E010E0B6E0D50C00951EC06
:1011980008F0020E0B6E0D50C00951EC08F0120059
:1011A8000D6E010E0B6E0D50B80951EC08F0020ED1
:0C11B8000B6E0D50B80951EC08F012004D
:107DF60000000000000000005F0000000700070010
:107E0600147F147F14242A7F2A12231308646236EF
:107E1600495522500005030000001C224100004184
:107E2600221C00082A1C2A0808083E0808005030B0
:107E36000000080808080800303000002010080478
:107E4600023E5149453E00427F400042615149464B
:107E56002141454B311814127F1027454545393CC1
:107E66004A494930017109050336494949360649E7
:107E760049291E0036360000005636000000081458
:107E86002241001414140041221408000201510971
:107E960006324979413E7E1111117E7F49494936A4
:107EA6003E414141227F4141221C7F494949417F50
:107EB600090901013E414151327F0808087F00410E
:107EC6007F41002040413F017F081422417F40400E
:107ED60040407F0204027F7F0408107F3E414141FB
:107EE6003E7F090909063E4151215E7F091929464F
:107EF600464949493101017F01013F4040403F1F4A
:107F06002040201F7F2018207F6314081463030479
:107F1600780403615149454300007F41410204084A
:107F2600102041417F00000402010204404040400D
:107F360040000102040020545454787F48444438D9
:107F46003844444420384444487F3854545418082C
:107F56007E090102081454543C7F08040478004446
:107F66007D40002040443D00007F10284400417FB2
:107F760040007C041804787C08040478384444449F
:107F8600387C14141408081414187C7C080404089B
:107F96004854545420043F4440203C4040207C1C1C
:107FA6002040201C3C4030403C44281028440C50C3
:107FB60050503C4464544C44000836410000007F55
:107FC6000000004136080008082A1C08081C2A0878
:107FD600080800AA00080038383800000000000031
:107FE6000000000000647574793D00536F433D0046
:0A7FF60031303000743D002E000011
:020000040030CA
:0E000000FF021900FFA580FF0FC00FE00F40A8
:00000001FF
