:0400000012EF00F00B
:100008003982F2BAF2A408D03006D8A031063C0EE4
:10001800D76EB00ED66EF2943992110079EF03F0D4
:1000280053EC03F0F9EC03F0070E0C6E000E0D6EA6
:100038007F0E0E6E000E74EC02F0000E16EC04F04B
:1000480024C015F025C016F0B1EC01F0FFEC00F06B
:10005800000E236E080E226E000E276E000E266E0E
:1000680084A06CD026502710D8A468D0000E276E24
:10007800010E266E28502910D8A42ED0284A292AE5
:10008800FFEC00F024C015F025C016F0B1EC01F02B
:10009800F28A2AEC03F00DC00FF00EC010F0000E2B
:1000A800126E030E116E3CEC02F0010E0F242E6E40
:1000B800000E10202F6E2AEC03F00DC00FF00EC0BA
:1000C80010F0000E126E0A0E116E3CEC02F00FC01A
:1000D80030F010C031F029D028042910D8A407D056
:1000E800000E296E040E286EFFEC00F01ED0020EE2
:1000F80028182910D8A40BD033BEF2D7335003E107
:100108003204D8A0EDD7000E296E030EECD7030EEB
:1001180028182910D8B405D0040E28182910D8A4F6
:1001280004D0000E296E000EDED7060E216E710E69
:10013800E82EFED7212EFCD700F00AD084B008D0D4
:1001480026502710D8B404D0000E276E000E266E55
:1001580031AE23D0000E316E090E306E2E06D8A0B7
:100168002F063206D8A033062FAE17D0000E2F6EFA
:100178003B0E2E6E2C06D8A02D062DAE0ED0000EEE
:100188002D6E3B0E2C6E2BBE08D02B5003E12A049B
:10019800D8A003D02A06D8A02B0628042910D8A452
:1001A80016D02E502F10D8A412D030503110D8A409
:1001B8000ED0000E296E020E286EFFEC00F022C051
:1001C80030F023C031F0000E336E010E326E020E95
:1001D80028182910D8A444D72E502F10D8A440D7B7
:1001E80030503110D8A43CD7000E296E040E286E6A
:1001F800FFEC00F035D7020E0C6E000E0D6E7F0E70
:100208000E6E020E74EC02F028502910D8A40ED0FD
:100218000A0E196EE70E1A6E7F0E1B6E000E1D6E0B
:10022800000E1C6E020EA3EC02F012002804291026
:10023800D8A40ED00A0E196EED0E1A6E7F0E1B6E24
:10024800000E1D6E000E1C6E020EA3EC02F01200D2
:10025800020E28182910D8A40ED00C0E196EFC0E08
:100268001A6E7F0E1B6E000E1D6E000E1C6E020EA7
:10027800A3EC02F01200030E28182910D8A40ED0FF
:100288000B0E196EF80E1A6E7F0E1B6E000E1D6E89
:10029800000E1C6E020EA3EC02F01200040E2818C9
:1002A8002910D8A412000B0E196EF30E1A6E7F0EC9
:1002B8001B6E000E1D6E000E1C6E020EA3EC02F0EB
:1002C8001200126EE00E0D24016E026AFF0E022269
:1002D800000E046E050E036EE6EC03F001C015F087
:1002E80002C016F00C50050DF3CF0CF0000E186E7E
:1002F800000E176E0E500F10D8A40BD0F30E152455
:10030800F66E7D0E1620F76E0800F550136E146A0F
:100318000ED0F30E1524F66E7D0E1620F76E08002B
:10032800F550106E116A101C136E111C146E0CC05F
:1003380006F013C007F01250D1EC02F00C2A154A4F
:10034800162A174A182A18BED5D7185005E1050EDF
:10035800175CD8B01200CED7120015C032F016C004
:1003680033F032C001F033C002F00E0E046E100EEE
:10037800036EFAEC01F001C02AF002C02BF032C083
:100388000FF033C010F00E0E126E100E116E3CEC12
:1003980002F00FC032F010C033F032C001F033C0A9
:1003A80002F0000E046E3C0E036EFAEC01F001C080
:1003B8002CF002C02DF032C00FF033C010F0000E48
:1003C800126E3C0E116E3CEC02F00FC032F010C001
:1003D80033F032C02EF033C02FF0000E316E000E15
:1003E800306E15C032F016C033F01200000E066EE3
:1003F80004AE06D0036C041ED8B0042A010E066EA3
:1004080002AE06D0016C021ED8B0022A010E061AEE
:10041800000E086E000E076E03500410D8B41CD0EE
:10042800010E056E04D0D89003360436052A04AEB2
:10043800FAD7D890073608360350015C04500258A2
:10044800D8A005D00350015E0450025A0780D89006
:1004580004320332052EEDD70650D8B404D0076C09
:10046800081ED8B0082A07C001F008C002F0120020
:10047800000E146E10AE06D00F6C101ED8B0102AE5
:10048800010E146E12AE04D0116C121ED8B0122ACE
:1004980011501210D8B418D0010E136E04D0D89091
:1004A80011361236132A12AEFAD711500F5C1250B9
:1004B8001058D8A004D011500F5E1250105AD8907E
:1004C80012321132132EF1D71450D8B404D00F6C55
:1004D800101ED8B0102A0FC00FF010C010F0120074
:1004E800126E12C013F0146A1CD00DC015F0166AF3
:1004F80009D015C006F0000E076E1350D1EC02F0BB
:10050800154A162A0E500F6E106A15500F5C1050BF
:10051800800A116E1650800A1158D8B0EAD7134ACB
:10052800142A0C500F6E106A13500F5C1050800A7A
:10053800116E1450800A1158D8A01200D6D71E6E1A
:10054800000E206E000E1F6E15D019501F240C6E61
:100558001AC0F6FF1BC0F7FF0800F5CF0DF01CC04E
:100568000EF01DC00FF01E5065EC01F01A4A1B2A50
:100578001F4A202A1AC0F6FF1BC0F7FF0800F550D3
:100588000A0AD8B412001AC0F6FF1BC0F7FF080009
:10059800F5500009D8B41200D8D7086E400E06608E
:1005A80004D0000E0A6E010E03D0000E0A6E020E71
:1005B800096E09C00BF0085008EC04F0065096ECE0
:1005C80003F00B50CEEC03F0000E936E0B04D8B47E
:1005D8008190020E0B18D8B481928196818400F024
:1005E800818800F007C083FF000E956E00F08198A7
:1005F800818081821200000E096E000E0A6E000EC4
:100608000B6E000E0C6E01A008D00550092606508E
:100618000A2207500B2208500C22D89005360636BD
:1006280007360836D89004320332023201320150BC
:10063800021003100410D8A4E6D709C001F00AC0BC
:1006480002F00BC003F00CC004F0120034C001F03B
:1006580035C002F036C003F037C004F06D0E056EE9
:100668004E0E066EC60E076E410E086EFFEC02F0C7
:1006780001C034F002C035F003C036F004C037F0D2
:10068800390E3426300E3522000E3622000E37225F
:10069800FF0E36140D6E7F0E37140E6E1200000E0C
:1006A8000F01396F000E3A6F000E3B6F000E3C6F62
:1006B800000E956E000E936E0F0E966E000E836EF2
:1006C800000E816E000E846EF28EF28CD59CD59A47
:1006D800D588D596D594D592D5803C0ED76EB00ED8
:1006E800D66EF294F29AD58E1200480EF66E080E67
:1006F800F76E000EF86E00EE34F010EE05F009000B
:10070800F5CFEEFFE550E150FAE100EE28F00C0ECF
:10071800EE6AE806FDE139903992000EF86E0001A4
:1007280014EF00F0056E400E05600CD0010E036E4C
:1007380005504009B3EC03F0020E036E400EB3EC13
:1007480003F01200010E036E7F0EB3EC03F0020EED
:10075800036E0550C00F4009B3EC03F01200046E9D
:100768000350CEEC03F0000E936E0304D8B48190CE
:10077800020E0318D8B481928196819400F0818882
:1007880000F004C083FF000E956E00F08198818010
:1007980081821200026E9568000E936E0204D8B42E
:1007A8008190020E0218D8B481928186819400F05B
:1007B800818800F083CF01F0819801BEF9D781804C
:1007C8008182120001500302F3CF05F0F4CF06F046
:1007D80001500402F350062602500302F350062685
:1007E80005C001F006C002F01200818A010E036EF6
:1007F8003F0EB3EC03F0020E036E3F0EB3EC03F0B2
:10080800000E16EC04F01200056E010E036E055082
:10081800B809B3EC03F0020E036E0550B809B3EC47
:1008280003F01200056E010E036E0550C009B3EC0B
:1008380003F0020E036E0550C009B3EC03F012007A
:05084800010000002D7D
:107DF20000000000000000005F0000000700070014
:107E0200147F147F14242A7F2A12231308646236F3
:107E1200495522500005030000001C224100004188
:107E2200221C00082A1C2A0808083E0808005030B4
:107E3200000008080808080030300000201008047C
:107E4200023E5149453E00427F400042615149464F
:107E52002141454B311814127F1027454545393CC5
:107E62004A494930017109050336494949360649EB
:107E720049291E003636000000563600000008145C
:107E82002241001414140041221408000201510975
:107E920006324979413E7E1111117E7F49494936A8
:107EA2003E414141227F4141221C7F494949417F54
:107EB200090901013E414151327F0808087F004112
:107EC2007F41002040413F017F081422417F404012
:107ED20040407F0204027F7F0408107F3E414141FF
:107EE2003E7F090909063E4151215E7F0919294653
:107EF200464949493101017F01013F4040403F1F4E
:107F02002040201F7F2018207F631408146303047D
:107F1200780403615149454300007F41410204084E
:107F2200102041417F000004020102044040404011
:107F320040000102040020545454787F48444438DD
:107F42003844444420384444487F38545454180830
:107F52007E090102081454543C7F0804047800444A
:107F62007D40002040443D00007F10284400417FB6
:107F720040007C041804787C0804047838444444A3
:107F8200387C14141408081414187C7C080404089F
:107F92004854545420043F4440203C4040207C1C20
:107FA2002040201C3C4030403C44281028440C50C7
:107FB20050503C4464544C44000836410000007F59
:107FC2000000004136080008082A1C08081C2A087C
:107FD200080800AA00080038383800000000000035
:107FE200000000000053544152540052454144598C
:0E7FF200004C4F53450057494E00474F0000CA
:020000040030CA
:0E000000FF021900FFA580FF0FC00FE00F40A8
:00000001FF
