:0400000033EF3FF0AB
:107E660000016EEF3FF0000E066E02AE06D0016C0A
:107E7600021ED8B0022A010E066E04AE04D0036CB0
:107E8600041ED8B0042A03500410D8B418D0010E2A
:107E9600056E04D0D89003360436052A04AEFAD708
:107EA6000350015C04500258D8A004D00350015E70
:107EB6000450025AD89004320332052EF1D70650E8
:107EC600D8B404D0016C021ED8B0022A01C001F059
:107ED60002C002F01200000E0F01386F000E3B6F59
:107EE600000E926E000E956E000E0B6E790E0A6EE7
:107EF600000E0D6E770E0C6E000E0F6E6D0E0E6E72
:107F0600000E116E6E0E106E000E136E730E126E54
:107F1600000E156E060E146E000E176EB90E166E56
:107F2600000E196E000E186E000E1B6E000E1A6EF5
:107F3600000E096E010E086E010E806E1A50030FB8
:107F4600070B020DF3500A0FD96EDA6ADF50836E03
:107F5600050E076E140EE82EFED7072EFCD700F08E
:107F6600020E806E1A50020F070B020DF3500A0F15
:107F7600D96EDA6ADF50836E050E076E140EE82E90
:107F8600FED7072EFCD700F0040E806E1A28070BCA
:107F9600020DF3500A0FD96EDA6ADF50836E050EB2
:107FA600076E140EE82EFED7072EFCD700F0080E3B
:107FB600806E1A50070B020DF3500A0FD96EDA6A5B
:107FC600DF50836E050E076E140EE82EFED7072EC1
:107FD600FCD700F008C001F009C002F0000E046EE4
:107FE600640E036E36EC3FF001500210D8A402D0A6
:0A7FF6001A4A1B2A084A092A9FD7DD
:020000040030CA
:0E000000FF021900FFA580FF0FC00FE00F40A8
:00000001FF
