:04000000C4EF3DF01C
:107B88000001C7EF3DF0000E0F01386F000E396F8E
:107B9800000E3B6F000E926E9368000E956E000EFD
:107BA800036E3F0E026E000E056E060E046E000E8A
:107BB800076E5B0E066E000E096E4F0E086E000E05
:107BC8000B6E660E0A6E000E0D6E6D0E0C6E000EBC
:107BD8000F6E7D0E0E6E000E116E070E106E000EEB
:107BE800136E7F0E126E000E156E6F0E146E0F0E52
:107BF800806E02C083FF000E196E000E186E000E14
:107C08001B6E000E1A6E000E1D6E000E1C6E000E0E
:107C18001F6E000E1E6E000E176E000E166E000E02
:107C2800276E000E266E26C024F027C025F024C03B
:107C380022F025C023F022C020F023C021F0000E3E
:107C48002B6E140E2A6E000E2D6E000E2C6E000E7A
:107C58002F6E000E2E6E000E316E000E306E000E6E
:107C6800296E000E286E81A01CD018501910D8A4B7
:107C780018D020502110D8A414D02C4A2D2A0A0E2E
:107C88002C182D10D8A404D0000E2D6E000E2C6ECA
:107C9800000E196E010E186E2AC020F02BC021F0BC
:107CA80006D081B004D0000E196E000E186E81A2A5
:107CB8001CD01A501B10D8A418D022502310D8A4B6
:107CC80014D02E4A2F2A0A0E2E182F10D8A404D00A
:107CD800000E2F6E000E2E6E000E1B6E010E1A6E19
:107CE8002AC022F02BC023F006D081B204D0000EA7
:107CF8001B6E000E1A6E81A41CD01C501D10D8A437
:107D080018D024502510D8A414D0304A312A0A0E8D
:107D180030183110D8A404D0000E316E000E306E29
:107D2800000E1D6E010E1C6E2AC024F02BC025F01B
:107D380006D081B404D0000E1D6E000E1C6E81A604
:107D48001CD01E501F10D8A418D026502710D8A415
:107D580014D0284A292A0A0E28182910D8A404D091
:107D6800000E296E000E286E000E1F6E010E1E6E8C
:107D78002AC026F02BC027F006D081B604D0000E0A
:107D88001F6E000E1E6E81B8CCD016501710D8B4D6
:107D9800C8D0D8902C342C6E2D342D6ED8902E341B
:107DA8002E6E2F342F6ED8903034306E3134316EC1
:107DB800D8902834286E2934296E2DBE0ED02D5027
:107DC80004E10A0E2C5CD8A008D0F60E2C242C6EE8
:107DD800FF0E2D202D6E2E4A2F2A2FBE0ED02F508B
:107DE80004E10A0E2E5CD8A008D0F60E2E242E6EC2
:107DF800FF0E2F202F6E304A312A31BE0ED031505F
:107E080004E10A0E305CD8A008D0F60E3024306E9B
:107E1800FF0E3120316E284A292A29BE75D02950F3
:107E280004E10A0E285CD8A06FD0000E816E060E01
:107E3800016E710EE82EFED7012EFCD72FD0010E51
:107E4800806E000E836E030E016EB80EE82EFED70C
:107E5800012EFCD700F0020E806ED00E836E030E4A
:107E6800016EB80EE82EFED7012EFCD700F0040EE6
:107E7800806E500E836E030E016EB80EE82EFED78C
:107E8800012EFCD700F0080E806E790E836E030E6B
:107E9800016EB80EE82EFED7012EFCD700F08150F7
:107EA800D8B4CDD72AC026F02BC027F026C024F09E
:107EB80027C025F024C022F025C023F022C020F0DE
:107EC80023C021F0000E1F6E010E1E6E1EC01CF096
:107ED8001FC01DF01CC01AF01DC01BF01AC018F0FE
:107EE8001BC019F0000E296E000E286E28C030F055
:107EF80029C031F030C02EF031C02FF02EC02CF048
:107F08002FC02DF0000E816E000E176E000E166E3B
:107F1800090E016E2A0EE82EFED7012EFCD700F0BE
:107F280006D081A804D0000E176E010E166E010E41
:107F3800806E2C50020DF350020FD96EDA6ADF50B2
:107F4800836E030E016EB80EE82EFED7012EFCD705
:107F580000F0020E806E2E50020DF350020FD96E03
:107F6800DA6ADF50836E030E016EB80EE82EFED774
:107F7800012EFCD700F0040E806E3050020DF35035
:107F8800020FD96EDA6ADF50836E030E016EB80EE7
:107F9800E82EFED7012EFCD700F0080E806E285080
:107FA800020DF350020FD96EDA6ADF50836E030EAA
:107FB800016EB80EE82EFED7012EFCD700F0205037
:107FC8002110D8B403D02006D8A0210622502310AF
:107FD800D8B403D02206D8A0230624502510D8B43C
:107FE80003D02406D8A0250626502710D8B43BD69F
:087FF8002606D8A0270637D6A3
:020000040030CA
:0E000000FF021900FFA580FF0FC00FE00F40A8
:00000001FF
