:0400000013EF00F00A
:06000800308215EF00F04C
:100018003080E0CF1AF01AC0E0FF3090100087EF70
:1000280002F0F2B8F2A22CD0000E216E080E206E5B
:1000380020C022F021C023F022C024F023C025F0E4
:1000480024C026F025C027F0F298060E176E710E10
:10005800E82EFED7172EFCD700F0F086F090000EA1
:10006800216E080E206E20C022F021C023F022C08D
:1000780024F023C025F024C026F025C027F0BFD0E7
:10008800F0B6F0A076D02C502D10D8A472D028C08D
:1000980001F029C002F0A2EC02F05EEC02F00DC003
:1000A8000FF00EC010F0000E126E060E116EFBEC73
:1000B80001F0010E0F24186E000E1020196E080EA4
:1000C80026182710D8A414D018C015F019C016F097
:1000D80005EC01F015C026F016C027F0060E176EC5
:1000E800710EE82EFED7172EFCD700F0F0903CD00A
:1000F800080E24182510D8A40BD018C015F019C064
:1001080016F005EC01F015C024F016C025F0E6D76E
:10011800080E22182310D8A40BD018C015F019C047
:1001280016F005EC01F015C022F016C023F0D6D762
:10013800080E20182110D8A417D018C015F019C01F
:1001480016F005EC01F015C020F016C021F0060EDF
:10015800176E710EE82EFED7172EFCD700F0F0921E
:10016800F090F096F298F08818502E2619502F2209
:1001780046D0F0B8F0A243D02EC00FF02FC010F038
:10018800000E126E0A0E116EFBEC01F00FC015F096
:1001980010C016F005EC01F015C026F016C027F0C7
:1001A800000E046E0A0E036E2EC001F02FC002F07E
:1001B800B9EC01F001C00FF002C010F0000E126E91
:1001C8000A0E116EFBEC01F00FC015F010C016F00E
:1001D80005EC01F015C024F016C025F0000E236EC2
:1001E800480E226E000E216E760E206E000E2F6EC7
:1001F800000E2E6EF092F292F090F098F288309203
:10020800110015501610D8A405D0000E166E3F0E1A
:10021800156E120015041610D8A405D0000E166E1F
:10022800060E156E1200020E15181610D8A405D069
:10023800000E166E5B0E156E1200030E15181610C2
:10024800D8A405D0000E166E4F0E156E1200040EBF
:1002580015181610D8A405D0000E166E660E156E69
:100268001200050E15181610D8A405D0000E166E2B
:100278006D0E156E1200060E15181610D8A405D0AE
:10028800000E166E7D0E156E1200070E151816104C
:10029800D8A405D0000E166E070E156E1200080EB3
:1002A80015181610D8A405D0000E166E7F0E156E00
:1002B8001200090E15181610D8A405D0000E166ED7
:1002C8006F0E156E1200000E166E15681200000EE5
:1002D8000F01386F000E396F000E3B6F000E926EE3
:1002E8009368000E956EF28EF28CF092F090F29276
:1002F800F288F098F096F18CF18AF198000E296E48
:10030800000E286E010E806E26C083FF030E1B6E42
:10031800B80EE82EFED71B2EFCD700F0020E806E1A
:1003280024C083FF030E1B6EB80EE82EFED71B2ECB
:10033800FCD700F0040E806E22C083FF030E1B6EF4
:10034800B80EE82EFED71B2EFCD700F0080E806EE4
:1003580020C083FF030E1B6EB80EE82EFED71B2E9F
:10036800FCD700F0284A292ACDD7000E066E04AE25
:1003780006D0036C041ED8B0042A010E066E02AE25
:1003880006D0016C021ED8B0022A010E061A000E11
:10039800086E000E076E03500410D8B41CD0010E6E
:1003A800056E04D0D89003360436052A04AEFAD771
:1003B800D890073608360350015C04500258D8A07C
:1003C80005D00350015E0450025A0780D8900432C9
:1003D8000332052EEDD70650D8B404D0076C081E9A
:1003E800D8B0082A07C001F008C002F01200000EB9
:1003F800146E10AE06D00F6C101ED8B0102A010E65
:10040800146E12AE04D0116C121ED8B0122A1150FC
:100418001210D8B418D0010E136E04D0D89011362B
:100428001236132A12AEFAD711500F5C1250105818
:10043800D8A004D011500F5E1250105AD890123222
:100448001132132EF1D71450D8B404D00F6C101EEB
:10045800D8B0102A0FC00FF010C010F01200000E14
:10046800096E000E0A6E000E0B6E000E0C6E01A0D7
:1004780008D00550092606500A2207500B220850BA
:100488000C22D8900536063607360836D89004323E
:100498000332023201320150021003100410D8A4B2
:1004A800E6D709C001F00AC002F00BC003F00CC087
:1004B80004F012001CC001F01DC002F01EC003F0C1
:1004C8001FC004F06D0E056E4E0E066EC60E076E4A
:1004D800410E086E33EC02F001C01CF002C01DF0A2
:1004E80003C01EF004C01FF0390E1C26300E1D225A
:1004F800000E1E22000E1F22FF0E1E140D6E7F0E10
:100508001F140E6E1200520EF66E050EF76E000ED8
:10051800F86E00EE1CF010EE0CF00900F5CFEEFFBF
:10052800E550E150FAE100EE28F0080EEE6AE80620
:10053800FDE13090309200016BEF01F001C01CF03A
:1005480002C01DF01E6A1F6A1200010000003D0073
:060558005C008000800041
:020000040030CA
:0E000000FF021900FFA580FF0FC00FE00F40A8
:00000001FF
