:0400000092EF3AF051
:10752400000EF86E0001A4EF3DF0056E010E036E2F
:107534000550B809FFEC3AF0020E036E0550B80985
:10754400FFEC3AF01200056E010E036E0550C009FF
:10755400FFEC3AF0020E036E0550C009FFEC3AF05E
:107564001200818A010E036E3F0EFFEC3AF0020E08
:10757400036E3F0EFFEC3AF0000EA5EC3AF0120059
:107584000F6E0DC006F0010E076E0F50BEEC3BF0FF
:107594000DC006F0010E076E0F50BEEC3BF00E6EF0
:1075A4000E50120001500302F3CF05F0F4CF06F0A1
:1075B40001500402F350062602500302F35006263B
:1075C40005C001F006C002F01200026E9568000EBC
:1075D400936E0204D8B48190020E0218D8B481923A
:1075E4008186819400F0818800F083CF01F0819836
:1075F40001BEF9D7818081821200046E0350E7EC4A
:107604003AF0000E936E0304D8B48190020E03186E
:10761400D8B481928196819400F0818800F004C0EE
:1076240083FF000E956E00F08198818081821200A4
:10763400056E400E05600CD0010E036E0550400926
:10764400FFEC3AF0020E036E400EFFEC3AF012002B
:10765400010E036E7F0EFFEC3AF0020E036E05502E
:10766400C00F4009FFEC3AF01200186E000E1A6EBB
:10767400000E196E11D0155019240C6E16C0F6FFA9
:1076840017C0F7FF0800F5CF0DF01850B9EC3CF027
:10769400164A172A194A1A2A16C0F6FF17C0F7FF06
:1076A4000800F5500A0AD8B4120016C0F6FF17C035
:1076B400F7FF0800F5500009D8B41200DCD7086EB3
:1076C400400E066004D0000E0A6E010E03D0000EB8
:1076D4000A6E020E096E09C00BF0085097EC3AF0DE
:1076E40006501AEC3BF00B50E7EC3AF0000E936EA8
:1076F4000B04D8B48190020E0B18D8B481928196F1
:10770400818400F0818800F007C083FF000E956E2D
:1077140000F08198818081821200126E12C013F0F1
:10772400146A1CD00DC015F0166A09D015C006F0F5
:10773400000E076E135061EC3BF0154A162A0E50EA
:107744000F6E106A15500F5C1050800A116E16509F
:10775400800A1158D8B0EAD7134A142A0C500F6E75
:10776400106A13500F5C1050800A116E1450800A76
:107774001158D8A01200D6D7086E400E066004D067
:10778400000E0A6E010E03D0000E0A6E020E096E80
:1077940009C00CF00750D8B406D0085097EC3AF062
:1077A40006501AEC3BF00C50E7EC3AF09568000EEA
:1077B400936E0C04D8B48190020E0C18D8B4819244
:1077C4008186818400F0818800F083CF0BF081985A
:1077D400818081820B5012001A6E1AC011F0D89069
:1077E4001132D8901132D89011321150186E196A92
:1077F4001AC011F0070E1116010E126E000E136E50
:10780400112A03D0D89012361336112EFBD7121C2E
:10781400146E131C156E10C00DF01850C2EC3AF023
:10782400116E1150166E176A10C006F0145016141B
:10783400076E185061EC3BF012001A6E1AC011F07A
:10784400D8901132D8901132D89011321150186E4C
:10785400196A1AC011F0070E1116010E126E000EED
:10786400136E112A03D0D89012361336112EFBD77B
:1078740012C014F013C015F010C00DF01850C2EC73
:107884003AF0116E1150166E176A10C006F01450BB
:107894001610076E185061EC3BF01200090E156EBD
:1078A400F00E166E7F0E176E010E37EC3BF0030ED2
:1078B400156EDC0E166E7F0E176E030E37EC3BF062
:1078C400030E156EC70E166E7F0E176E050E37EC7F
:1078D4003BF0150E1C6E4B0E1B6EBE0EE82EFED733
:1078E4001B2EFCD71C2EFAD700D0070E0C6E000EF0
:1078F4000D6E7F0E0E6E000E8FEC3BF01200000E2C
:10790400066E02AE06D0016C021ED8B0022A010E29
:10791400066E04AE04D0036C041ED8B0042A0350CF
:107924000410D8B418D0010E056E04D0D8900336D4
:107934000436052A04AEFAD70350015C04500258F9
:10794400D8A004D00350015E0450025AD8900432E7
:107954000332052EF1D70650D8B404D0016C021EB0
:10796400D8B0022A01C001F002C002F01200106E69
:10797400E00E0D24016E026AFF0E0222000E046E58
:10798400050E036ED4EC3AF001C011F002C012F0FF
:107994000C50050DF3CF0CF0000E146E000E136E98
:1079A400D30E1124F66E7D0E1220F76E0800F550EA
:1079B4000E6E0F6A0CC006F00EC007F0105061EC9A
:1079C4003BF00C2A114A122A134A142A14BEE8D78F
:1079D400145005E1050E135CD8B01200E1D7120073
:1079E400000E066E04AE06D0036C041ED8B0042A42
:1079F400010E066E02AE06D0016C021ED8B0022A39
:107A0400010E061A000E086E000E076E03500410D5
:107A1400D8B41CD0010E056E04D0D89003360436B9
:107A2400052A04AEFAD7D890073608360350015C0D
:107A340004500258D8A005D00350015E0450025AE5
:107A44000780D89004320332052EEDD70650D8B4FF
:107A540004D0076C081ED8B0082A07C001F008C07B
:107A640002F01200396E17AE15D015C00CF02D0EB1
:107A74000D6E3950B9EC3CF0152A16C001F017C050
:107A840002F0FF0E046E0368D4EC3AF001C016F065
:107A940002C017F0000E3B6E000E3A6E165017101F
:107AA400D8A426D0300E196E3A4A3B2A21D03A5037
:107AB400190FD96EDA6A16C001F017C002F0000E71
:107AC400046E0A0E036E81EC3CF00150300FDF6E41
:107AD4003A4A3B2A16C001F017C002F0000E046EA9
:107AE4000A0E036EF2EC3CF001C016F002C017F06F
:107AF40017BE20D01750DBE11604D8A01BD0D7D76F
:107B04003A06D8A03B063A50190FD96EDA6ADF500C
:107B1400186E1850166E176A15C00CF016C00DF0CA
:107B24003950B9EC3CF0152A7F0E156403D0392A7C
:107B3400000E156E3BBE12003B50E2E13A04D8A0A1
:107B44001200DED7000E0F01386F000E396F000EE1
:107B54003A6F000E3B6F000E956E000E936E9268A6
:107B6400000E836E000E816E000E806EB3EC3AF050
:107B7400070E0C6E000E0D6E7F0E0E6E000E8FEC57
:107B84003BF0000EA5EC3AF0000E546E000E536E5E
:107B940053C051F054C052F051C03FF052C040F0B5
:107BA4003FC03DF040C03EF03D0E97EC3AF03F0E32
:107BB4001AEC3BF0000E466E010E456E45C04DF0CA
:107BC40046C04EF04DC04BF04EC04CF04BC049F097
:107BD4004CC04AF049C047F04AC048F0000E506E0D
:107BE400320E4F6E50EC3CF051C010F0000E1FEC02
:107BF4003CF051C041F052C042F053C043F054C075
:107C040044F080B080B21AD049504A10D8A416D09B
:107C140052BE06D0525006E17F0E515CD8B002D05D
:107C2400514A522A4FC049F050C04AF0030E3C6EEC
:107C3400980EE82EFED73C2EFCD707D049504A10A8
:107C4400D8B403D04906D8A04A0680B280B01AD06E
:107C540047504810D8A416D052BE08D0525003E161
:107C64005104D8A003D05106D8A052064FC047F003
:107C740050C048F0030E3C6E980EE82EFED73C2E02
:107C8400FCD707D047504810D8B403D04706D8A033
:107C9400480680B480B61AD04B504C10D8A416D0E5
:107CA40054BE08D0545003E15304D8A003D0530663
:107CB400D8A054064FC04BF050C04CF0030E3C6E9D
:107CC400980EE82EFED73C2EFCD707D04B504C1014
:107CD400D8B403D04B06D8A04C0680B680B41AD0D2
:107CE4004D504E10D8A416D054BE06D0545006E1C0
:107CF4003F0E535CD8B002D0534A542A4FC04DF0C3
:107D040050C04EF0030E3C6E980EE82EFED73C2E6B
:107D1400FCD707D04D504E10D8B403D04D06D8A090
:107D24004E0645C001F046C002F0000E046E0A0E75
:107D3400036E81EC3CF001500210D8A43BD045C046
:107D440001F046C002F0000E046E640E036E81EC76
:107D54003CF001500210D8A409D0070E0C6E6E0E30
:107D64000D6E7F0E0E6E060E8FEC3BF0140E156E2C
:107D7400F80E166E7F0E176E060E37EC3BF0160EDD
:107D8400156E51C016F052C017F0060E34EC3DF0DB
:107D9400140E156EFB0E166E7F0E176E070E37EC63
:107DA4003BF0160E156E53C016F054C017F0070EB4
:107DB40034EC3DF041C010F04350EEEC3BF051C0C8
:107DC40010F053501FEC3CF0454A462A12D70000ED
:107DD4000000000000005F00000007000700147F9F
:107DE400147F14242A7F2A12231308646236495507
:107DF40022500005030000001C2241000041221C07
:107E040000082A1C2A0808083E0808005030000010
:107E14000808080808003030000020100804023E5A
:107E24005149453E00427F4000426151494621414B
:107E3400454B311814127F1027454545393C4A49B2
:107E4400493001710905033649494936064949292A
:107E54001E00363600000056360000000814224189
:107E640000141414004122140800020151090632BE
:107E74004979413E7E1111117E7F494949363E417F
:107E84004141227F4141221C7F494949417F0909DF
:107E940001013E414151327F0808087F00417F4182
:107EA400002040413F017F081422417F4040404070
:107EB4007F0204027F7F0408107F3E4141413E7FE0
:107EC400090909063E4151215E7F0919294646499F
:107ED40049493101017F01013F4040403F1F20409B
:107EE400201F7F2018207F63140814630304780480
:107EF40003615149454300007F41410204081020B9
:107F040041417F000004020102044040404040001F
:107F14000102040020545454787F484444383844BF
:107F2400444420384444487F3854545418087E0943
:107F34000102081454543C7F0804047800447D4032
:107F4400002040443D00007F10284400417F400051
:107F54007C041804787C0804047838444444387C4D
:107F640014141408081414187C7C080404084854D5
:107F7400545420043F4440203C4040207C1C20407A
:107F8400201C3C4030403C44281028440C505050A5
:107F94003C4464544C44000836410000007F000017
:107FA400004136080008082A1C08081C2A0808088A
:107FB40000AA000800383838000000000000000063
:107FC4000000004D697175656C20546F726E6572A6
:107FD4002056696E616C73004265726E6174204252
:107FE4006F7272617320436976696C004C37204765
:0B7FF4004C434400783D00793D000044
:020000040030CA
:0E000000FF021900FFA580FF0FC00FE00F40A8
:00000001FF
