:0400000033EF00F0EA
:100008004A829DBC9EAC29D0C4CF48F0496AC3CF70
:1000180046F0476A48C001F049C002F0D89001365E
:100028000236D8900136023601C048F002C049F0C5
:1000380046C001F047C002F0060E036E02340232D9
:100048000132032EFBD701C046F002C047F04650EC
:100058004826475049229E9CC2824A9211009CEF32
:1000680006F0CBEC02F0000E00016F6F000E6E6F11
:10007800000E636F000E626F9E9CF28EF28C9D8C58
:10008800C2824850621904E149506319D8B4F9D7BB
:100098009D9C040E1C6E48C01DF049C01EF0000E49
:1000A800206E000E1F6E000E53EC02F049BE06D003
:1000B800495012E10A0E485CD8B00ED0050E1C6EED
:1000C800F70E1D6E7F0E1E6E000E206E000E1F6E48
:1000D800000E84EC05F02BD049BE06D0495012E141
:1000E800640E485CD8B00ED0060E1C6EF80E1D6E5D
:1000F8007F0E1E6E000E206E000E1F6E000E84EC2A
:1001080005F015D049BE06D0E80E485C030E4958E4
:10011800D8B00DD0070E1C6EF90E1D6E7F0E1E6E28
:10012800000E206E000E1F6E000E84EC05F0320EDD
:10013800136EC80E146E3D0E156E48C00CF049C003
:100148000DF0FDEC05F00CC010F00DC011F00EC064
:1001580012F0D9EC01F010C01FF011C020F012C04D
:1001680021F03DEC03F01FC072F020C073F00B0EBD
:100178001C6E72C01DF073C01EF0000E206E000EC3
:100188001F6E060E53EC02F0000173BF06D07351C8
:1001980012E10A0E725DD8B00ED00C0E1C6EF80E6D
:1001A8001D6E7F0E1E6E000E206E000E1F6E060E58
:1001B80084EC05F015D073BF06D0735111E1640EBD
:1001C800725DD8B00DD00D0E1C6EF90E1D6E7F0E2F
:1001D8001E6E000E206E000E1F6E060E84EC05F0DB
:1001E80072C004F073C005F0000E076E050E066EAF
:1001F8004CEC06F004C070F005C071F070C004F05B
:1002080071C005F0000E076E640E066E49EC04F02E
:1002180004C060F005C061F0000E1C6E60C01DF0E7
:1002280061C01EF0000E206E000E1F6E020E53EC11
:1002380002F070C004F071C005F0000E076E640E85
:10024800066E8BEC04F005BE22D0055004E10A0EC0
:10025800045CD8A01CD070C004F071C005F0000E7A
:10026800076E640E066E8BEC04F004C068F005C0DF
:1002780069F0020E1C6E68C01DF069C01EF0000E09
:10028800206E000E1F6E020E53EC02F028D0020EF4
:100298001C6E000E1E6E000E1D6E000E206E000EEF
:1002A8001F6E020E53EC02F070C004F071C005F02E
:1002B800000E076E640E066E8BEC04F004C068F046
:1002C80005C069F0030E1C6E68C01DF069C01EF001
:1002D800000E206E000E1F6E020E53EC02F000019D
:1002E80072516E5D6F51800A456E7351800A455890
:1002F800D8B028D06EC064F06FC065F018D0000E7A
:100308006B6F000E6A6F6451070F136E6A51780F96
:10031800C3EC04F000016A4B6B2B6BBFF4D76B5135
:1003280004E1070E6A5DD8A0EED7644B652B7251C5
:10033800645D6551800A456E7351800A4558D8B08E
:100348002AD0DDD76EC066F06FC067F01AD0000EF5
:100358006D6F000E6C6F6DBF06D06D510FE1070E0B
:100368006C5DD8B00BD06651070F136E6C51780FC7
:10037800F4EC04F000016C4B6D2BEDD76607D8A0A8
:1003880067077251665D6751800A456E7351800A2E
:100398004558D8B0DCD772C06EF073C06FF048C053
:1003A80062F049C063F09D8C6CD612C016F0176AD3
:1003B800186A1134163601E317801650196E195051
:1003C800D8A407D0000E106E000E116E000E126E2B
:1003D800120015C016F0176A186A1434163601E3AD
:1003E800178016501E6E1E50D8A407D0000E106E2F
:1003F800000E116E000E126E12001E507B0F192691
:1004080012C01EF015501E1A800E1E16118E148E64
:10041800FF0E1316FF0E1416000E1516000E1A6E98
:10042800000E1B6E000E1C6E070E1D6E10A006D06F
:1004380013501A2614501B2215501C22D890123221
:1004480011321032D8901336143615361D2EEED7C9
:10045800090E1D6E10A006D013501A2614501B2228
:1004680015501C22D890123211321032D8901C32FA
:100478001B321A321D2EEED71AC004F01BC005F02D
:100488001CC006F019C007F01EC008F0A6EC03F067
:1004980004C010F005C011F006C012F01200426E40
:1004A8001EAE19D01CC00FF02D0E106E1FC011F01B
:1004B80020C012F04250FDEC03F01C2A1DC004F0CD
:1004C8001EC005F0FF0E076E06684CEC06F004C06F
:1004D8001DF005C01EF0000E446E000E436E1D5048
:1004E8001E10D8A426D0300E226E434A442A21D0AA
:1004F8004350220FD96EDA6A1DC004F01EC005F001
:10050800000E076E0A0E066E8BEC04F00450300FD6
:10051800DF6E434A442A1DC004F01EC005F0000ED9
:10052800076E0A0E066E49EC04F004C01DF005C003
:100538001EF01EBE24D01E50DBE11D04D8A01FD023
:10054800D7D74306D8A044064350220FD96EDA6A9B
:10055800DF50216E21501D6E1E6A1CC00FF01DC099
:1005680010F01FC011F020C012F04250FDEC03F053
:100578001C2A7F0E1C6403D0422A000E1C6E44BE47
:1005880012004450DEE14304D8A01200DAD7000E6E
:100598000F01396F000E3B6F000E956E000E936EC3
:1005A800000E836E000E816E38699268000E806EB0
:1005B800C280830EC216FC0EC116F30EC116C19E70
:1005C800C050C70B0809C06EC050F80B0209C06EB6
:1005D800C09E71EC06F0070E0F6E000E106E7F0EB7
:1005E800116E000E55EC05F0000E80EC06F0000EC2
:1005F8001C6EF20E1D6E7F0E1E6E000E206E000E1B
:100608001F6E000E84EC05F0000E1C6EFD0E1D6EB4
:100618007F0E1E6E000E206E000E1F6E070E84ECFD
:1006280005F0000E1C6EEC0E1D6E7F0E1E6E000E89
:10063800206E000E1F6E020E84EC05F0160E1C6E66
:10064800FB0E1D6E7F0E1E6E000E206E000E1F6EBE
:10065800070E84EC05F0070E1C6EE30E1D6E7F0E70
:100668001E6E000E206E000E1F6E060E84EC05F046
:10067800120021C023F0246A256A2034233601E3BE
:10068800248023502D6E2D50D8A409D0000E1F6E43
:10069800000E206E000E216E000E226E1200170E44
:1006A800236E1FC024F020C025F021C026F0232887
:1006B800276E04D0D890263225322432272EFAD736
:1006C8002450286E208EFF0E1F16FF0E2016000ED7
:1006D80021161F50296E20502A6E21502B6E2C6A2D
:1006E8008E0E2D5E2DAE0DD02D50800A8F0FD8A006
:1006F800CDD7D8902C322B322A3229322D3EF9D739
:100708000DD0170E2D6407D0C1D7D89029362A36B8
:100718002B362C362D062D50D8A4F7D72850D8B410
:1007280008D02C1E2B1E2A1E296C000E2A222B22D2
:100738002C2229C01FF02AC020F02BC021F02CC089
:1007480022F012000750D8B405D004500510061046
:10075800D8A40CD0000E046E000E056E000E066EB6
:100768001200072AD890063205320432000E04140B
:10077800096E000E05140A6EFE0E06140B6E095063
:100788000A100B10D8B40CD0ECD7072A010E042697
:10079800000E0522000E0622D890063205320432D9
:1007A800000E0414096E000E05140A6EFF0E0614DE
:1007B8000B6E09500A100B10D8B406D0E6D70706FE
:1007C800D89004360536063605BE03D0020E0760FB
:1007D800F6D707A0059ED890073207500612085092
:1007E800D8A4068E04C004F005C005F006C006F0C3
:1007F8001200156EE00E1024046E056AFF0E052225
:10080800000E076E050E066E4CEC06F004C018F0DC
:1008180005C019F00F50050DF3CF0FF0000E1B6E39
:10082800000E1A6E11501210D8A40BD0EF0E182417
:10083800F66E7D0E1920F76E0800F550166E176AD1
:100848000ED0EF0E1824F66E7D0E1920F76E0800F4
:10085800F550136E146A131C166E141C176E0FC015
:1008680009F016C00AF01550B2EC05F00F2A184A24
:10087800192A1A4A1B2A1BBED5D71B5005E1050E9B
:100888001A5CD8B01200CED71200000E096E07AE5F
:1008980006D0066C071ED8B0072A010E096E05AEF1
:1008A80006D0046C051ED8B0052A010E091A000EE0
:1008B8000B6E000E0A6E06500710D8B41CD0010E3D
:1008C800086E04D0D89006360736082A07AEFAD73D
:1008D800D8900A360B360650045C07500558D8A045
:1008E80005D00650045E0750055A0A80D890073292
:1008F8000632082EEDD70950D8B404D00A6C0B1E66
:10090800D8B00B2A0AC004F00BC005F01200000E84
:10091800096E05AE06D0046C051ED8B0052A010E76
:10092800096E07AE04D0066C071ED8B0072A065019
:100938000710D8B418D0010E086E04D0D890063627
:100948000736082A07AEFAD70650045C0750055840
:10095800D8A004D00650045E0750055AD890073234
:100968000632082EF1D70950D8B404D0046C051EFD
:10097800D8B0052A04C004F005C005F012001B6EAB
:100988001BC014F0D8901432D8901432D890143276
:1009980014501C6E1D6A1BC014F0070E1416010EAD
:1009A800156E000E166E142A03D0D890153616361A
:1009B800142EFBD715C017F016C018F013C010F08E
:1009C8001C505FEC06F0146E1450196E1A6A13C0AE
:1009D80009F0175019100A6E1C50B2EC05F01200FD
:1009E8001B6E1BC014F0D8901432D8901432D890D3
:1009F800143214501C6E1D6A1BC014F0070E141616
:100A0800010E156E000E166E142A03D0D8901536F6
:100A18001636142EFBD7151C176E161C186E13C02D
:100A280010F01C505FEC06F0146E1450196E1A6A20
:100A380013C009F0175019140A6E1C50B2EC05F0D7
:100A480012000B6E400E096004D0000E0E6E010EEF
:100A580003D0000E0E6E020E0D6E0DC00FF00A5080
:100A6800D8B406D00B508EEC06F00950E0EC05F037
:100A78000F5034EC06F09568000E936E0F04D8B44E
:100A88008190020E0F18D8B481928186818400F07B
:100A9800818800F083CF0CF08198818081820C508E
:100AA8001200156E15C016F0176A1CD010C018F089
:100AB800196A09D018C009F0000E0A6E1650B2EC77
:100AC80005F0184A192A1150126E136A1850125C50
:100AD8001350800A146E1950800A1458D8B0EAD7F7
:100AE800164A172A0F50126E136A1650125C1350CA
:100AF800800A146E1750800A1458D8A01200D6D74E
:100B0800216E000E236E000E226E15D01C5022247A
:100B18000F6E1DC0F6FF1EC0F7FF0800F5CF10F0DE
:100B28001FC011F020C012F02150FDEC03F01D4A47
:100B38001E2A224A232A1DC0F6FF1EC0F7FF0800FE
:100B4800F5500A0AD8B412001DC0F6FF1EC0F7FF00
:100B58000800F5500009D8B41200D8D70B6E400E23
:100B6800096004D0000E0D6E010E03D0000E0D6E4C
:100B7800020E0C6E0CC00EF00B508EEC06F00950F5
:100B8800E0EC05F00E5034EC06F0000E936E0E0407
:100B9800D8B48190020E0E18D8B4819281968184BF
:100BA80000F0818800F00AC083FF000E956E00F007
:100BB8008198818081821200086E400E08600CD0F6
:100BC800010E066E0850400919EC06F0020E066E7A
:100BD800400E19EC06F01200010E066E7F0E19EC9D
:100BE80006F0020E066E0850C00F400919EC06F018
:100BF8001200000E0F6E0DAE06D00C6C0D1ED8B094
:100C08000D2A010E0F6E0CC004F00DC005F0066A27
:100C18008E0E076E0FC008F0A6EC03F004C00CF0AF
:100C280005C00DF006C00EF01200076E065034EC39
:100C380006F0000E936E0604D8B48190020E0618D2
:100C4800D8B481928196819400F0818800F007C021
:100C580083FF000E956E00F08198818081821200DA
:100C6800056E9568000E936E0504D8B48190020E47
:100C78000518D8B481928186819400F0818800F0AB
:100C880083CF04F0819804BEF9D781808182120055
:100C980004500602F3CF08F0F4CF09F0045007021D
:100CA800F350092605500602F350092608C004F03F
:100CB80009C005F01200126E10C009F0010E0A6E8C
:100CC800125025EC05F010C009F0010E0A6E125002
:100CD80025EC05F0116E11501200818A010E066E86
:100CE8003F0E19EC06F0020E066E3F0E19EC06F0E8
:100CF800000E80EC06F01200086E010E066E085019
:100D0800C00919EC06F0020E066E0850C00919EC6D
:100D180006F01200086E010E066E0850B80919ECAC
:100D280006F0020E066E0850B80919EC06F012001B
:100D3800496A486A476A466A4A904A92000EF86EBB
:060D4800000135EF00F090
:107DEE0000000000000000005F0000000700070018
:107DFE00147F147F14242A7F2A12231308646236F8
:107E0E00495522500005030000001C22410000418C
:107E1E00221C00082A1C2A0808083E0808005030B8
:107E2E000000080808080800303000002010080480
:107E3E00023E5149453E00427F4000426151494653
:107E4E002141454B311814127F1027454545393CC9
:107E5E004A494930017109050336494949360649EF
:107E6E0049291E0036360000005636000000081460
:107E7E002241001414140041221408000201510979
:107E8E0006324979413E7E1111117E7F49494936AC
:107E9E003E414141227F4141221C7F494949417F58
:107EAE00090901013E414151327F0808087F004116
:107EBE007F41002040413F017F081422417F404016
:107ECE0040407F0204027F7F0408107F3E41414103
:107EDE003E7F090909063E4151215E7F0919294657
:107EEE00464949493101017F01013F4040403F1F52
:107EFE002040201F7F2018207F6314081463030482
:107F0E00780403615149454300007F414102040852
:107F1E00102041417F000004020102044040404015
:107F2E0040000102040020545454787F48444438E1
:107F3E003844444420384444487F38545454180834
:107F4E007E090102081454543C7F0804047800444E
:107F5E007D40002040443D00007F10284400417FBA
:107F6E0040007C041804787C0804047838444444A7
:107F7E00387C14141408081414187C7C08040408A3
:107F8E004854545420043F4440203C4040207C1C24
:107F9E002040201C3C4030403C44281028440C50CB
:107FAE0050503C4464544C44000836410000007F5D
:107FBE000000004136080008082A1C08081C2A0880
:107FCE00080800AA00080038383800000000000039
:107FDE0000000000006164633D2020202500302E4B
:107FEE00303056006164633D002020200031303077
:027FFE00000081
:020000040030CA
:0E000000FF021900FFA580FF0FC00FE00F40A8
:00000001FF
