:040000000FEF01F00D
:100008005382D9CF42F0DACF43F0F3CF44F0F4CFA4
:1000180045F0F6CF46F0F7CF47F0F8CF48F0F5CFE8
:1000280049F0F2A4E6D0320E526008D02D0E5218D4
:10003800D8A402D05C0E09D02D0E07D05C0E521841
:10004800D8A402D07C0E01D02F0E526E504A512AED
:1000580051BE28D0515004E10A0E505CD8A022D0DD
:10006800000E516E000E506E4E4A4F2A4FBE1AD0E7
:100078004F5004E13C0E4E5CD8A014D0000E4F6ED9
:10008800000E4E6E4C4A4D2A4DBE0CD04D5004E128
:100098003C0E4C5CD8A006D0000E4D6E000E4C6E87
:1000A8004A4A4B2A110E196E50C01AF051C01BF063
:1000B800000E1D6E000E1C6E040ED8EC01F00E0E24
:1000C8000C6E52C00DF0000E0F6E000E0E6E000E7C
:1000D8009EEC02F04FBE14D04F5004E10A0E4E5C65
:1000E800D8A00ED00E0E196E4EC01AF04FC01BF0DD
:1000F800000E1D6E000E1C6E040ED8EC01F018D018
:100108000E0E0C6E300E0D6E000E0F6E000E0E6E83
:10011800040E9EEC02F00F0E196E4EC01AF04FC07E
:100128001BF0000E1D6E000E1C6E040ED8EC01F0C4
:100138004DBE14D04D5004E10A0E4C5CD8A00ED030
:100148000B0E196E4CC01AF04DC01BF0000E1D6E40
:10015800000E1C6E040ED8EC01F018D00B0E0C6EBD
:10016800300E0D6E000E0F6E000E0E6E040E9EEC1D
:1001780002F00C0E196E4CC01AF04DC01BF0000EA8
:100188001D6E000E1C6E040ED8EC01F04BBE14D090
:100198004B5004E10A0E4A5CD8A00ED0080E196E26
:1001A8004AC01AF04BC01BF0000E1D6E000E1C6EEC
:1001B800040ED8EC01F018D0080E0C6E300E0D6E3F
:1001C800000E0F6E000E0E6E040E9EEC02F0090E6D
:1001D800196E4AC01AF04BC01BF0000E1D6E000EBF
:1001E8001C6E040ED8EC01F03C0ED76EB00ED66E25
:1001F800F29449C0F5FF48C0F8FF47C0F7FF46C072
:10020800F6FF45C0F4FF44C0F3FF43C0DAFF42C025
:10021800D9FF53921100EFEF04F023EC04F02BEC1C
:1002280005F0070E00016B6F000E6C6F7F0E6D6F8F
:10023800000E64EC03F0000E3CEC05F0000E00012B
:10024800786FC50E796F7F0E7A6F000E7C6F000E87
:100258007B6F000EC6EC03F0080E786FF40E796F12
:100268007F0E7A6F000E7C6F000E7B6F040EC6EC5B
:1002780003F0000E826F000E816F000E846F000E77
:10028800836F84A085D0000181518211D8A480D0C9
:10029800000E826F010E816F83518411D8A41AD089
:1002A800834B842B000E6B6F000E6C6F7F0E6D6F8F
:1002B800000E64EC03F0000E786FE60E796F7F0E87
:1002C8007A6F000E7C6F000E7B6F000EC6EC03F099
:1002D800F28A55D083058411D8A41AD0834B842B75
:1002E800000E6B6F000E6C6F7F0E6D6F000E64EC6E
:1002F80003F0000E786FD80E796F7F0E7A6F000EBC
:100308007C6F000E7B6F000EC6EC03F0F29A37D0BC
:10031800000E846F000E836F000E4B6E000E4A6E47
:100328004AC04CF04BC04DF04CC04EF04DC04FF0A1
:100338004EC050F04FC051F0000E6B6F000E6C6F46
:100348007F0E6D6F000E64EC03F0080E786FF40EEC
:10035800796F7F0E7A6F000E7C6F000E7B6F040E34
:10036800C6EC03F0000E786FC50E796F7F0E7A6FBA
:10037800000E7C6F000E7B6F000EC6EC03F0060EBD
:100388000001806F710EE82EFED7802FFCD779D739
:1003980084B077D7000181518211D8B472D7000E8A
:1003A800826F000E816F6DD73F6E1BAE19D019C0DA
:1003B8000CF02D0E0D6E1CC00EF01DC00FF03F503E
:1003C8009EEC02F0192A1AC001F01BC002F0FF0EC1
:1003D800046E036818EC05F001C01AF002C01BF0A7
:1003E800000E416E000E406E1A501B10D8A426D085
:1003F800300E1F6E404A412A21D040501F0FD96E3F
:10040800DA6A1AC001F01BC002F0000E046E0A0E70
:10041800036E2CEC03F00150300FDF6E404A412A86
:100428001AC001F01BC002F0000E046E0A0E036E23
:10043800EAEC02F001C01AF002C01BF01BBE24D087
:100448001B50DBE11A04D8A01FD0D7D74006D8A08C
:10045800410640501F0FD96EDA6ADF501E6E1E50DB
:100468001A6E1B6A19C00CF01AC00DF01CC00EF0F1
:100478001DC00FF03F509EEC02F0192A7F0E196440
:1004880003D03F2A000E196E41BE12004150DEE132
:100498004004D8A01200DAD7716FE00E00016C2575
:1004A800606F616BFF0E6123000E636F050E626F54
:1004B80005EC05F060C074F061C075F06B51050D76
:1004C800F3CF6BF0000E776F000E766F6D516E11E3
:1004D800D8A40BD0D10E7425F66E7D0E7521F76E5B
:1004E8000800F550726F736B0ED0D10E7425F66E3E
:1004F8007D0E7521F76E0800F5506F6F706B6F1DDC
:10050800726F701D736F6BC065F072C066F07151C9
:1005180095EC03F000016B2B744B752B764B772B06
:1005280077BFD4D7775105E1050E765DD8B01200B4
:10053800CDD71200126EE00E0D24016E026AFF0E76
:100548000222000E046E050E036E18EC05F001C0C1
:1005580015F002C016F00C50050DF3CF0CF0000E8C
:10056800186E000E176E0E500F10D8A40BD0D10EB7
:100578001524F66E7D0E1620F76E0800F550136EE2
:10058800146A0ED0D10E1524F66E7D0E1620F76E65
:100598000800F550106E116A101C136E111C146EB1
:1005A8000CC006F013C007F01250F5EC03F00C2A4B
:1005B800154A162A174A182A18BED5D7185005E121
:1005C800050E175CD8B01200CED71200000E066ECA
:1005D80004AE06D0036C041ED8B0042A010E066EC1
:1005E80002AE06D0016C021ED8B0022A010E061A0D
:1005F800000E086E000E076E03500410D8B41CD00D
:10060800010E056E04D0D89003360436052A04AED0
:10061800FAD7D890073608360350015C04500258C0
:10062800D8A005D00350015E0450025A0780D89024
:1006380004320332052EEDD70650D8B404D0076C27
:10064800081ED8B0082A07C001F008C002F012003E
:10065800000E066E02AE06D0016C021ED8B0022A49
:10066800010E066E04AE04D0036C041ED8B0042A32
:1006780003500410D8B418D0010E056E04D0D890D9
:1006880003360436052A04AEFAD70350015C045039
:100698000258D8A004D00350015E0450025AD890E2
:1006A80004320332052EF1D70650D8B404D0016CB9
:1006B800021ED8B0022A01C001F002C002F01200E6
:1006C800716F71C072F00001736B1DD06CC074F053
:1006D800756B0AD074C065F0000E666F725195ECA8
:1006E80003F00001744B752B6D516E6F6F6B745175
:1006F8006E5D6F51800A706F7551800A7059D8B05D
:10070800E9D7724B732B6B516E6F6F6B72516E5DC5
:100718006F51800A706F7351800A7059D8A0120007
:10072800D5D7676F400E0001656104D0000E696F70
:10073800010E03D0000E696F020E686F68C06AF080
:1007480067514DEC05F00001655149EC04F00001DA
:100758006A51BDEC04F0000E936E6A05D8B481901E
:10076800020E6A19D8B481928196818400F081883A
:1007780000F066C083FF000E956E00F081988180BE
:10078800818212007D6F000E00017F6F000E7E6F68
:1007980015D078517E256B6F79C0F6FF7AC0F7FFC8
:1007A8000800F5CF6CF07BC06DF07CC06EF07D5119
:1007B80050EC02F0794B7A2B7E4B7F2B79C0F6FFF9
:1007C8007AC0F7FF0800F5500A0AD8B4120079C0B9
:1007D800F6FF7AC0F7FF0800F5500009D8B41200F8
:1007E800D8D7086E400E066004D0000E0A6E010EBF
:1007F80003D0000E0A6E020E096E09C00BF00850F5
:100808005DEC05F0065069EC04F00B50D7EC04F0F1
:10081800000E936E0B04D8B48190020E0B18D8B456
:1008280081928196818400F0818800F007C083FF5F
:10083800000E956E00F08198818081821200000E72
:100848000F01396F000E3A6F000E3B6F000E3C6FC0
:10085800000E956E000E936E0F0E966E000E836E50
:10086800000E816E000E846EF28EF28CD59CD59AA5
:10087800D588D596D594D592D5803C0ED76EB00E36
:10088800D66EF294F29AD58E1200646F400E000173
:1008980064610DD0010E626F6451400986EC04F06A
:1008A800020E0001626F400E86EC04F01200010E89
:1008B800626F7F0E86EC04F0020E0001626F6451D5
:1008C800C00F400986EC04F01200056E400E05606A
:1008D8000CD0010E036E05504009A2EC04F0020E84
:1008E800036E400EA2EC04F01200010E036E7F0EA0
:1008F800A2EC04F0020E036E0550C00F4009A2ECF2
:1009080004F01200636F00016251BDEC04F0000EA8
:10091800936E6205D8B48190020E6219D8B48192A0
:100928008196819400F0818800F063C083FF000EF7
:10093800956E00F08198818081821200046E0350C8
:10094800D7EC04F0000E936E0304D8B48190020E25
:100958000318D8B481928196819400F0818800F0C0
:1009680004C083FF000E956E00F08198818081821B
:100978001200616F9568000E936E00016105D8B48E
:100988008190020E6119D8B481928186819400F019
:10099800818800F083CF60F08198000160BFF8D7AC
:1009A800818081821200026E9568000E936E0204A7
:1009B800D8B48190020E0218D8B4819281868194AD
:1009C80000F0818800F083CF01F0819801BEF9D74B
:1009D800818081821200D60EF66E0A0EF76E000E26
:1009E800F86E0900F5CF52F000EE4AF0080EEE6AF4
:1009F800E806FDE153905392000EF86E000111EFE6
:100A080001F060516203F3CF64F0F4CF65F06051F8
:100A18006303F350652761516203F350652764C08F
:100A280060F065C061F0120001500302F3CF05F0D9
:100A3800F4CF06F001500402F350062602500302D8
:100A4800F350062605C001F006C002F01200818AA4
:100A5800010E0001626F3F0E86EC04F0020E0001E9
:100A6800626F3F0E86EC04F0000E3CEC05F01200BD
:100A78000001646F010E0001626F6451C00986ECC9
:100A880004F0020E0001626F6451C00986EC04F0A4
:100A98001200646F010E0001626F6451B80986ECA0
:100AA80004F0020E0001626F6451B80986EC04F08C
:100AB8001200056E010E036E0550B809A2EC04F091
:0F0AC800020E036E0550B809A2EC04F012002DC7
:107DD00000000000000000005F0000000700070036
:107DE000147F147F14242A7F2A1223130864623616
:107DF000495522500005030000001C2241000041AB
:107E0000221C00082A1C2A0808083E0808005030D6
:107E1000000008080808080030300000201008049E
:107E2000023E5149453E00427F4000426151494671
:107E30002141454B311814127F1027454545393CE7
:107E40004A4949300171090503364949493606490D
:107E500049291E003636000000563600000008147E
:107E60002241001414140041221408000201510997
:107E700006324979413E7E1111117E7F49494936CA
:107E80003E414141227F4141221C7F494949417F76
:107E9000090901013E414151327F0808087F004134
:107EA0007F41002040413F017F081422417F404034
:107EB00040407F0204027F7F0408107F3E41414121
:107EC0003E7F090909063E4151215E7F0919294675
:107ED000464949493101017F01013F4040403F1F70
:107EE0002040201F7F2018207F63140814630304A0
:107EF000780403615149454300007F414102040871
:107F0000102041417F000004020102044040404033
:107F100040000102040020545454787F48444438FF
:107F20003844444420384444487F38545454180852
:107F30007E090102081454543C7F0804047800446C
:107F40007D40002040443D00007F10284400417FD8
:107F500040007C041804787C0804047838444444C5
:107F6000387C14141408081414187C7C08040408C1
:107F70004854545420043F4440203C4040207C1C42
:107F80002040201C3C4030403C44281028440C50E9
:107F900050503C4464544C44000836410000007F7B
:107FA0000000004136080008082A1C08081C2A089E
:107FB000080800AA00080038383800000000000057
:107FC0000000000000507265737320524530207429
:107FD0006F2073746172740054696D6572207374DC
:107FE0006F707065640054696D657220737461729E
:107FF0007465640030303A30303A30302E30000052
:020000040030CA
:0E000000FF021900FFA580FF0FC00FE00F40A8
:00000001FF
