:04000000F4EF36F0F3
:106DE800000EF86E0001FDEF39F0056E010E036E1E
:106DF8000550C00961EC37F0020E036E0550C0095A
:106E080061EC37F01200056E010E036E0550B809EB
:106E180061EC37F0020E036E0550B80961EC37F0EB
:106E28001200818A010E036E3F0E61EC37F0020EEC
:106E3800036E3F0E61EC37F0000EF9EC36F01200ED
:106E48000F6E0DC006F0010E076E0F5053EC38F0B0
:106E58000DC006F0010E076E0F5053EC38F00E6EA1
:106E68000E50120001500302F3CF05F0F4CF06F0E4
:106E780001500402F350062602500302F35006267E
:106E880005C001F006C002F01200026E9568000EFF
:106E9800936E0204D8B48190020E0218D8B481927D
:106EA8008186819400F0818800F083CF01F0819879
:106EB80001BEF9D7818081821200046E035049EC2B
:106EC80037F0000E936E0304D8B48190020E0318B5
:106ED800D8B481928196819400F0818800F004C032
:106EE80083FF000E956E00F08198818081821200E8
:106EF800056E400E05600CD0010E036E055040096A
:106F080061EC37F0020E036E400E61EC37F01200B0
:106F1800010E036E7F0E61EC37F0020E036E055012
:106F2800C00F400961EC37F01200086E400E066091
:106F380004D0000E0A6E010E03D0000E0A6E020E77
:106F4800096E09C00BF0085007EC37F006507CECCE
:106F580037F00B5049EC37F0000E936E0B04D8B4A1
:106F68008190020E0B18D8B481928196818400F02A
:106F7800818800F007C083FF000E956E00F08198AD
:106F88008180818212001E6E000E206E000E1F6E20
:106F980015D019501F240C6E1AC0F6FF1BC0F7FF3E
:106FA8000800F5CF0DF01CC00EF01DC00FF01E50EC
:106FB8005FEC39F01A4A1B2A1F4A202A1AC0F6FF2A
:106FC8001BC0F7FF0800F5500A0AD8B412001AC00F
:106FD800F6FF1BC0F7FF0800F5500009D8B41200EF
:106FE800D8D7126E12C013F0146A1CD00DC015F059
:106FF800166A09D015C006F0000E076E135099ECFA
:1070080037F0154A162A0E500F6E106A15500F5C8D
:107018001050800A116E1650800A1158D8B0EAD75D
:10702800134A142A0C500F6E106A13500F5C10503C
:10703800800A116E1450800A1158D8A01200D6D7B1
:107048000A0E196EF80E1A6E7F0E1B6E000E1D6E5C
:10705800000E1C6E020EC7EC37F0030E196E950E6B
:107068001A6E7F0E1B6E000E1D6E000E1C6E050E36
:10707800C7EC37F00B0E226E260E216E5E0EE82E40
:10708800FED7212EFCD7222EFAD7070E0C6E000E43
:107098000D6E7F0E0E6E000EF5EC37F01200086EC6
:1070A800400E066004D0000E0A6E010E03D0000EDA
:1070B8000A6E020E096E09C00CF00750D8B406D04B
:1070C800085007EC37F006507CEC37F00C5049ECD0
:1070D80037F09568000E936E0C04D8B48190020EB8
:1070E8000C18D8B481928186818400F0818800F0E0
:1070F80083CF0BF08198818081820B5012001A6E29
:107108001AC011F0D8901132D8901132D89011329B
:107118001150186E196A1AC011F0070E1116010ED7
:10712800126E000E136E112A03D0D8901236133641
:10713800112EFBD712C014F013C015F010C00DF0BB
:10714800185024EC37F0116E1150166E176A10C0E3
:1071580006F014501610076E185099EC37F012000C
:107168001A6E1AC011F0D8901132D8901132D890F6
:1071780011321150186E196A1AC011F0070E111643
:10718800010E126E000E136E112A03D0D89012361B
:107198001336112EFBD7121C146E131C156E10C05B
:1071A8000DF0185024EC37F0116E1150166E176A56
:1071B80010C006F014501614076E185099EC37F0EA
:1071C8001200000E066E02AE06D0016C021ED8B088
:1071D800022A010E066E04AE04D0036C041ED8B059
:1071E800042A03500410D8B418D0010E056E04D038
:1071F800D89003360436052A04AEFAD70350015C4A
:1072080004500258D8A004D00350015E0450025A1A
:10721800D89004320332052EF1D70650D8B404D0E2
:10722800016C021ED8B0022A01C001F002C002F0AF
:107238001200000E226E000E216E1F502010D8A4DE
:1072480007D01DC010F01B502124B4EC38F006D034
:107258001DC010F01B50212483EC38F0214A222A4B
:1072680022BEEBD7225004E1080E215CD8A0E5D756
:10727800000E246E000E236E1F502010D8A408D0D4
:107288001D50060F106E1B502324B4EC38F007D0A5
:107298001D50060F106E1B50232483EC38F0234A30
:1072A800242A24BEE9D7245005E1080E235CD8B06F
:1072B8001200E2D71200126EE00E0D24016E026A6F
:1072C800FF0E0222000E046E050E036E36EC37F038
:1072D80001C015F002C016F00C50050DF3CF0CF0EC
:1072E800000E186E000E176E0E500F10D8A40BD09B
:1072F800A10E1524F66E7D0E1620F76E0800F550C7
:10730800136E146A0ED0A10E1524F66E7D0E16208B
:10731800F76E0800F550106E116A101C136E111CE0
:10732800146E0CC006F013C007F0125099EC37F039
:107338000C2A154A162A174A182A18BED5D71850E3
:1073480005E1050E175CD8B01200CED71200000E6A
:107358001C6E000E1B6E0A0E106E1B506E0F83EC17
:1073680038F01B4A1C2A1CBEF6D71C5004E10B0E31
:107378001B5CD8A0F0D7000E1E6E000E1D6E710E9D
:10738800106E1D506E0F83EC38F01D4A1E2A1EBE6B
:10739800F6D71E5004E10B0E1D5CD8A0F0D7000EE6
:1073A800206E000E1F6E1F500A0F106E6E0E83ECBB
:1073B80038F01F4A202A20BEF6D7205004E1680E74
:1073C8001F5CD8A0F0D7000E226E000E216E21504F
:1073D8000A0F106E780E83EC38F0214A222A22BE5A
:1073E800F6D7225005E1680E215CD8B01200EFD71D
:1073F8001200000E0F01386F000E396F000E3A6F41
:10740800000E3B6F000E956E000E936E9268000E94
:10741800836E000E816E000E806E15EC37F0070E3D
:107428000C6E000E0D6E7F0E0E6E000EF5EC37F032
:10743800000EF9EC36F0000E366E090E356E35C0CA
:1074480045F036C046F0000E386E030E376E37C072
:1074580047F038C048F0000E3A6E030E396E000E41
:10746800346E010E336E33C041F034C042F041C077
:107478003FF042C040F03FC03DF040C03EF03DC04C
:107488003BF03EC03CF0000E446E000E436E24EC10
:1074980038F0ABEC39F0030E196EAA0E1A6E7F0E97
:1074A8001B6E000E1D6E000E1C6E010EC7EC37F031
:1074B800030E196ED20E1A6E7F0E1B6E000E1D6E15
:1074C800000E1C6E020EC7EC37F0030E196EBE0ECE
:1074D8001A6E7F0E1B6E000E1D6E000E1C6E030EC4
:1074E800C7EC37F0030E196EE60E1A6E7F0E1B6E90
:1074F800000E1D6E000E1C6E040EC7EC37F0150E44
:107508000C6E200E0D6E000E0F6E010E0E6E040E28
:107518005FEC39F080B080B21AD03D503E10D8A44C
:1075280016D046BE06D0465006E1090E455CD8B0D6
:1075380002D0454A462A000E3E6E010E3D6E030EED
:10754800316E980EE82EFED7312EFCD708D03D506C
:107558003E10D8A480B003D03D06D8A03E0680B225
:1075680080B01AD03B503C10D8A416D046BE08D0E4
:10757800465003E14504D8A003D04506D8A04606E6
:10758800000E3C6E010E3B6E030E316E980EE82E17
:10759800FED7312EFCD708D03B503C10D8A480B27F
:1075A80003D03B06D8A03C0680B480B61AD03F5022
:1075B8004010D8A416D048BE08D0485003E147046C
:1075C800D8A003D04706D8A04806000E406E010E8A
:1075D8003F6E030E316E980EE82EFED7312EFCD783
:1075E80008D03F504010D8A480B403D03F06D8A09C
:1075F800400680B680B41AD041504210D8A416D0A4
:1076080048BE06D0485006E1030E475CD8B002D009
:10761800474A482A000E426E010E416E030E316E33
:10762800980EE82EFED7312EFCD708D041504210D4
:10763800D8A480B603D04106D8A0420680A810D0AE
:1076480043504410D8A40CD0000E446E010E436E73
:10765800030E316E980EE82EFED7312EFCD728D0B7
:1076680043504410D8A480B823D04306D8A0440679
:107678003ABE06D03A501CE1160E395CD8B018D084
:1076880047C025F048C026F045C027F046C028F07E
:1076980039C031F03AC032F0311E321E314A322A36
:1076A80031C029F032C02AF09FEC3BF0394A3A2A1F
:1076B80033C001F034C002F0000E046E0A0E036EEF
:1076C800E5EC38F001500210D8A432D045503518F6
:1076D8000BE146503618D8A407D04750371804E1B4
:1076E80048503818D8B424D047C025F048C026F0F0
:1076F80045C027F046C028F0000E2A6E010E296EFC
:107708009FEC3BF037C025F038C026F035C027F095
:1077180036C028F0000E2A6E000E296E9FEC3BF052
:1077280045C035F046C036F047C037F048C038F09D
:10773800334A342AEFD62AAE15D0000E2E6E060E26
:107748002D6E29C02BF02AC02CF02B1E2C1E2B4A84
:107758002C2A2BC02FF02CC030F0000E2A6E000E01
:10776800296E3CD025C02BF026C02CF0D8902B36A3
:107778002C36D8902B362C36D8902B362C36080E33
:107788002B241B6E000E2C201C6E27C001F028C075
:1077980002F0000E046E0A0E036E36EC37F00E0E81
:1077A80001241D6E000E02201E6E29C01FF02AC083
:1077B80020F01DEC39F0010E25242D6E000E262038
:1077C8002E6E27C02BF028C02CF0D8902B362C36E4
:1077D800030E2B242F6E000E2C20306E2550261001
:1077E800D8A4B3D028BE06D0285059E1050E275C8E
:1077F800D8B055D028BE06D0285020E1020E275C0C
:10780800D8B01CD027502810D8A40CD02FC00CF00A
:10781800310E0D6E29C00EF02AC00FF02D505FEC0E
:1078280039F012002FC00CF0320E0D6E29C00EF088
:107838002AC00FF02D505FEC39F0120028BE23D07B
:10784800285004E1030E275CD8A01DD0030E27188A
:107858002810D8A40CD02FC00CF0340E0D6E29C0FF
:107868000EF02AC00FF02D505FEC39F012002FC037
:107878000CF0350E0D6E29C00EF02AC00FF02D50F9
:107888005FEC39F012002FC00CF0330E0D6E29C0DA
:107898000EF02AC00FF02D505FEC39F0120028BE10
:1078A80006D0285021E1070E275CD8B01DD0060E5F
:1078B80027182810D8A40CD02FC00CF0370E0D6E46
:1078C80029C00EF02AC00FF02D505FEC39F01200DD
:1078D8002FC00CF0360E0D6E29C00EF02AC00FF026
:1078E8002D505FEC39F0120028BE23D0285004E157
:1078F800080E275CD8A01DD0080E27182810D8A479
:107908000CD02FC00CF0390E0D6E29C00EF02AC015
:107918000FF02D505FEC39F012002FC00CF0300E34
:107928000D6E29C00EF02AC00FF02D505FEC39F013
:1079380012002FC00CF0380E0D6E29C00EF02AC0B0
:107948000FF02D505FEC39F0120025042610D8A452
:10795800B3D028BE06D0285059E1050E275CD8B010
:1079680055D028BE06D0285020E1020E275CD8B09A
:107978001CD027502810D8A40CD02FC00CF0510EC2
:107988000D6E29C00EF02AC00FF02D505FEC39F0B3
:1079980012002FC00CF0570E0D6E29C00EF02AC031
:1079A8000FF02D505FEC39F0120028BE23D028507C
:1079B80004E1030E275CD8A01DD0030E2718281059
:1079C800D8A40CD02FC00CF0520E0D6E29C00EF0AA
:1079D8002AC00FF02D505FEC39F012002FC00CF0C8
:1079E800540E0D6E29C00EF02AC00FF02D505FEC1A
:1079F80039F012002FC00CF0450E0D6E29C00EF0A4
:107A08002AC00FF02D505FEC39F0120028BE06D0C6
:107A1800285021E1070E275CD8B01DD0060E271884
:107A28002810D8A40CD02FC00CF0550E0D6E29C00C
:107A38000EF02AC00FF02D505FEC39F012002FC065
:107A48000CF0590E0D6E29C00EF02AC00FF02D5003
:107A58005FEC39F0120028BE23D0285004E1080E4C
:107A6800275CD8A01DD0080E27182810D8A40CD041
:107A78002FC00CF04F0E0D6E29C00EF02AC00FF06B
:107A88002D505FEC39F012002FC00CF0500E0D6E27
:107A980029C00EF02AC00FF02D505FEC39F012000B
:107AA8002FC00CF0490E0D6E29C00EF02AC00FF041
:107AB8002D505FEC39F01200020E25182610D8A4BC
:107AC800B3D028BE06D0285059E1050E275CD8B09F
:107AD80055D028BE06D0285020E1020E275CD8B029
:107AE8001CD027502810D8A40CD02FC00CF0410E61
:107AF8000D6E29C00EF02AC00FF02D505FEC39F042
:107B080012002FC00CF0530E0D6E29C00EF02AC0C3
:107B18000FF02D505FEC39F0120028BE23D028500A
:107B280004E1030E275CD8A01DD0030E27182810E7
:107B3800D8A40CD02FC00CF0460E0D6E29C00EF044
:107B48002AC00FF02D505FEC39F012002FC00CF056
:107B5800470E0D6E29C00EF02AC00FF02D505FECB5
:107B680039F012002FC00CF0440E0D6E29C00EF033
:107B78002AC00FF02D505FEC39F0120028BE06D055
:107B8800285021E1070E275CD8B01DD0060E271813
:107B98002810D8A40CD02FC00CF04A0E0D6E29C0A6
:107BA8000EF02AC00FF02D505FEC39F012002FC0F4
:107BB8000CF0480E0D6E29C00EF02AC00FF02D50A3
:107BC8005FEC39F0120028BE23D0285004E1080EDB
:107BD800275CD8A01DD0080E27182810D8A40CD0D0
:107BE8002FC00CF04C0E0D6E29C00EF02AC00FF0FD
:107BF8002D505FEC39F012002FC00CF0400E0D6EC6
:107C080029C00EF02AC00FF02D505FEC39F0120099
:107C18002FC00CF04B0E0D6E29C00EF02AC00FF0CD
:107C28002D505FEC39F01200030E25182610D8A449
:107C3800120028BE06D0285059E1050E275CD8B09E
:107C480055D028BE06D0285020E1020E275CD8B0B7
:107C58001CD027502810D8A40CD02FC00CF05A0ED6
:107C68000D6E29C00EF02AC00FF02D505FEC39F0D0
:107C780012002FC00CF0580E0D6E29C00EF02AC04D
:107C88000FF02D505FEC39F0120028BE23D0285099
:107C980004E1030E275CD8A01DD0030E2718281076
:107CA800D8A40CD02FC00CF0560E0D6E29C00EF0C3
:107CB8002AC00FF02D505FEC39F012002FC00CF0E5
:107CC800420E0D6E29C00EF02AC00FF02D505FEC49
:107CD80039F012002FC00CF0430E0D6E29C00EF0C3
:107CE8002AC00FF02D505FEC39F0120028BE06D0E4
:107CF800285021E1070E275CD8B01DD0060E2718A2
:107D08002810D8A40CD02FC00CF04D0E0D6E29C031
:107D18000EF02AC00FF02D505FEC39F012002FC082
:107D28000CF04E0E0D6E29C00EF02AC00FF02D502B
:107D38005FEC39F0120028BE23D0285004E1080E69
:107D4800275CD8A01DD0080E27182810D8A40CD05E
:107D58002FC00CF02E0E0D6E29C00EF02AC00FF0A9
:107D68002D505FEC39F012002FC00CF0200E0D6E74
:107D780029C00EF02AC00FF02D505FEC39F0120028
:107D88002FC00CF02C0E0D6E29C00EF02AC00FF07B
:107D98002D505FEC39F012000000000000000000D8
:107DA8005F00000007000700147F147F14242A7F57
:107DB8002A1223130864623649552250000503002D
:107DC80000001C2241000041221C00082A1C2A082D
:107DD80008083E0808005030000008080808080095
:107DE8003030000020100804023E5149453E004250
:107DF8007F400042615149462141454B31181412D8
:107E08007F1027454545393C4A49493001710905E4
:107E1800033649494936064949291E0036360000C5
:107E280000563600000008142241001414140041C2
:107E3800221408000201510906324979413E7E1197
:107E480011117E7F494949363E414141227F4141D6
:107E5800221C7F494949417F090901013E4141519D
:107E6800327F0808087F00417F41002040413F01E0
:107E78007F081422417F404040407F0204027F7FF8
:107E88000408107F3E4141413E7F090909063E41F1
:107E980051215E7F09192946464949493101017F27
:107EA80001013F4040403F1F2040201F7F201820F5
:107EB8007F6314081463030478040361514945433C
:107EC80000007F4141020408102041417F00000466
:107ED80002010204404040404000010204002054D6
:107EE8005454787F484444383844444420384444FF
:107EF800487F3854545418087E0901020814545411
:107F08003C7F0804047800447D40002040443D0044
:107F1800007F10284400417F40007C041804787CCE
:107F28000804047838444444387C141414080814A9
:107F380014187C7C080404084854545420043F4412
:107F480040203C4040207C1C2040201C3C403040CD
:107F58003C44281028440C5050503C4464544C4431
:107F6800000836410000007F000000413608000884
:107F7800082A1C08081C2A08080800AA0008003853
:107F8800383800000000000000000000004D697152
:107F980075656C20546F726E65722056696E616CDF
:107FA800730031203220332034203520362037200A
:107FB80038203920300041205320442046204720D3
:107FC80048204A204B204C20400051205720452073
:107FD800522054205920552049204F2050005A2023
:107FE80058204320562042204E204D202C202E0081
:077FF8004C38204349000052
:020000040030CA
:0E000000FF021900FFA580FF0FC00FE00F40A8
:00000001FF
