:040000005DEF01F0BF
:100008004282E9CF14F0EACF15F0D9CF16F0DACF53
:1000180017F0F6CF18F0F7CF19F0F8CF1AF0F5CFA0
:100028001BF09DB89EA80AD08EEC19F01C6E1C50CF
:10003800D8B403D01CC0ADFF01D09D980001BD51BC
:10004800BE11D8B49DAA76D09EAA74D0AECF1DF0AA
:10005800700E1D18D8A417D02CBE06D02C500AE15B
:100068006C0E2B5CD8B006D02B4A2C2A000ED86F09
:10007800520ED76FE74BE82BE00E056E7F0E066E2B
:1000880045EC0FF052D06F0E1D18D8A418D02CBE16
:100098000DD02C5004E1040E2B5CD8A007D02B0601
:1000A800D8A02C06000ED86F4C0ED76FE94BEA2B60
:1000B800ED0E056E7F0E066E45EC0FF036D0610E24
:1000C8001D18D8A417D02ABE06D02A500AE13C0E23
:1000D800295CD8B006D0294A2A2A000ED86F550EB6
:1000E800D76FE54BE62BE70E056E7F0E066E45ECE7
:1000F8000FF01BD0710E1D18D8A417D02ABE0DD032
:100108002A5004E10C0E295CD8A007D02906D8A0F3
:100118002A06000ED86F440ED76FE34BE42BF30E7C
:10012800056E7F0E066E45EC0FF0000E0001BE6FE7
:10013800010EBD6FF2BAF2A477D0320E416008D03A
:100148002D0E4118D8A402D05C0E09D02D0E07D070
:100158005C0E4118D8A402D07C0E01D02F0E416E3F
:10016800000EE86F000EE76FE7C0E9F0E8C0EAF0BC
:10017800E9C0E3F0EAC0E4F0E3C0E5F0E4C0E6F08B
:1001880031503210D8A404D0000ECE6F010ECD6FBE
:1001980031503210D8B42FB014D03AEC18F0030E06
:1001A8000D14C96FCA6B3AEC18F0030E0D14C56F25
:1001B800C66B3AEC18F0030E0D14C16FC26B9D8A22
:1001C8009D88314A322A32BE2AD0325004E10A0EC2
:1001D800315CD8A024D0000E326E000E316E2FB0E4
:1001E800C2822F4A302A30BE1AD0305004E13C0E69
:1001F8002F5CD8A014D0000E306E000E2F6E2D4A42
:100208002E2A2EBE0CD02E5004E13C0E2D5CD8A018
:1002180006D0000E2E6E000E2D6EEF4BF02B330E17
:10022800D76E330ED66EF2949DBC9EAC28D0C4CF48
:1002380027F0286AC3CFD3F0D46B27C011F028C0A9
:1002480012F0D89011361236D8901136123611C0E5
:1002580027F012C028F0D3C011F0D4C012F0060E57
:10026800136E123412321132132EFBD711C0D3F091
:1002780012C0D4F0D3512726D45128229E9C9DB277
:100288009EA205D03738E842F80BBE6E9E921BC07E
:10029800F5FF1AC0F8FF19C0F7FF18C0F6FF17C01E
:1002A800DAFF16C0D9FF15C0EAFF14C0E9FF429271
:1002B8001100B5EF15F005EC19F076EC15F0E7EC48
:1002C80014F0A50E226E7F0E236EB2EC0EF00E0E09
:1002D80000017B6FCB0E7C6F7F0E7D6F000E7F6FF2
:1002E800000E7E6F000E62EC17F0F2EC15F0000EB7
:1002F800BC6F030EBB6F000EB26F000EB16FF28AB7
:10030800F28A000EB46F000EB36F000EB66F000EC7
:10031800B56F000EAC6F000EAB6F000EBA6F000E1B
:10032800B96F000EB86F030EB76F000E386E000E6F
:10033800376E000ED06F000ECF6F000ED86F440ED0
:10034800D76F000ED66F550ED56F000EEE6F3C0EB0
:10035800ED6FEDC02BF0EEC02CF0000EEC6F3B0EF5
:10036800EB6FEBC029F0ECC02AF0000EE46F000E32
:10037800E36FE3C0E5F0E4C0E6F0E5C0E7F0E6C00F
:10038800E8F0E7C0E9F0E8C0EAF0000EDA6FC80E5E
:10039800D96F9E9C9D8CC2822BC071F02CC072F0CC
:1003A800A5EC19F0FA0E226E7F0E236EB2EC0EF059
:1003B80029C071F02AC072F0A5EC19F0EB0E226E7C
:1003C8007F0E236EB2EC0EF0D5C077F029C078F01E
:1003D8002AC079F02BC07AF02CC07BF00001D751ED
:1003E80017EC09F0000E0001746F370E736F000EE2
:1003F800766F5F0E756FEBEC13F03DC073F03EC087
:1004080074F03FC075F040C076F044EC12F0000E76
:100418000001BE6F000EBD6F000EBA6F000EB96FFF
:1004280080A426D0B951BA11D8A422D0B751E75D1B
:10043800E851800AA46FB851800AA459D8B018D0DE
:100448002CBE06D02C500AE16C0E2B5CD8B006D01E
:100458002B4A2C2A000ED86F520ED76FE74BE82B89
:10046800B94BBA2BE00E226E7F0E236EB2EC0EF063
:1004780080A828D00001B951BA11D8A423D0B75107
:10048800E95DEA51800AA46FB851800AA459D8B02E
:1004980019D02CBE0DD02C5004E1040E2B5CD8A032
:1004A80007D02B06D8A02C06000ED86F4C0ED76F9D
:1004B800E94BEA2BB94BBA2BED0E226E7F0E236E59
:1004C800B2EC0EF080A227D00001B951BA11D8A41D
:1004D80022D0B751E55DE651800AA46FB851800A71
:1004E800A459D8B018D02ABE06D02A500AE13C0E2A
:1004F800295CD8B006D0294A2A2A000ED86F550E92
:10050800D76FE54BE62BB94BBA2BE70E226E7F0E61
:10051800236EB2EC0EF080A628D00001B951BA11B2
:10052800D8A423D0B751E35DE451800AA46FB85131
:10053800800AA459D8B019D02ABE0DD02A5004E197
:100548000C0E295CD8A007D02906D8A02A06000ED0
:10055800D86F440ED76FE34BE42BB94BBA2BF30E8D
:10056800226E7F0E236EB2EC0EF0000E0001BE6FFD
:10057800000EBD6F25502610D8A450D0FC0EA46FD5
:10058800FF0EA56F3FC0A6F040C0A7F0A451A62754
:10059800A551A7232B50A65DA751800AA86F2C5000
:1005A800800AA859D8B03AD0080E3F24A46F000E8C
:1005B8004020A56FA4512B5C2C50800AA66FA55132
:1005C800800AA659D8B02AD0FC0EA46FFF0EA56FDA
:1005D8003DC0A6F03EC0A7F0A451A627A551A72369
:1005E8002950A65DA751800AA86F2A50800AA859E9
:1005F800D8B014D00A0E3D24A46F000E3E20A56F7B
:10060800A451295C2A50800AA66FA551800AA659D0
:10061800D8B004D0000E266E010E256E25042610D3
:10062800D8B440BE12D0405004E15F0E3F5CD8A061
:100638000CD040BE06D0405008E1640E3F5CD8B0F4
:1006480004D0000E266E020E256E020E2518261006
:10065800D8A485D03DC073F03EC074F03FC075F09B
:1006680040C076F0CBEC11F03D4A3E2A3DC073F015
:100678003EC074F03FC075F040C076F044EC12F014
:100688003EBE6DD03E5004E1320E3D5CD8A067D02E
:10069800E7EC17F022C068F023C069F03FC06AF0A9
:1006A80040C06BF0F2EC19F068C0AFF069C0B0F070
:1006B800010E3124686F000E3220696FAFC06AF0F6
:1006C800B0C06BF0F2EC19F068C06EF069C06FF062
:1006D80030EC1AF03DC073F03EC074F03FC075F0C6
:1006E80040C076F0CBEC11F0CCEC19F06EC03FF0C6
:1006F8006FC040F0B9EC19F06EC03DF06FC03EF02D
:10070800000E266E000E256E37C073F038C074F0E8
:10071800040E3724756F000E3820766F90EC13F0B6
:10072800040E3726000E38223DC073F03EC074F028
:100738003FC075F040C076F044EC12F0000E0001A6
:10074800746F370E736F000E766F5F0E756FEBEC7C
:1007580013F01C0E37183810D8B4C6EC18F0000186
:10076800CD05CE11D8A42BD0BF51C011D8A427D005
:10077800000E746F370E736F000E766F5F0E756F15
:10078800EBEC13F03DC073F03EC074F03FC075F061
:1007980040C076F044EC12F0D5C077F029C078F06C
:1007A8002AC079F02BC07AF02CC07BF00001D5511B
:1007B80017EC09F0000E0001CE6F000ECD6FF90E98
:1007C800A46FFF0EA56FF5C0A6F0F6C0A7F0A45160
:1007D800A627A551A7232B50A65DA751800AA86F6D
:1007E8002C50800AA859D8B05DD0080EF525A46F02
:1007F800000EF621A56FA4512B5C2C50800AA66F21
:10080800A551800AA659D8B04DD0FC0EA46FFF0E92
:10081800A56FCBC0A6F0CCC0A7F0A451A627A551C0
:10082800A7232950A65DA751800AA86F2A50800ADD
:10083800A859D8B037D0080ECB25A46F000ECC210C
:10084800A56FA451295C2A50800AA66FA551800A79
:10085800A659D8B027D0CBC073F0CCC074F0F5C07F
:1008680075F0F6C076F0D4EC0FF00001BB07D8A005
:10087800BC07000ECC6F190ECB6F000EF66F320E50
:10088800F56FCBC073F0CCC074F0F5C075F0F6C04E
:1008980076F056EC10F00001BB2904E1BC29D8B46D
:1008A800E6EC18F0F90EA46FFF0EA56FF3C0A6F0E2
:1008B800F4C0A7F0A451A627A551A7232B50A65DE5
:1008C800A751800AA86F2C50800AA859D8B05DD0CB
:1008D800080EF325A46F000EF421A56FA4512B5C1C
:1008E8002C50800AA66FA551800AA659D8B04DD0C1
:1008F800FC0EA46FFF0EA56FC7C0A6F0C8C0A7F076
:10090800A451A627A551A7232950A65DA751800A5F
:10091800A86F2A50800AA859D8B037D0080EC72522
:10092800A46F000EC821A56FA451295C2A50800A23
:10093800A66FA551800AA659D8B027D0C7C073F0B2
:10094800C8C074F0F3C075F0F4C076F0D4EC0FF0C2
:100958000001BB07D8A0BC07000EC86F190EC76FEF
:10096800000EF46F320EF36FC7C073F0C8C074F096
:10097800F3C075F0F4C076F056EC10F00001BB2916
:1009880004E1BC29D8B4E6EC18F0F90EA46FFF0E08
:10099800A56FF1C0A6F0F2C0A7F0A451A627A551F3
:1009A800A7232B50A65DA751800AA86F2C50800A58
:1009B800A859D8B05DD0080EF125A46F000EF22119
:1009C800A56FA4512B5C2C50800AA66FA551800AF4
:1009D800A659D8B04DD0FC0EA46FFF0EA56FC3C0AA
:1009E800A6F0C4C0A7F0A451A627A551A723295053
:1009F800A65DA751800AA86F2A50800AA859D8B0C6
:100A080037D0080EC325A46F000EC421A56FA451CA
:100A1800295C2A50800AA66FA551800AA659D8B029
:100A280027D0C3C073F0C4C074F0F1C075F0F2C031
:100A380076F0D4EC0FF00001BB07D8A0BC07000E7D
:100A4800C46F190EC36F000EF26F320EF16FC3C080
:100A580073F0C4C074F0F1C075F0F2C076F056ECD3
:100A680010F00001BB2904E1BC29D8B4E6EC18F069
:100A78003150B31904E13250B419D8B4AAD0BF51D7
:100A8800C011D8A4A6D0170E7B6F31C07CF032C03D
:100A98007DF0000E7F6F000E7E6F000E52EC11F09D
:100AA80030BE14D0305004E10A0E2F5CD8A00ED00E
:100AB800140E7B6F2FC07CF030C07DF0000E7F6F6E
:100AC800000E7E6F000E52EC11F018D0140E6E6FEF
:100AD800300E6F6F000E716F000E706F000E99EC84
:100AE80014F0150E7B6F2FC07CF030C07DF0000E27
:100AF8007F6F000E7E6F000E52EC11F02EBE14D0E8
:100B08002E5004E10A0E2D5CD8A00ED0110E7B6F7A
:100B18002DC07CF02EC07DF0000E7F6F000E7E6F22
:100B2800000E52EC11F018D0110E6E6F300E6F6F70
:100B3800000E716F000E706F000E99EC14F0120E1B
:100B48007B6F2DC07CF02EC07DF0000E7F6F000EF5
:100B58007E6F000E52EC11F0F0BF14D0F05104E19A
:100B68000A0EEF5DD8A00ED00E0E7B6FEFC07CF0A2
:100B7800F0C07DF0000E7F6F000E7E6F000E52EC0D
:100B880011F018D00E0E6E6F300E6F6F000E716F71
:100B9800000E706F000E99EC14F00F0E7B6FEFC013
:100BA8007CF0F0C07DF0000E7F6F000E7E6F000EAF
:100BB80052EC11F0180E6E6F41C06FF0000E716F9D
:100BC800000E706F000E99EC14F031C0B3F032C013
:100BD800B4F0BB51B11904E1BC51B219D8B40AD070
:100BE800BBC083F0BCC084F027EC13F0BBC0B1F0ED
:100BF800BCC0B2F0ED512B180BE1EE512C18D8A463
:100C080007D0EB51291804E1EC512A18D8B417D0B1
:100C18009D9AD5C077F029C078F02AC079F02BC00A
:100C28007AF02CC07BF0D75117EC09F029C0EBF013
:100C38002AC0ECF02BC0EDF02CC0EEF09D8A00012C
:100C4800D2BF80D0D25103E1D105D8A07BD0CBC090
:100C580073F0CCC074F0F5C075F0F6C076F0D4EC43
:100C68000FF00001C951CA11D8A41AD0F6BF06D096
:100C7800F6510FE16C0EF55DD8B00BD0CCBF06D0A5
:100C8800CC5107E13C0ECB5DD8B003D0F54BF62B29
:100C98001ED0E7EC17F0030E2214C96FCA6B48D0B8
:100CA800C905CA11D8A416D0F6BFF3D7F65104E186
:100CB800040EF55DD8A0EDD7CCBF06D0CC51E9E144
:100CC8003C0ECB5DD8B0E5D7F507D8A0F607CB4BDF
:100CD800CC2B2ED0020EC919CA11D8A413D0F6BF36
:100CE80006D0F651D6E16C0EF55DD8B0D2D7CCBFA0
:100CF800D0D7CC5104E10C0ECB5DD8A0CAD7F54BA8
:100D0800F62B13D0F6BFC5D7F65104E1040EF55DF6
:100D1800D8A0BFD7CCBFBDD7CC5104E10C0ECB5D5A
:100D2800D8A0B7D7F507D8A0F607CB07D8A0CC0727
:100D3800CBC073F0CCC074F0F5C075F0F6C076F097
:100D480056EC10F00001D2BF81D0D25104E1020E5E
:100D5800D15DD8A07BD0C7C073F0C8C074F0F3C011
:100D680075F0F4C076F0D4EC0FF00001C551C6114F
:100D7800D8A41AD0F4BF06D0F4510FE16C0EF35D7D
:100D8800D8B00BD0C8BF06D0C85107E13C0EC75D2C
:100D9800D8B003D0F34BF42B1ED0E7EC17F0030EBA
:100DA8002214C56FC66B48D0C505C611D8A416D085
:100DB800F4BFF3D7F45104E1040EF35DD8A0EDD7E6
:100DC800C8BF06D0C851E9E13C0EC75DD8B0E5D729
:100DD800F307D8A0F407C74BC82B2ED0020EC519AD
:100DE800C611D8A413D0F4BF06D0F451D6E16C0EC6
:100DF800F35DD8B0D2D7C8BFD0D7C85104E10C0E24
:100E0800C75DD8A0CAD7F34BF42B13D0F4BFC5D70E
:100E1800F45104E1040EF35DD8A0BFD7C8BFBDD715
:100E2800C85104E10C0EC75DD8A0B7D7F307D8A006
:100E3800F407C707D8A0C807C7C073F0C8C074F0C4
:100E4800F3C075F0F4C076F056EC10F00001D2BF94
:100E580081D0D25104E1030ED15DD8A07BD0C3C0AC
:100E680073F0C4C074F0F1C075F0F2C076F0D4EC41
:100E78000FF00001C151C211D8A41AD0F2BF06D098
:100E8800F2510FE16C0EF15DD8B00BD0C4BF06D0A3
:100E9800C45107E13C0EC35DD8B003D0F14BF22B2F
:100EA8001ED0E7EC17F0030E2214C16FC26B48D0B6
:100EB800C105C211D8A416D0F2BFF3D7F25104E18C
:100EC800040EF15DD8A0EDD7C4BF06D0C451E9E146
:100ED8003C0EC35DD8B0E5D7F107D8A0F207C34BE5
:100EE800C42B2ED0020EC119C211D8A413D0F2BF40
:100EF80006D0F251D6E16C0EF15DD8B0D2D7C4BF9E
:100F0800D0D7C45104E10C0EC35DD8A0CAD7F14BA9
:100F1800F22B13D0F2BFC5D7F25104E1040EF15DF4
:100F2800D8A0BFD7C4BFBDD7C45104E10C0EC35D60
:100F3800D8A0B7D7F107D8A0F207C307D8A0C4072D
:100F4800C3C073F0C4C074F0F1C075F0F2C076F09D
:100F580056EC10F027500001B51904E12850B619D5
:100F6800D8B459D19D9C1F0E696F800E6A6F3B0ED5
:100F78006B6F27C063F028C064F03FEC19F063C0C2
:100F880066F064C067F065C068F0D8EC10F066C021
:100F980075F067C076F068C077F0BDEC12F075C0E8
:100FA800D1F076C0D2F0000E696FD80E6A6F400E8D
:100FB8006B6FD1C063F0D2C064F03FEC19F063C02E
:100FC80066F064C067F065C068F0D8EC10F066C0E1
:100FD80075F067C076F068C077F0BDEC12F075C0A8
:100FE800ADF076C0AEF0CF51D11904E1D051D2198D
:100FF800D8B408D1D1C0CFF0D2C0D0F0D151D211DD
:10100800D8A454D07F0EF119F211D8A404D0C3513A
:10101800C411D8B413D0C3C073F0C4C074F0F1C005
:1010280075F0F2C076F0D4EC0FF0000E0001F26F0C
:101038007F0EF16F000EC46F000EC36F7F0EF319A1
:10104800F411D8A404D0C751C811D8B413D0C7C05C
:1010580073F0C8C074F0F3C075F0F4C076F0D4EC47
:101068000FF0000E0001F46F7F0EF36F000EC86FD3
:10107800000EC76F7F0EF519F611D8A404D0CB5116
:10108800CC11D8B4BFD0CBC073F0CCC074F0F5C0CD
:1010980075F0F6C076F0D4EC0FF0000E0001F66F94
:1010A8007F0EF56F000ECC6F000E4CD0D105D2111B
:1010B800D8A44AD07F0EF119F211D8A404D0C35194
:1010C800C411D8B413D0C3C073F0C4C074F0F1C055
:1010D80075F0F2C076F0D4EC0FF0000E0001F26F5C
:1010E8007F0EF16F000EC46F000EC36F7F0EF319F1
:1010F800F411D8A404D0C751C811D8B413D0C7C0AC
:1011080073F0C8C074F0F3C075F0F4C076F0D4EC96
:101118000FF0000E0001F46F7F0EF36F000EC86F22
:10112800000EC76F7F0EF519F611D8A46BD0CB51FE
:10113800CC11D8A467D0000EF66F140EF56F000E10
:10114800CC6F140ECB6F5ED0020ED119D211D8A479
:1011580037D07F0EF119F211D8A404D0C351C411AD
:10116800D8B413D0C3C073F0C4C074F0F1C075F024
:10117800F2C076F0D4EC0FF0000E0001F26F7F0E93
:10118800F16F000EC46F000EC36F7F0EF319F411D8
:10119800D8A40CD0C751C811D8A408D0000EF46F39
:1011A800280EF36F000EC86F280EC76F7F0EF51953
:1011B800F611D8A427D0CB51CC11D8B4BCD722D0A3
:1011C8007F0EF119F211D8A40CD0C351C411D8A4C0
:1011D80008D0000EF26F3C0EF16F000EC46F140EB3
:1011E800C36F7F0EF319F411D8A4E0D7C751C81103
:1011F800D8A4DCD7000EF46F140EF36F000EC86F7E
:10120800140ED3D7ADC0A9F0AEC0AAF027C0B5F070
:1012180028C0B6F09D8CAB4BAC2BD7C0D5F0D8C04E
:10122800D6F010EF02F07C6F25042610D8A432D037
:101238003DC073F03EC074F03FC075F040C076F01A
:10124800CBEC11F0550E00017C19D8A403D03D4A0F
:101258003E2A16D0440E7C19D8A404D03D06D8A046
:101268003E060ED04C0E7C19D8A404D03F06D8A058
:10127800400606D0520E7C19D8A402D03F4A402A14
:101288003DC073F03EC074F03FC075F040C076F0CA
:1012980044EC12F000017C517719D8B498D37AC085
:1012A80068F07851FD0FCCEC16F07AC068F00001B8
:1012B8007851030FCCEC16F000017A51030F686FD8
:1012C8007851CCEC16F000017A51FD0F686F785117
:1012D800CCEC16F000017A05686F7851FD0FCCEC64
:1012E80016F000017A05686F7851030FCCEC16F000
:1012F80000017A51030F686F7805CCEC16F00001F5
:101308007A51FD0F686F7805CCEC16F000017A2948
:10131800686F7851FD0FCCEC16F000017A29686FE0
:101328007851030FCCEC16F000017A51030F686F67
:101338007829CCEC16F000017A51FD0F686F7829F6
:10134800CCEC16F0550E00017C19D8A4CDD07AC08B
:1013580068F0785199EC16F07AC068F000017805C9
:1013680099EC16F07AC068F000017851FE0F99ECFC
:1013780016F07AC068F000017851FD0F99EC16F06C
:101388007AC068F00001782999EC16F07AC068F004
:1013980000017851020F99EC16F07AC068F000014C
:1013A8007851030F99EC16F07AC068F00001785173
:1013B800FC0FCCEC16F000017A05686F785199ECB7
:1013C80016F000017A05686F7851FE0F99EC16F057
:1013D80000017A05686F780599EC16F000017A0526
:1013E800686F782999EC16F000017A05686F7851D2
:1013F800020F99EC16F000017A05686F7851FD0F1D
:10140800CCEC16F000017A29686F785199EC16F047
:1014180000017A29686F7851FE0F99EC16F00001E7
:101428007A29686F780599EC16F000017A29686FB7
:10143800782999EC16F000017A29686F7851020F23
:1014480099EC16F000017A29686F7851FD0FCCEC01
:1014580016F000017A51020F686F782999EC16F09E
:1014680000017A51020F686F785199EC16F000016B
:101478007A51020F686F780599EC16F000017A51DD
:10148800020F686F7851FE0F99EC16F000017A513F
:10149800020F686F7851FD0FCCEC16F000017A51FD
:1014A800FE0F686F782999EC16F000017A51FE0F4B
:1014B800686F785199EC16F000017A51FE0F686F49
:1014C800780599EC16F000017A51FE0F686F785193
:1014D800FE0F99EC16F000017A51FE0F686F7851F3
:1014E800FD0FCCEC16F01200440E7C19D8A4CDD018
:1014F8007AC068F0785199EC16F07AC068F000016B
:10150800780599EC16F07AC068F000017851FE0F62
:1015180099EC16F07AC068F000017851FD0F99EC4B
:1015280016F07AC068F00001782999EC16F07AC0B4
:1015380068F000017851020F99EC16F07AC068F053
:1015480000017851030F99EC16F07AC068F0000199
:101558007851040FCCEC16F000017A05686F7851C9
:1015680099EC16F000017A05686F7851FE0F99EC36
:1015780016F000017A05686F780599EC16F00001FD
:101588007A05686F782999EC16F000017A05686F7A
:101598007851020F99EC16F000017A05686F7851BE
:1015A800030FCCEC16F000017A29686F785199EC9A
:1015B80016F000017A29686F7851FE0F99EC16F041
:1015C80000017A29686F780599EC16F000017A29EC
:1015D800686F782999EC16F000017A29686F7851BC
:1015E800020F99EC16F000017A29686F7851030F01
:1015F800CCEC16F000017A51020F686F782999EC4B
:1016080016F000017A51020F686F785199EC16F0C4
:1016180000017A51020F686F780599EC16F0000105
:101628007A51020F686F7851020F99EC16F0000199
:101638007A51020F686F7851030FCCEC16F0000155
:101648007A51FE0F686F782999EC16F000017A51EB
:10165800FE0F686F785199EC16F000017A51FE0F71
:10166800686F780599EC16F000017A51FE0F686FE3
:101678007851020F99EC16F000017A51FE0F686F4D
:101688007851030FCCEC16F01200520E7C19D8A436
:10169800CDD07AC068F0785199EC16F000017A053F
:1016A800686F785199EC16F000017A51FE0F686F57
:1016B800785199EC16F000017A51FD0F686F785156
:1016C80099EC16F000017A51FC0F686F7851CCEC58
:1016D80016F000017A29686F785199EC16F000012C
:1016E8007A51020F686F785199EC16F000017A511F
:1016F800030F686F785199EC16F000017A51020FC8
:10170800686F782999EC16F000017A51020F686F1A
:10171800780599EC16F07AC068F00001780599EC24
:1017280016F000017A29686F780599EC16F0000127
:101738007A05686F780599EC16F000017A51FE0F6A
:10174800686F780599EC16F000017A51FD0F686F03
:101758007805CCEC16F07AC068F00001782999EC8D
:1017680016F000017A29686F782999EC16F00001C3
:101778007A05686F782999EC16F000017A51FE0F06
:10178800686F782999EC16F000017A51FD0F686F9F
:101798007829CCEC16F07AC068F000017851020F75
:1017A80099EC16F000017A29686F7851020F99ECCC
:1017B80016F000017A05686F7851020F99EC16F05F
:1017C80000017A51FE0F686F7851020F99EC16F0FC
:1017D80000017A51FD0F686F7851020FCCEC16F0BA
:1017E8007AC068F000017851FE0F99EC16F00001FC
:1017F8007A29686F7851FE0F99EC16F000017A0586
:10180800686F7851FE0F99EC16F000017A51FE0FBF
:10181800686F7851FE0F99EC16F000017A51FD0FB0
:10182800686F7851FE0FCCEC16F012004C0E7C1944
:10183800D8A412007AC068F0785199EC16F000012B
:101848007A05686F785199EC16F000017A51FE0F0D
:10185800686F785199EC16F000017A51FD0F686FA6
:10186800785199EC16F000017A51040F686F78519D
:10187800CCEC16F000017A29686F785199EC16F0D3
:1018880000017A51020F686F785199EC16F0000147
:101898007A51030F686F785199EC16F000017A516C
:1018A800FE0F686F782999EC16F000017A51FE0F47
:1018B800686F780599EC16F07AC068F00001780531
:1018C80099EC16F000017A29686F780599EC16F002
:1018D80000017A05686F780599EC16F000017A51D5
:1018E800020F686F780599EC16F000017A51030F22
:1018F800686F7805CCEC16F07AC068F0000178299A
:1019080099EC16F000017A29686F782999EC16F09D
:1019180000017A05686F782999EC16F000017A5170
:10192800020F686F782999EC16F000017A51030FBD
:10193800686F7829CCEC16F07AC068F0000178510D
:10194800020F99EC16F000017A29686F7851020F9E
:1019580099EC16F000017A05686F7851020F99EC3E
:1019680016F000017A51020F686F7851020F99EC56
:1019780016F000017A51030F686F7851020FCCEC12
:1019880016F07AC068F000017851FE0F99EC16F055
:1019980000017A29686F7851FE0F99EC16F0000162
:1019A8007A05686F7851FE0F99EC16F000017A51AC
:1019B800020F686F7851FE0F99EC16F000017A510A
:1019C800030F686F7851FE0FCCEC16F01200550E1D
:1019D8007C19D8A448D07AC068F07851030F99ECE4
:1019E80016F07AC068F000017851FC0FCCEC16F0C4
:1019F80000017A05686F7851020F99EC16F0000122
:101A08007A05686F7851FD0FCCEC16F000017A2941
:101A1800686F7851020F99EC16F000017A29686F07
:101A28007851FD0FCCEC16F000017A51020F686F67
:101A3800782999EC16F000017A51020F686F7851F5
:101A4800FD0FCCEC16F000017A51FE0F686F782973
:101A580099EC16F000017A51FE0F686F7851FD0F6E
:101A6800CCEC16F01200440E7C19D8A448D07AC0E9
:101A780068F07851FD0F99EC16F07AC068F0000113
:101A88007851040FCCEC16F000017A05686F785194
:101A9800FE0F99EC16F000017A05686F7851030F74
:101AA800CCEC16F000017A29686F7851FE0F99EC9A
:101AB80016F000017A29686F7851030FCCEC16F004
:101AC80000017A51020F686F780599EC16F0000151
:101AD8007A51020F686F7851030FCCEC16F00001B1
:101AE8007A51FE0F686F780599EC16F000017A516B
:101AF800FE0F686F7851030FCCEC16F01200520EEF
:101B08007C19D8A448D07A51FC0F686F7851CCEC76
:101B180016F000017A51030F686F785199EC16F0AE
:101B280000017A51020F686F782999EC16F00001CC
:101B38007A51020F686F780599EC16F000017A5116
:101B4800FD0F686F7805CCEC16F000017A51FD0F97
:101B5800686F7829CCEC16F000017A29686F785103
:101B6800020F99EC16F000017A51FD0F686F785159
:101B7800020FCCEC16F000017A29686F7851FE0F3D
:101B880099EC16F000017A51FD0F686F7851FE0F3D
:101B9800CCEC16F012004C0E7C19D8A412007A5125
:101BA800FD0F686F785199EC16F000017A51040F17
:101BB800686F7851CCEC16F000017A51FE0F686F0F
:101BC800782999EC16F000017A51FE0F686F7805B4
:101BD80099EC16F000017A51030F686F7805CCEC88
:101BE80016F000017A51030F686F7829CCEC16F0D3
:101BF80000017A05686F7851020F99EC16F0000120
:101C08007A51030F686F7851020FCCEC16F000017F
:101C18007A05686F7851FE0F99EC16F000017A5139
:101C2800030F686F7851FE0FCCEC16F01200680EA7
:101C38006B6F82D0250E7019D8B407D06551D96E54
:101C4800DA6A70C0DFFF652B77D0000E6C6F66C054
:101C5800F6FF67C0F7FF664B672B0800F5CF70F0FB
:101C68007051000AD8B474D0640AD8B403D00D0AED
:101C7800D8A462D06B51D96EDA6ADECF6EF0DDCFB0
:101C88006FF0020E6B276FAF06D0030E6C136E6DEC
:101C98006F1FD8B06F2B010E706F7051020D9B0E25
:101CA800F324F66E7F0EF420F76E0900F5506E5D92
:101CB8000900F5506F59D8A005D0702B050E701982
:101CC800D8A4EBD76CC06AF0030E6A17D8B406D054
:101CD8006551D96EDA6A2D0EDF6E652B70C06DF016
:101CE80027D06D51020D9B0EF324F66E7F0EF42063
:101CF800F76E0900F5CF20F00A00F5CF21F06EC08D
:101D08001EF06FC01FF011EC18F01EC060F01FC06D
:101D180061F0000E636F0A0E626F63EC18F0605199
:101D2800300F706F6551D96EDA6A70C0DFFF652BAE
:101D38006D076D29D8A4D5D766C0F6FF67C0F7FF31
:101D4800664B672B0800F5CF70F07051D8A472D796
:101D58006551D96EDA6A000EDF6E12009D98355013
:101D680033184DE136503418D8A449D022C01EF09B
:101D780023C01FF084EC18F01EC062F01FC063F08F
:101D8800000E0001676F000E666F20D06651222496
:101D9800606F67512320616F60C0F6FF61C0F7FF75
:101DA800F86AF70E6625D96E000E6721DA6E050E01
:101DB800F76403D00800F55005D0F6CFE9FFF7CF58
:101DC800EAFFEF50DF6E0001664B672B6251665DDC
:101DD8006751800A606F6351800A6059D8A0D6D7CE
:101DE800000E366E000E356E22C01EF023C01FF0A6
:101DF80084EC18F01EC033F01FC034F040D022C06D
:101E08001EF023C01FF084EC18F033501E2400018C
:101E1800646F34501F20656F33C068F034C069F0B8
:101E280020D068512224606F69512320616F60C0FF
:101E3800F6FF61C0F7FFF86AF70E6825D96E000E45
:101E48006921DA6E050EF76403D00800F55005D055
:101E5800F6CFE9FFF7CFEAFFEF50DF6E0001684BDE
:101E6800692B6451685D6951800A606F6551800A09
:101E78006059D8A0D6D764C033F065C034F09D88C7
:101E880012009D98355033184BE136503418D8A4B9
:101E980047D005C001F006C002F0A5EC18F001C05B
:101EA80009F002C00AF0000E0E6E000E0D6E1FD073
:101EB8000D500524076E0E500620086E07C0F6FF69
:101EC80008C0F7FFF86AF70E0D24D96E000E0E2031
:101ED800DA6E050EF76403D00800F55005D0F6CF8A
:101EE800E9FFF7CFEAFFEF50DF6E0D4A0E2A0950DF
:101EF8000D5C0E50800A076E0A50800A0758D8A059
:101F0800D7D7000E366E000E356E05C001F006C03C
:101F180002F0A5EC18F001C033F002C034F03ED056
:101F280005C001F006C002F0A5EC18F033500124FA
:101F38000B6E345002200C6E33C00FF034C010F01A
:101F48001FD00F500524076E10500620086E07C0DA
:101F5800F6FF08C0F7FFF86AF70E0F24D96E000ED7
:101F68001020DA6E050EF76403D00800F55005D08E
:101F7800F6CFE9FFF7CFEAFFEF50DF6E0F4A102ADE
:101F88000B500F5C1050800A076E0C50800A0758DF
:101F9800D8A0D7D70BC033F00CC034F09D881200FE
:101FA80075C068F07351CCEC16F075C068F000018C
:101FB8007305CCEC16F000017505686F7351FE0FC0
:101FC800CCEC16F000017505686F7351FD0FCCEC71
:101FD80016F000017505686F7329CCEC16F0000146
:101FE8007505686F7351020FCCEC16F0000175513E
:101FF800FE0F686F7351FC0FCCEC16F000017551A1
:10200800FE0F686F7351FD0FCCEC16F0000175518F
:10201800FE0F686F7351030FCCEC16F00001755179
:10202800FE0F686F7351020FCCEC16F00001752992
:10203800686F7351FE0FCCEC16F000017529686FBC
:102048007351FD0FCCEC16F000017529686F7329E8
:10205800CCEC16F000017529686F7351020FCCECB7
:1020680016F000017551020F686F7351FC0FCCEC2C
:1020780016F000017551020F686F7351FD0FCCEC1B
:1020880016F000017551020F686F7351030FCCEC05
:1020980016F000017551020F686F7351020FCCECF6
:1020A80016F0120075C068F0735199EC16F075C0FF
:1020B80068F00001730599EC16F000017505686F6A
:1020C8007351FE0F99EC16F000017505686F735196
:1020D800FD0F99EC16F000017505686F732999ECEE
:1020E80016F000017505686F7351020F99EC16F030
:1020F80000017551FE0F686F7351FC0F99EC16F0D3
:1021080000017551FE0F686F7351FD0F99EC16F0C1
:1021180000017551FE0F686F7351030F99EC16F0AB
:1021280000017551FE0F686F7351020F99EC16F09C
:1021380000017529686F7351FE0F99EC16F00001C4
:102148007529686F7351FD0F99EC16F00001752918
:10215800686F732999EC16F000017529686F73513F
:10216800020F99EC16F000017551020F686F735158
:10217800FC0F99EC16F000017551020F686F73514E
:10218800FD0F99EC16F000017551020F686F73513D
:10219800030F99EC16F000017551020F686F735127
:1021A800020F99EC16F0120068C06CF06D6B6E6B44
:1021B80067356C3701E36D816C516F6F6F51D8A42F
:1021C80007D0000E666F000E676F000E686F120072
:1021D8006BC06CF06D6B6E6B6A356C3701E36D81AB
:1021E8006C51746F7451D8A407D0000E666F000E3E
:1021F800676F000E686F120074517B0F6F2768C0FD
:1022080074F06B51741B800E7417678F6A8FFF0E02
:102218006917FF0E6A17000E6B17000E706F000E1D
:10222800716F000E726F070E736F66A106D0695149
:1022380070276A5171236B517223D89068336733C2
:102248006633D89069376A376B37732FEED7090E24
:10225800736F66A106D0695170276A5171236B515B
:102268007223D890683367336633D89072337133EA
:102278007033732FEED770C01EF071C01FF072C09C
:1022880020F06FC021F074C022F042EC14F01EC0A0
:1022980066F01FC067F020C068F01200A16F00014F
:1022A8007DAF19D07BC06EF02D0E6F6F7EC070F0C1
:1022B8007FC071F0A15199EC14F07B2B7CC068F0C1
:1022C8007DC069F0FF0E6B6F6A69F2EC19F068C0A7
:1022D8007CF069C07DF0000EA36F000EA26F7C51E8
:1022E8007D11D8A426D0300E816FA24BA32B21D00C
:1022F800A251810FD96EDA6A7CC068F07DC069F09E
:10230800000E6B6F0A0E6A6F2CEC16F06851300FD6
:10231800DF6EA24BA32B7CC01EF07DC01FF0000E09
:10232800216E0A0E206E34EC15F01EC07CF01FC022
:102338007DF07DBF24D07D51DBE17C05D8A01FD086
:10234800D7D7A207D8A0A307A251810FD96EDA6AFE
:10235800DF50806F80517C6F7D6B7BC06EF07CC0DE
:102368006FF07EC070F07FC071F0A15199EC14F04D
:102378007B2B7F0E7B6503D0A12B000E7B6FA3BF49
:102388001200A351DEE1A205D8A01200DAD700019D
:102398007551020F686F7351CCEC16F0000175513E
:1023A800020F686F7329CCEC16F075C068F0000155
:1023B8007351020FCCEC16F000017529686F735148
:1023C800020FCCEC16F000017551020F686F7351C3
:1023D800020FCCEC16F000017551030F686F7351B2
:1023E800020FCCEC16F000017551040F686F7351A1
:1023F800020FCCEC16F075C068F000017351030FA2
:10240800CCEC16F000017551040F686F7351030F7F
:10241800CCEC16F075C068F000017351040FCCECD9
:1024280016F000017551040F686F7351040FCCEC5E
:1024380016F075C068F000017351050FCCEC16F06A
:1024480000017551040F686F7351050FCCEC16F03D
:1024580000017529686F7351060FCCEC16F0000166
:102468007551020F686F7351060FCCEC16F000011E
:102478007551030F686F7351060FCCEC16F01200FC
:1024880000017551020F686F735199EC16F0000145
:102498007551020F686F732999EC16F075C068F0D2
:1024A80000017351020F99EC16F000017529686F4D
:1024B8007351020F99EC16F000017551020F686F05
:1024C8007351020F99EC16F000017551030F686FF4
:1024D8007351020F99EC16F000017551040F686FE3
:1024E8007351020F99EC16F075C068F00001735132
:1024F800030F99EC16F000017551040F686F7351C2
:10250800030F99EC16F075C068F000017351040FC1
:1025180099EC16F000017551040F686F7351040FA0
:1025280099EC16F075C068F000017351050F99EC2D
:1025380016F000017551040F686F7351050F99EC7F
:1025480016F000017529686F7351060F99EC16F0A3
:1025580000017551020F686F7351060F99EC16F060
:1025680000017551030F686F7351060F99EC16F04F
:10257800120077C079F07A6B7B6B7635793701E397
:102588007A817951836F8351D8A409D0000E756F71
:10259800000E766F000E776F000E786F1200170E20
:1025A800796F75C07AF076C07BF077C07CF07929B6
:1025B8007D6F04D0D8907C337B337A337D2FFAD764
:1025C80000017A517E6F768FFF0E7517FF0E761712
:1025D800000E771775517F6F7651806F7751816F35
:1025E800826B8E0E835F83AF0DD08351800A8F0F6D
:1025F800D8A0CCD7D8908233813380337F33833FC0
:10260800F9D70DD0170E836507D0C0D7D8907F377C
:1026180080378137823783078351D8A4F7D77E5113
:10262800D8B408D0821F811F801F7F6D000E8023C1
:10263800812382237FC075F080C076F081C077F057
:1026480082C078F0120084BF13D0845103E183055F
:10265800D8A00ED0000E7B6FFC0E7C6F7F0E7D6FB6
:10266800000E7F6F000E7E6F000E62EC17F00DD02B
:10267800000E7B6FFA0E7C6F7F0E7D6F000E7F6FF2
:10268800000E7E6F000E62EC17F084BF14D08451E8
:1026980004E1020E835DD8A00ED0020E7B6FFC0E03
:1026A8007C6F7F0E7D6F000E7F6F000E7E6F000EB9
:1026B80062EC17F00DD0020E7B6FFA0E7C6F7F0E66
:1026C8007D6F000E7F6F000E7E6F000E62EC17F0BC
:1026D80084BF14D0845104E1030E835DD8A00ED0CA
:1026E800040E7B6FFC0E7C6F7F0E7D6F000E7F6F7C
:1026F800000E7E6F000E62EC17F01200040E7B6F66
:10270800FA0E7C6F7F0E7D6F000E7F6F000E7E6F5E
:10271800000E62EC17F012007551735D7451800A57
:10272800776F7651800A7759D8B028D073C078F07F
:1027380074C079F018D0000E7D6F6C0E7C6F7C51E0
:10274800070F686F7851300899EC16F000017C4B40
:102758007D2B7DBFF4D77D5104E1720E7C5DD8A03E
:10276800EED7784B792B7551785D7951800A776F60
:102778007651800A7759D8B01200DDD773C07AF045
:1027880074C07BF019D0000E7F6F6C0E7E6F7E5187
:10279800070F686F7A513008CCEC16F000017E4BB9
:1027A8007F2B7FBFF4D77F5104E1720E7E5DD8A0E6
:1027B800EED77A07D8A07B0775517A5D7B51800ADE
:1027C800776F7651800A7759D8A01200DCD775C088
:1027D80068F0735199EC16F000017551040F686F99
:1027E800735199EC16F075C068F00001732999ECE3
:1027F80016F000017551040F686F732999EC16F0F3
:1028080075C068F000017351020F99EC16F00001D1
:102818007529686F7351020F99EC16F00001755114
:10282800020F686F7351020F99EC16F00001755191
:10283800030F686F7351020F99EC16F00001755180
:10284800040F686F7351020F99EC16F00001752997
:10285800686F7351030F99EC16F000017551020F60
:10286800686F7351030F99EC16F000017551030F4F
:10287800686F7351030F99EC16F012002150D8B409
:1028880005D01E501F102010D8A40CD0000E1E6EAC
:10289800000E1F6E000E206E1200212AD8902032E2
:1028A8001F321E32000E1E14606F000E1F14616F5F
:1028B800FE0E2014626F605161116211D8B40CD001
:1028C800ECD7212A010E1E26000E1F22000E202200
:1028D800D89020321F321E32000E1E14606F000E78
:1028E8001F14616FFF0E2014626F60516111621135
:1028F800D8B406D0E6D72106D8901E361F36203623
:102908001FBE03D0020E2160F6D721A01F9ED890CB
:102918002132215020122250D8A4208E1EC01EF031
:102928001FC01FF020C020F01200746FE00E0001DD
:102938006F25686F696BFF0E6923000E6B6F050EBC
:102948006A6FF2EC19F068C077F069C078F06E51E0
:10295800050DF3CF6EF0000E7A6F000E796F70518F
:102968007111D8A40BD07B0E7725F66E7C0E7821DA
:10297800F76E0800F550756F766B0ED07B0E7725D5
:10298800F66E7C0E7821F76E0800F550726F736B47
:10299800721D756F731D766F6EC023F075C024F0BD
:1029A8007451FFEC16F000016E2B774B782B794BA6
:1029B8007A2B7ABFD4D77A5105E1050E795DD8B064
:1029C8001200CDD71200010E0F01386F000E3A6FBA
:1029D8009268948E948C000E806E9468000E496FF5
:1029E800F90EBB6E000EBE6E0C0EBD6E9E92060EEC
:1029F800BA6E9D82000E946E948E948C100EAF6EFB
:102A0800AB8EAC84B886AC98AC9CAC8AAB9CAB88DB
:102A18009D8A9D8AD08EF28CF28EF28C9D889D883C
:102A2800D59CD59AD588D596D594D592D580000EC3
:102A3800D76E000ED66EF294F29AD58EC280830EAF
:102A4800C216FC0EC116F30EC116C19EC050C70BAC
:102A58000809C06EC050F80B0209C06EC09E120073
:102A6800000E616F21AE06D0206C211ED8B0212A3D
:102A7800010E616F1FAE06D01E6C1F1ED8B01F2A34
:102A8800010E611B000E636F000E626F2050211053
:102A9800D8B41CD0010E606F04D0D89020362136EF
:102AA800602B21AEFAD7D8906237633720501E5C6E
:102AB80021501F58D8A005D020501E5E21501F5A03
:102AC8006281D89021322032602FEDD76151D8B47D
:102AD80004D0626D631FD8B0632B62C01EF063C060
:102AE8001FF01200000E0001766F000E756F755111
:102AF8007F0B236E7B0E7525F66E780E7621F76EAA
:102B08000800F5CF24F075C01EF076C01FF0000E47
:102B1800216E800E206E34EC15F01E50FFEC16F07E
:102B28000001754B762B76BFE2D7040E765DD8A0F0
:102B3800DED70B0E0001746FA40E736F890EE82E9A
:102B4800FED7732FFCD7742FFAD700D0070E0001D9
:102B5800686F000E696F7F0E6A6F000E31EC17F018
:102B68001200770EF66E340EF76E000EF86E00EE59
:102B7800F1F010EE06F00900F5CFEEFFE550E15058
:102B8800FAE16E0EF66E340EF76E000EF86E00EE79
:102B980039F010EE09F00900F5CFEEFFE550E150ED
:102BA800FAE100EEF7F014EE00F0EE6AE550E150BD
:102BB800FCE1E250FAE100EEBDF0340EEE6AE80600
:102BC800FDE100EE25F0140EEE6AE806FDE1429004
:102BD8004292000EF86E00015FEF01F0000E746F74
:102BE800000E736F710E686F7351140F99EC16F025
:102BF8007A0E0001686F7351140F99EC16F00001FA
:102C0800734B742B74BFEED7745104E11E0E735DC1
:102C1800D8A0E8D7000E766F000E756F7551710F4A
:102C2800686F140E99EC16F000017551710F686FFA
:102C3800320E99EC16F00001754B762B76BFEED765
:102C4800765105E10A0E755DD8B01200E7D712007B
:102C5800000E6D6F69AF06D0686D691FD8B0692B1B
:102C6800010E6D6F6BAF04D06A6D6B1FD8B06B2B04
:102C78006A516B11D8B418D0010E6C6F04D0D8907B
:102C88006A376B376C2B6BAFFAD76A51685D6B513B
:102C98006959D8A004D06A51685F6B51695BD890B4
:102CA8006B336A336C2FF1D76D51D8B404D0686D8B
:102CB800691FD8B0692B68C068F069C069F0120054
:102CC800606F400E236005D0000E0001636F010E97
:102CD80004D0000E0001636F020E626F62C064F0E0
:102CE8002450D8B406D0605122EC1AF0235022ECBC
:102CF80019F00001645176EC19F09568000E936E96
:102D080000016405D8B48190020E6419D8B4819288
:102D18008186818400F0818800F083CF61F08198FA
:102D280081808182000161511200706F70C069F06A
:102D38000001D8906933D8906933D89069336951C4
:102D4800716F726B70C069F0070E6917010E6A6FB8
:102D5800000E6B6F692B03D0D8906A376B37692FD9
:102D6800FBD76AC06CF06BC06DF068C065F00001FD
:102D78007151DFEC19F0696F69516E6F6F6B68C044
:102D880023F06C516E11246E7151FFEC16F0120095
:102D9800706F70C069F00001D8906933D8906933BA
:102DA800D89069336951716F726B70C069F0070E02
:102DB8006917010E6A6F000E6B6F692B03D0D890EC
:102DC8006A376B37692FFBD700016A1D6C6F6B1D63
:102DD8006D6F68C065F07151DFEC19F0696F69516A
:102DE8006E6F6F6B68C023F06C516E15246E715155
:102DF800FFEC16F01200646F400E236005D0000E41
:102E08000001666F010E04D0000E0001666F020E0D
:102E1800656F65C067F0645122EC1AF0235022EC0C
:102E280019F00001675176EC19F0000E936E00015D
:102E38006705D8B48190020E6719D8B4819281963B
:102E4800818400F0818800F024C083FF000E956E15
:102E580000F081988180818212006E6F6EC06FF0E1
:102E68000001706B1DD069C071F0726B0AD071C01F
:102E780023F0000E246E6F51FFEC16F00001714B29
:102E8800722B6A516B6F6C6B71516B5D6C51800A60
:102E98006D6F7251800A6D59D8B0E9D76F4B702B9E
:102EA80068516B6F6C6B6F516B5D6C51800A6D6F05
:102EB8007051800A6D59D8A01200D5D7806F000EC6
:102EC8000001826F000E816F15D07B5181256E6FD6
:102ED8007CC0F6FF7DC0F7FF0800F5CF6FF07EC01D
:102EE80070F07FC071F0805199EC14F07C4B7D2B11
:102EF800814B822B7CC0F6FF7DC0F7FF0800F550A0
:102F08000A0AD8B412007CC0F6FF7DC0F7FF08009B
:102F1800F5500009D8B41200D8D7000E1E6E000E66
:102F28001F6E000E206E000E216E60A108D0645145
:102F38001E2665511F226651202267512122D890F2
:102F48006437653766376737D890633362336133E0
:102F580060336051611162116311D8A4E6D71EC0B5
:102F680060F01FC061F020C062F021C063F0120061
:102F7800000E096E000E0A6E000E0B6E000E0C6E2F
:102F880001A008D00550092606500A2207500B2236
:102F980008500C22D8900536063607360836D890E1
:102FA80004320332023201320150021003100410BD
:102FB800D8A4E6D709C001F00AC002F00BC003F09C
:102FC8000CC004F0120039C060F03AC061F03BC098
:102FD80062F03CC063F06D0E0001646F4E0E656FC9
:102FE800C60E666F410E676F91EC17F060C039F03E
:102FF80061C03AF062C03BF063C03CF0390E39263C
:10300800300E3A22000E3B22000E3C22FF0E3B14EB
:10301800226E7F0E3C14236E1200000E246E000EEA
:10302800236E20502110D8B41CD0010E226E04D07B
:10303800D89020362136222A21AEFAD7D8902336C6
:10304800243620501E5C21501F58D8A005D020508F
:103058001E5E21501F5A2380D89021322032222E02
:10306800EDD723C01EF024C01FF0120039C001F0B4
:103078003AC002F03BC003F03CC004F06D0E056E90
:103088004E0E066EC60E076E410E086EBCEC17F0AB
:1030980001C039F002C03AF003C03BF004C03CF074
:1030A800390E3926300E3A22000E3B22000E3C2201
:1030B800FF0E3B140D6E7F0E3C140E6E1200625113
:1030C8006311D8B418D0010E646F04D0D890623759
:1030D8006337642B63AFFAD76251605D63516159FE
:1030E800D8A004D06251605F6351615BD8906333AC
:1030F8006233642FF1D760C060F061C061F01200E4
:103108001EC020F01FC021F002D0204A212A20C072
:10311800F6FF21C0F7FFF86A050EF76403D0080030
:10312800F55005D0F6CFE9FFF7CFEAFFEF500009D9
:10313800D8A4EBD71E50205C1E6E1F5021581F6E5E
:10314800120001C003F002C004F002D0034A042AAE
:1031580003C0F6FF04C0F7FFF86A050EF76403D052
:103168000800F55005D0F6CFE9FFF7CFEAFFEF509A
:103178000009D8A4EBD70150035C016E0250045833
:10318800026E1200000E0001D26F000ED16F000E09
:10319800C06F010EBF6F070E686F000E696F7F0E5C
:1031A8006A6F000E31EC17F0070E7B6FBF0E7C6F55
:1031B8007F0E7D6F000E7F6F000E7E6F030E62EC38
:1031C80017F01200000ED26F000ED16F000EC06F04
:1031D800010EBF6F070E686F000E696F7F0E6A6F72
:1031E800000E31EC17F0070E7B6FD60E7C6F7F0E4A
:1031F8007D6F000E7F6F000E7E6F030E62EC17F07E
:103208001200000E0F01396F000E3B6F000E956E15
:10321800000E936E000E836E000E816E05EC1AF0A0
:10322800070E0001686F000E696F7F0E6A6F000E4F
:1032380031EC17F0000E14EC1AF01200226E400E5A
:1032480022600CD0010E206E225040095BEC19F070
:10325800020E206E400E5BEC19F01200010E206E7B
:103268007F0E5BEC19F0020E206E2250C00F400951
:103278005BEC19F01200000E236E64AF06D0636D8C
:10328800641FD8B0642B010E236E63C01EF064C0A7
:103298001FF0206A8E0E216E23C022F042EC14F03B
:1032A8001EC063F01FC064F020C065F01200216EDC
:1032B800205076EC19F0000E936E2004D8B481905B
:1032C800020E2018D8B481928196819400F08188EA
:1032D80000F021C083FF000E956E00F08198818078
:1032E800818212001F6E9568000E936E1F04D8B479
:1032F8008190020E1F18D8B481928186819400F0C3
:10330800818800F083CF1EF081981EBEF9D7818096
:10331800818212003350351806E134503618D8A48B
:1033280002D0000E12003550016E3650026E354A3A
:10333800362AF70E0124D96E000E0220DA6EDF500D
:1033480012009D98730E0001656FF70E666F7F0E71
:10335800676F71C068F072C069F01BEC0EF0730EF5
:10336800226E236AB2EC0EF01200E7EC17F022C0CE
:1033780068F023C069F0000E6B6F230E6A6F2CECA7
:1033880016F00F0E68256E6F000E69216F6F120020
:10339800E7EC17F022C068F023C069F0000E6B6FED
:1033A800500E6A6F2CEC16F00F0E68256E6F000E2B
:1033B80069216F6F1200676F65C023F0010E246EDC
:1033C8000001675164EC16F065C023F0010E246E0D
:1033D800675164EC16F0666F6651120068516A0313
:1033E800F3CF6CF0F4CF6DF068516B03F3506D2799
:1033F80069516A03F3506D276CC068F06DC069F0BD
:103408001200818A010E206E3F0E5BEC19F0020E4D
:10341800206E3F0E5BEC19F0000E14EC1AF012004F
:10342800226E010E206E2250C0095BEC19F0020ECC
:10343800206E2250C0095BEC19F01200226E010EBA
:10344800206E2250B8095BEC19F0020E206E225053
:10345800B8095BEC19F012006EC039F06FC03AF091
:103468003B6A3C6A120001000000320032002D7FE6
:05347800007F007F0051
:10787A0000000000000000000000000000000000FE
:10788A0000000000C0C03C3CFCE0C000000000005A
:10789A0000000000000000000000000000000000DE
:1078AA00000000FFFF070371F0FFFFFFF0F0710314
:1078BA0007FFFF00000000000000000000000000B9
:1078CA00000000000000000080808080808C8E8E86
:1078DA008E8E7E7E7EFEFEFCF0F0E0000000808050
:1078EA00000000000000000000000000000000008E
:1078FA00000000000000000000000000000000007E
:10790A0000E00E0E01013E3E3F3F3F3E3EF0E000EA
:10791A00000000000000000000000000000000005D
:10792A00000000FFFF1F1C1C1818181818181C1C30
:10793A001FFFFF0000000000000000000000000020
:10794A00000000000000007F7F7FFFFFFFFFFFFFB6
:10795A008383FCFCFCFFFFFF7F7F7F0000FFFFFFAC
:10796A00808080000000000000000000000000008D
:10797A0000000000000000000000000000000000FD
:10798A0000FF00000000FFFFFFFFFFFFFFFFFF00F7
:10799A0000000000000000000000000000000000DD
:1079AA00000000FFFF0E06C6C686061EFEFEFEFE8D
:1079BA00FEFFFF00000000000000000000000000C1
:1079CA0000000000008080000000038383E3E3E3FB
:1079DA006363636363E3E3E3000000E0E09F9F9F68
:1079EA00FFFFFF0000000000000000000000000090
:1079FA00000000000000000000000000000000007D
:107A0A0000FF00000000FFFF809F9F8180FFFF00B2
:107A1A00000000000000000000000000000000005C
:107A2A00000000FFFF6060E1E1E1E0E0E1E1E1E1A7
:107A3A00E1FFFF00000000000000000060E0E0E05D
:107A4A00E0E0E0E0F0FFFFF0E0E01F1F1F1F1F0F64
:107A5A000000000000FFFFFF000080FFFFF7E3E3E4
:107A6A00FFFFFF000000000000000000000000000F
:107A7A00000000000000000000000000000000C03C
:107A8A00E0FF00000000FFFF3701013F3FFFFFC09A
:107A9A00800000000000000000000000000000005C
:107AAA00000000FFFF0000C3C3C3C3C3C3C3C3C3F3
:107ABA00C3FFFF00000000000000000000000000FB
:107ACA000000E0E0E0E0E0E0E0E0E3E3E7FFFFFF02
:107ADA00FFFF3F1F1FE0E0E0FFFFFFFFFFFCFCFC92
:107AEA001F1F1F000000000000000000000000002F
:107AFA000000000000000000000000E0E01E1EE19F
:107B0A00F3FF00000000FFFFFFFFFFFFFFFFFF077B
:107B1A000FFEE0E00000000000000000000000008E
:107B2A00000000FFFF0606FFFFFF0707FFFFFF0732
:107B3A0007FFFF0000000000000000000000000036
:107B4A0000001F1F1F1F1F07070707070707070751
:107B5A00070700000018181807070718180707076B
:107B6A00F8F8F80000000000000000000000000023
:107B7A00000000000000000000FEFF0000FCFCFC0A
:107B8A00FFFF00000000FFFFFFFFFFFFFFFFFF00F6
:107B9A0000FCFCFCFFFF00000000000000000000E9
:107BAA00000000FFFF606061616160606161E1E0A7
:107BBA00E0FFFF0000000000000000001838383F16
:107BCA003F3F3F3F3F3F3F000000000000000000F2
:107BDA000000000000F8F8F80000003838F8F8F85B
:107BEA000000001838180000000000000000000023
:107BFA00000000000000000000011F00001F1F1FFE
:107C0A001F1F000000001F1F1F1F1F1F1F1F19001B
:107C1A00001F1F1F1F1F00000000000000000000BF
:107C2A00000000FFFFF8F8F8F8F8F8F898181800BC
:107C3A00C3FFFF0000000000000000000000000079
:107C4A00000000000000000000000000000000002A
:107C5A0000000000000000003838180707C0C0C044
:107C6A0038383807070600001038380000000000CE
:107C7A0000000000000000005F000000070007008D
:107C8A00147F147F14060F1E0F062313086462362E
:107C9A00495522500005030000001C224100004102
:107CAA00221C00082A1C2A0808083E08080050302E
:107CBA0000000808080808003030000020100804F6
:107CCA00023E5149453E00427F40004261514946C9
:107CDA002141454B311814127F1027454545393C3F
:107CEA004A49493001710905033649494936064965
:107CFA0049291E00363600000056360000000814D6
:107D0A0022410014141400412214080002015109EE
:107D1A0006324979413E7E1111117E7F4949493621
:107D2A003E414141227F4141221C7F494949417FCD
:107D3A00090901013E414151327F0808087F00418B
:107D4A007F41002040413F017F081422417F40408B
:107D5A0040407F0204027F7F0408107F3E41414178
:107D6A003E7F090909063E4151215E7F09192946CC
:107D7A00464949493101017F01013F4040403F1FC7
:107D8A002040201F7F2018207F63140814630304F7
:107D9A00780403615149454300007F4141020408C8
:107DAA00102041417F00000402010204404040408B
:107DBA0040000102040020545454787F4844443857
:107DCA003844444420384444487F385454541808AA
:107DDA007E090102081454543C7F080404780044C4
:107DEA007D40002040443D00007F10284400417F30
:107DFA0040007C041804787C08040478384444441D
:107E0A00387C14141408081414187C7C0804040818
:107E1A004854545420043F4440203C4040207C1C99
:107E2A002040201C3C4030403C44281028440C5040
:107E3A0050503C4464544C44000836410000007FD2
:107E4A000000004136080008082A1C08081C2A08F5
:107E5A00080800AA000800383838003C7CFE7C3C40
:107E6A003C3E7F3E3C3E3E3E3E1C387C7C7C7CC396
:107E7A00661866C33C4447443C386060603800007A
:107E8A0000000000000000000000000000000000E8
:107E9A0000000000000000000000000000000000D8
:107EAA0000000000000000000000000000000000C8
:107EBA0000000000000000000000000000000000B8
:107ECA0000000000000000000000000000000000A8
:107EDA000000000000000000000000000000000098
:107EEA000000000000000000000000000000000088
:107EFA000000000000000000000000000000000078
:107F0A000000000000000000000000000000000067
:107F1A000000000000000000000000000000000057
:107F2A000000000000000000000000000000000047
:107F3A000000000000000000000000000000000037
:107F4A000000000000000000000000000000000027
:107F5A000000000000000000000000000000000017
:107F6A000000000000000000000000000000000007
:107F7A0000000000000000000000000000000000F7
:107F8A0000000000000000000000000000000000E7
:107F9A000001000A006400E803102747616D6520AC
:107FAA006C6F61646564207375636365737366756A
:107FBA006C6C790D00506C617965722077696E730B
:107FCA000030303A30303A30302E300047616D653B
:107FDA00204F7665720052696768740D00446F77A6
:107FEA006E0D004C6566740D0055700D0025640019
:057FFA0020002400003E
:020000040030CA
:0E000000FF021900FFA580FF0FC00FE00F40A8
:00000001FF
