:0400000036EF39F0AE
:10726C00000EF86E0001A2EF3CF0056E010E036EED
:10727C000550B809A3EC39F0020E036E0550B8099D
:10728C00A3EC39F01200056E010E036E0550C00917
:10729C00A3EC39F0020E036E0550C009A3EC39F0D3
:1072AC001200818A010E036E3F0EA3EC39F0020E20
:1072BC00036E3F0EA3EC39F0000E49EC39F01200CE
:1072CC000F6E0DC006F0010E076E0F5095EC3AF0E4
:1072DC000DC006F0010E076E0F5095EC3AF00E6ED5
:1072EC000E50120001500302F3CF05F0F4CF06F05C
:1072FC0001500402F350062602500302F3500626F6
:10730C0005C001F006C002F01200026E9568000E76
:10731C00936E0204D8B48190020E0218D8B48192F4
:10732C008186819400F0818800F083CF01F08198F0
:10733C0001BEF9D7818081821200046E03508BEC60
:10734C0039F0000E936E0304D8B48190020E03182A
:10735C00D8B481928196819400F0818800F004C0A9
:10736C0083FF000E956E00F081988180818212005F
:10737C00056E400E05600CD0010E036E05504009E1
:10738C00A3EC39F0020E036E400EA3EC39F01200A0
:10739C00010E036E7F0EA3EC39F0020E036E055046
:1073AC00C00F4009A3EC39F01200086E400E0660C5
:1073BC0004D0000E0A6E010E03D0000E0A6E020EEF
:1073CC00096E09C00BF008503BEC39F00650BEECCE
:1073DC0039F00B508BEC39F0000E936E0B04D8B4D3
:1073EC008190020E0B18D8B481928196818400F0A2
:1073FC00818800F007C083FF000E956E00F0819825
:10740C008180818212001E6E000E206E000E1F6E97
:10741C0015D019501F240C6E1AC0F6FF1BC0F7FFB5
:10742C000800F5CF0DF01CC00EF01DC00FF01E5063
:10743C00DEEC3BF01A4A1B2A1F4A202A1AC0F6FF20
:10744C001BC0F7FF0800F5500A0AD8B412001AC086
:10745C00F6FF1BC0F7FF0800F5500009D8B4120066
:10746C00D8D7126E12C013F0146A1CD00DC015F0D0
:10747C00166A09D015C006F0FF0E076E1350DBEC30
:10748C0039F0154A162A0E500F6E106A15500F5C03
:10749C001050800A116E1650800A1158D8B0EAD7D5
:1074AC00134A142A0C500F6E106A13500F5C1050B4
:1074BC00800A116E1450800A1158D8A01200D6D729
:1074CC00126E12C013F0146A1CD00DC015F0166A9F
:1074DC0009D015C006F0000E076E1350DBEC39F026
:1074EC00154A162A0E500F6E106A15500F5C10506C
:1074FC00800A116E1650800A1158D8B0EAD7134A78
:10750C00142A0C500F6E106A13500F5C1050800A26
:10751C00116E1450800A1158D8A01200D6D7086EDC
:10752C00400E066004D0000E0A6E010E03D0000E51
:10753C000A6E020E096E09C00CF00750D8B406D0C2
:10754C0008503BEC39F00650BEEC39F00C508BEC8B
:10755C0039F09568000E936E0C04D8B48190020E2D
:10756C000C18D8B481928186818400F0818800F057
:10757C0083CF0BF08198818081820B5012001A6EA0
:10758C001AC011F0D8901132D8901132D890113213
:10759C001150186E196A1AC011F0070E1116010E4F
:1075AC00126E000E136E112A03D0D89012361336B9
:1075BC00112EFBD7121C146E131C156E10C00DF07F
:1075CC00185066EC39F0116E1150166E176A10C017
:1075DC0006F014501614076E1850DBEC39F012003C
:1075EC001A6E1AC011F0D8901132D8901132D8906E
:1075FC0011321150186E196A1AC011F0070E1116BB
:10760C00010E126E000E136E112A03D0D890123692
:10761C001336112EFBD712C014F013C015F010C086
:10762C000DF0185066EC39F0116E1150166E176A89
:10763C0010C006F014501610076E1850DBEC39F021
:10764C001200000E066E02AE06D0016C021ED8B0FF
:10765C00022A010E066E04AE04D0036C041ED8B0D0
:10766C00042A03500410D8B418D0010E056E04D0AF
:10767C00D89003360436052A04AEFAD70350015CC1
:10768C0004500258D8A004D00350015E0450025A92
:10769C00D89004320332052EF1D70650D8B404D05A
:1076AC00016C021ED8B0022A01C001F002C002F027
:1076BC001200090E196EF00E1A6E7F0E1B6E000E64
:1076CC001D6E000E1C6E010E09EC3AF0030E196EC5
:1076DC00DC0E1A6E7F0E1B6E000E1D6E000E1C6EE5
:1076EC00030E09EC3AF0030E196EC70E1A6E7F0EDC
:1076FC001B6E000E1D6E000E1C6E050E09EC3AF092
:10770C00150E226E4B0E216EBE0EE82EFED7212ECC
:10771C00FCD7222EFAD700D0070E0C6E000E0D6E81
:10772C007F0E0E6E000E66EC3AF01200000E066E26
:10773C0004AE06D0036C041ED8B0042A010E066EEB
:10774C0002AE06D0016C021ED8B0022A010E061A37
:10775C00000E086E000E076E03500410D8B41CD037
:10776C00010E056E04D0D89003360436052A04AEFB
:10777C00FAD7D890073608360350015C04500258EB
:10778C00D8A005D00350015E0450025A0780D8904F
:10779C0004320332052EEDD70650D8B404D0076C52
:1077AC00081ED8B0082A07C001F008C002F0120069
:1077BC00126EE00E0D24016E026AFF0E0222000E04
:1077CC00046E050E036E78EC39F001C015F002C0A2
:1077DC0016F00C50050DF3CF0CF0000E186E000EC9
:1077EC00176E0E500F10D8A40BD0D30E1524F66EB6
:1077FC007D0E1620F76E0800F550136E146A0ED02D
:10780C00D30E1524F66E7D0E1620F76E0800F5507B
:10781C00106E116A101C136E111C146E0CC006F045
:10782C0013C007F01250DBEC39F00C2A154A162A5B
:10783C00174A182A18BED5D7185005E1050E175C43
:10784C00D8B01200CED712003F6E1BAE19D019C0A3
:10785C000CF02D0E0D6E1CC00EF01DC00FF03F5025
:10786C00DEEC3BF0192A1AC001F01BC002F0FF0E2F
:10787C00046E036878EC39F001C01AF002C01BF0FA
:10788C00000E416E000E406E1A501B10D8A426D06C
:10789C00300E1F6E404A412A21D040501F0FD96E26
:1078AC00DA6A1AC001F01BC002F0000E046E0A0E58
:1078BC00036E27EC3BF00150300FDF6E404A412A3B
:1078CC001AC001F01BC002F0000E046E0A0E036E0B
:1078DC009CEC3BF001C01AF002C01BF01BBE24D084
:1078EC001B50DBE11A04D8A01FD0D7D74006D8A074
:1078FC00410640501F0FD96EDA6ADF501E6E1E50C3
:10790C001A6E1B6A19C00CF01AC00DF01CC00EF0D8
:10791C001DC00FF03F50DEEC3BF0192A7F0E1964AE
:10792C0003D03F2A000E196E41BE12004150DEE119
:10793C004004D8A01200DAD7000E0F01386F000EE9
:10794C00396F000E3A6F000E3B6F000E956E000EF5
:10795C00936E9268000E836E000E816E000E806E28
:10796C0057EC39F0070E0C6E000E0D6E7F0E0E6E7E
:10797C00000E66EC3AF0000E49EC39F0000E0001F6
:10798C007D6F000E7C6F7CC07AF07DC07BF07AC07E
:10799C0060F07BC061F0000E776F010E766F76C0E1
:1079AC006CF077C06DF06CC06AF06DC06BF06AC0A3
:1079BC0068F06BC069F068C066F069C067F0000ED3
:1079CC00796F0A0E786F000E6F6F000E6E6F6EC0BF
:1079DC0070F06FC071F05FEC3BF0000E0001656F52
:1079EC00010E646F000E636F000E626F7AC010F0B0
:1079FC00000EF6EC3AF07AC072F07BC073F07CC0EB
:107A0C0074F07DC075F080B080B21BD0000168515D
:107A1C006911D8A416D07BBF06D07B5106E17F0E2E
:107A2C007A5DD8B002D07A4B7B2B78C068F079C0E5
:107A3C0069F0030E426E980EE82EFED7422EFCD74C
:107A4C0008D0000168516911D8B403D06807D8A0D8
:107A5C00690780B280B01BD0000166516711D8A4B1
:107A6C0016D07BBF08D07B5103E17A05D8A003D098
:107A7C007A07D8A07B0778C066F079C067F0030E50
:107A8C00426E980EE82EFED7422EFCD708D000018D
:107A9C0066516711D8B403D06607D8A0670780B4C5
:107AAC0080B61BD000016A516B11D8A416D07DBFD3
:107ABC0008D07D5103E17C05D8A003D07C07D8A069
:107ACC007D0778C06AF079C06BF0030E426E980E99
:107ADC00E82EFED7422EFCD708D000016A516B115C
:107AEC00D8B403D06A07D8A06B0780B680B41BD07B
:107AFC0000016C516D11D8A416D07DBF06D07D51FC
:107B0C0006E13F0E7C5DD8B002D07C4B7D2B78C05B
:107B1C006CF079C06DF0030E426E980EE82EFED715
:107B2C00422EFCD708D000016C516D11D8B403D093
:107B3C006C07D8A06D0782A03DD000016251631183
:107B4C00D8A438D06E516F11D8A434D0000E656F04
:107B5C00010E646F000E636F010E626F7051711134
:107B6C00D8A40ED0070E0C6E000E0D6E7F0E0E6E8E
:107B7C00000E37EC3AF0000E0001716F010E0DD0C3
:107B8C00070E0C6E000E0D6E7F0E0E6E000E66EC68
:107B9C003AF0000E0001716F000E706F0D0E426E08
:107BAC00FC0EE82EFED7422EFCD778C06EF079C0C2
:107BBC006FF00FD000016E516F11D8B404D06E0766
:107BCC00D8A06F0706D082B004D0000E636F000EF1
:107BDC00626F000170517111D8A479D076C001F098
:107BEC0077C002F0000E046E0A0E036E27EC3BF019
:107BFC0001500210D8A45ED0000172517A190FE125
:107C0C0073517B19D8A40BD074517C1908E17551B0
:107C1C007D19D8A404D064516511D8B44BD076C06A
:107C2C0001F077C002F0000E046E640E036E27ECB8
:107C3C003BF001500210D8A409D0070E0C6E6E0E4A
:107C4C000D6E7F0E0E6E060E66EC3AF0140E196E6B
:107C5C00F80E1A6E7F0E1B6E000E1D6E000E1C6E43
:107C6C00060E09EC3AF0160E196E7AC01AF07BC0AB
:107C7C001BF0000E1D6E000E1C6E060E2AEC3CF066
:107C8C00140E196EFB0E1A6E7F0E1B6E000E1D6EFF
:107C9C00000E1C6E070E09EC3AF0160E196E7CC025
:107CAC001AF07DC01BF0000E1D6E000E1C6E070E30
:107CBC002AEC3CF072C010F000017451C5EC3AF0A3
:107CCC007AC010F000017C51F6EC3AF078D076C016
:107CDC0001F077C002F0000E046E0A0E036E27EC62
:107CEC003BF001500210D8A45ED0000172517A19F9
:107CFC000FE173517B19D8A40BD074517C1908E196
:107D0C0075517D19D8A404D064516511D8B44BD0E9
:107D1C0076C001F077C002F0000E046E640E036EA4
:107D2C0027EC3BF001500210D8A409D0070E0C6EC2
:107D3C006E0E0D6E7F0E0E6E060E37EC3AF0140EB4
:107D4C00196EF80E1A6E7F0E1B6E000E1D6E010E54
:107D5C001C6E060E09EC3AF0160E196E7AC01AF06B
:107D6C007BC01BF0000E1D6E010E1C6E060E2AEC65
:107D7C003CF0140E196EFB0E1A6E7F0E1B6E000E6D
:107D8C001D6E010E1C6E070E09EC3AF0160E196EE4
:107D9C007CC01AF07DC01BF0000E1D6E010E1C6E17
:107DAC00070E2AEC3CF072C010F000017451F6EC96
:107DBC003AF07AC010F000017C51C5EC3AF00001A9
:107DCC00764B772B18D600000000000000005F00F7
:107DDC00000007000700147F147F14242A7F2A1246
:107DEC002313086462364955225000050300000035
:107DFC001C2241000041221C00082A1C2A080808E9
:107E0C003E08080050300000080808080800303010
:107E1C00000020100804023E5149453E00427F40BC
:107E2C000042615149462141454B311814127F10D3
:107E3C0027454545393C4A49493001710905033606
:107E4C0049494936064949291E0036360000005674
:107E5C0036000000081422410014141400412214AE
:107E6C0008000201510906324979413E7E11111177
:107E7C007E7F494949363E414141227F4141221C86
:107E8C007F494949417F090901013E414151327FF6
:107E9C000808087F00417F41002040413F017F08D6
:107EAC001422417F404040407F0204027F7F04083F
:107EBC00107F3E4141413E7F090909063E41512157
:107ECC005E7F09192946464949493101017F010163
:107EDC003F4040403F1F2040201F7F2018207F63E1
:107EEC0014081463030478040361514945430000EA
:107EFC007F4141020408102041417F00000402012F
:107F0C0002044040404040000102040020545454FC
:107F1C00787F484444383844444420384444487FAB
:107F2C003854545418087E090102081454543C7FE8
:107F3C000804047800447D40002040443D00007F4C
:107F4C0010284400417F40007C041804787C08040D
:107F5C00047838444444387C141414080814141855
:107F6C007C7C080404084854545420043F444020AA
:107F7C003C4040207C1C2040201C3C4030403C4479
:107F8C00281028440C5050503C4464544C44000875
:107F9C0036410000007F0000004136080008082A26
:107FAC001C08081C2A08080800AA000800383838E1
:107FBC0000000000000000000000004D69717565B4
:107FCC006C20546F726E65722056696E616C730012
:107FDC004265726E617420426F72726173204369E4
:107FEC0076696C004C3720474C434400783D00794F
:037FFC003D000045
:020000040030CA
:0E000000FF021900FFA580FF0FC00FE00F40A8
:00000001FF
