:040000000EEF00F00F
:1000080048829DB29EA204D00001AC4BAD2B9E92BB
:100018004892110012EF03F0000E0001AD6F000EC0
:10002800AC6F000EAB6F000EAA6F000E636F000E70
:10003800626F62C060F063C061F0E7EC02F0000E2E
:100048000001656FA00E646F000E676FA00E666FEB
:10005800000E696F8E0E686F000E6B6FA00E6A6FD0
:10006800000E6D6FEF0E6C6F000E6F6F7F0E6E6F70
:10007800000E716FA00E706F000E736FA00E726F7E
:10008800000E756F8E0E746F000E776FA00E766F70
:10009800000E796FD50E786F000E7B6FEF0E7A6FBA
:1000A800000E7D6FA00E7C6F000E7F6FA00E7E6F1E
:1000B800000E816FA00E806F000E836FBE0E826FE0
:1000C800000E856FEF0E846F000E876FEF0E866F40
:1000D800000E896F7F0E886F000E8B6F8E0E8A6FF1
:1000E800000E8D6FB30E8C6F000E8F6FB30E8E6F78
:1000F800000E916FBE0E906F000E936FEF0E926F11
:10010800000E956FD50E946F000E976FEF0E966FD9
:100118009FEC03F0070E0C6E000E0D6E7F0E0E6E38
:10012800000E5CEC02F0000EBCEC03F0000E196E41
:10013800FC0E1A6E7F0E1B6E000E1D6E000E1C6EDE
:10014800000E8BEC02F0000E196EFA0E1A6E7F0E7E
:100158001B6E000E1D6E000E1C6E070E8BEC02F05F
:10016800160E196EF80E1A6E7F0E1B6E000E1D6E9F
:10017800000E1C6E070E8BEC02F0070E196EED0ECA
:100188001A6E7F0E1B6E000E1D6E000E1C6E060E84
:100198008BEC02F0ACC001F0ADC002F0010E046EB1
:1001A800F40E036EE2EC01F001C098F002C099F081
:1001B800030E196E98C01AF099C01BF0000E1D6E40
:1001C800000E1C6E000E1EEC01F0120E196EF30EDE
:1001D8001A6E7F0E1B6E000E1D6E000E1C6E000E3A
:1001E8008BEC02F07D0EBE6E000E00019B6F000EC0
:1001F8009A6F9A51020DF350640FD96EDA6ADF5084
:10020800BB6E060E436E520E426EC40EE82EFED72B
:10021800422EFCD7432EFAD700019A4B9B2B9BBF4B
:10022800E8D79B5104E11A0E9A5DD8A0E2D7000ED8
:10023800BE6ED8D73F6E1BAE19D019C00CF02D0E6C
:100248000D6E1CC00EF01DC00FF03F5096EC01F073
:10025800192A1AC001F01BC002F0FF0E046E0368D1
:100268008CEC03F001C01AF002C01BF0000E416EC6
:10027800000E406E1A501B10D8A426D0300E1F6EE8
:10028800404A412A21D040501F0FD96EDA6A1AC05D
:1002980001F01BC002F0000E046E0A0E036E24EC7F
:1002A80002F00150300FDF6E404A412A1AC001F0B7
:1002B8001BC002F0000E046E0A0E036EE2EC01F0A1
:1002C80001C01AF002C01BF01BBE24D01B50DBE19A
:1002D8001A04D8A01FD0D7D74006D8A0410640504E
:1002E8001F0FD96EDA6ADF501E6E1E501A6E1B6A17
:1002F80019C00CF01AC00DF01CC00EF01DC00FF094
:100308003F5096EC01F0192A7F0E196403D03F2A5A
:10031800000E196E41BE12004150DEE14004D8A023
:100328001200DAD7126EE00E0D24016E026AFF0E7B
:100338000222000E046E050E036E8CEC03F001C061
:1003480015F002C016F00C50050DF3CF0CF0000E9E
:10035800186E000E176E0E500F10D8A40BD0F90EA1
:100368001524F66E7D0E1620F76E0800F550136EF4
:10037800146A0ED0F90E1524F66E7D0E1620F76E4F
:100388000800F550106E116A101C136E111C146EC3
:100398000CC006F013C007F01250B9EC02F00C2A9A
:1003A800154A162A174A182A18BED5D7185005E133
:1003B800050E175CD8B01200CED71200000E066EDC
:1003C80004AE06D0036C041ED8B0042A010E066ED3
:1003D80002AE06D0016C021ED8B0022A010E061A1F
:1003E800000E086E000E076E03500410D8B41CD01F
:1003F800010E056E04D0D89003360436052A04AEE3
:10040800FAD7D890073608360350015C04500258D2
:10041800D8A005D00350015E0450025A0780D89036
:1004280004320332052EEDD70650D8B404D0076C39
:10043800081ED8B0082A07C001F008C002F0120050
:10044800000E066E02AE06D0016C021ED8B0022A5B
:10045800010E066E04AE04D0036C041ED8B0042A44
:1004680003500410D8B418D0010E056E04D0D890EB
:1004780003360436052A04AEFAD70350015C04504B
:100488000258D8A004D00350015E0450025AD890F4
:1004980004320332052EF1D70650D8B404D0016CCB
:1004A800021ED8B0022A01C001F002C002F01200F8
:1004B800126E12C013F0146A1CD00DC015F0166A23
:1004C80009D015C006F0000E076E1350B9EC02F003
:1004D800154A162A0E500F6E106A15500F5C1050F0
:1004E800800A116E1650800A1158D8B0EAD7134AFC
:1004F800142A0C500F6E106A13500F5C1050800AAB
:10050800116E1450800A1158D8A01200D6D71E6E4A
:10051800000E206E000E1F6E15D019501F240C6E91
:100528001AC0F6FF1BC0F7FF0800F5CF0DF01CC07E
:100538000EF01DC00FF01E5096EC01F01A4A1B2A4F
:100548001F4A202A1AC0F6FF1BC0F7FF0800F55003
:100558000A0AD8B412001AC0F6FF1BC0F7FF080039
:10056800F5500009D8B41200D8D7086E400E0660BE
:1005780004D0000E0A6E010E03D0000E0A6E020EA1
:10058800096E09C00BF00850AEEC03F006503CECC5
:1005980003F00B5074EC03F0000E936E0B04D8B408
:1005A8008190020E0B18D8B481928196818400F054
:1005B800818800F007C083FF000E956E00F08198D7
:1005C800818081821200000E0F01386F000E3C6F8F
:1005D800000E396F000E3A6F000E3B6F9268000EE6
:1005E800956E000E936E0F0E966E000E836E000EC3
:1005F800816E000E826EF28EF28CF28C9468000E80
:10060800496FF90EBB6E000EBE6E0C0EBD6E9E924B
:10061800060EBA6E9D82000E946E1200940EF66E4F
:10062800070EF76E000EF86E00EE9CF010EE0EF05E
:100638000900F5CFEEFFE550E150FAE1A20EF66EA3
:10064800070EF76E000EF86E0900F5CF46F00900A8
:10065800F5CF47F00001AD6BAC6BAB6BAA6B456A8D
:10066800446A48904892000EF86E000110EF00F0BE
:10067800056E400E05600CD0010E036E0550400952
:1006880059EC03F0020E036E400E59EC03F0120011
:10069800010E036E7F0E59EC03F0020E036E055037
:1006A800C00F400959EC03F01200046E035074ECBB
:1006B80003F0000E936E0304D8B48190020E031861
:1006C800D8B481928196819400F0818800F004C0AA
:1006D80083FF000E956E00F0819881808182120060
:1006E800026E9568000E936E0204D8B48190020ED3
:1006F8000218D8B481928186819400F0818800F034
:1007080083CF01F0819801BEF9D7818081821200E0
:1007180001500302F3CF05F0F4CF06F001500402B4
:10072800F350062602500302F350062605C001F0D6
:1007380006C002F01200818A010E036E3F0E59ECCA
:1007480003F0020E036E3F0E59EC03F0000EBCECF2
:1007580003F01200056E010E036E0550B80959EC3E
:1007680003F0020E036E0550B80959EC03F01200AD
:10077800056E010E036E0550C00959EC03F0020E18
:10078800036E0550C00959EC03F012007F008E007B
:0C079800A000B300BE00D500EF00770009
:107DF80000000000000000005F000000070007000E
:107E0800147F147F14242A7F2A12231308646236ED
:107E1800495522500005030000001C224100004182
:107E2800221C00082A1C2A0808083E0808005030AE
:107E38000000080808080800303000002010080476
:107E4800023E5149453E00427F4000426151494649
:107E58002141454B311814127F1027454545393CBF
:107E68004A494930017109050336494949360649E5
:107E780049291E0036360000005636000000081456
:107E8800224100141414004122140800020151096F
:107E980006324979413E7E1111117E7F49494936A2
:107EA8003E414141227F4141221C7F494949417F4E
:107EB800090901013E414151327F0808087F00410C
:107EC8007F41002040413F017F081422417F40400C
:107ED80040407F0204027F7F0408107F3E414141F9
:107EE8003E7F090909063E4151215E7F091929464D
:107EF800464949493101017F01013F4040403F1F48
:107F08002040201F7F2018207F6314081463030477
:107F1800780403615149454300007F414102040848
:107F2800102041417F00000402010204404040400B
:107F380040000102040020545454787F48444438D7
:107F48003844444420384444487F3854545418082A
:107F58007E090102081454543C7F08040478004444
:107F68007D40002040443D00007F10284400417FB0
:107F780040007C041804787C08040478384444449D
:107F8800387C14141408081414187C7C0804040899
:107F98004854545420043F4440203C4040207C1C1A
:107FA8002040201C3C4030403C44281028440C50C1
:107FB80050503C4464544C44000836410000007F53
:107FC8000000004136080008082A1C08081C2A0876
:107FD800080800AA0008003838380000000000002F
:107FE8000000000000647574793D00536F433D0044
:087FF80031303000743D00003F
:020000040030CA
:0E000000FF021900FFA580FF0FC00FE00F40A8
:00000001FF
