:0400000066EF3EF079
:107CCC00000169EF3EF0000E0F01386F000E396FA6
:107CDC00000E3B6F000E926E9368000E956E000EB8
:107CEC00036E3F0E026E000E056E060E046E000E45
:107CFC00076E5B0E066E000E096E4F0E086E000EC0
:107D0C000B6E660E0A6E000E0D6E6D0E0C6E000E76
:107D1C000F6E7D0E0E6E000E116E070E106E000EA5
:107D2C00136E7F0E126E000E156E6F0E146E0F0E0C
:107D3C00806E02C083FF000E176E000E166E000ED2
:107D4C00196E000E186E000E1B6E000E1A6E000ED1
:107D5C001D6E000E1C6E000E1F6E000E1E6E000EB1
:107D6C00216E000E206E000E236E000E226E000E91
:107D7C00256E000E246E000E276E000E266E81A05E
:107D8C001BD016501710D8A417D0204A212A0A0E3F
:107D9C0020182110D8A404D0000E216E000E206EE5
:107DAC00000E176E010E166E1C0E016E3B0EE82EA9
:107DBC00FED7012EFCD706D081B004D0000E176E72
:107DCC00000E166E81A21BD018501910D8A417D013
:107DDC00224A232A0A0E22182310D8A404D0000EFB
:107DEC00236E000E226E000E196E010E186E1C0E04
:107DFC00016E3B0EE82EFED7012EFCD706D081B2C9
:107E0C0004D0000E196E000E186E81A41BD01A50EF
:107E1C001B10D8A417D0244A252A0A0E2418251082
:107E2C00D8A404D0000E256E000E246E000E1B6E1E
:107E3C00010E1A6E1C0E016E3B0EE82EFED7012EA3
:107E4C00FCD706D081B404D0000E1B6E000E1A6E47
:107E5C0081A61BD01C501D10D8A417D0264A272A47
:107E6C000A0E26182710D8A404D0000E276E000E78
:107E7C00266E000E1D6E010E1C6E1C0E016E3B0E4E
:107E8C00E82EFED7012EFCD706D081B604D0000E0A
:107E9C001D6E000E1C6E81B862D01E501F10D8B41F
:107EAC005ED0D8902034206E2134216ED8902234AC
:107EBC00226E2334236ED8902434246E2534256E00
:107ECC00D8902634266E2734276E21BE0ED0215032
:107EDC0004E10A0E205CD8A008D0F60E2024206EF7
:107EEC00FF0E2120216E224A232A23BE0ED02350BE
:107EFC0004E10A0E225CD8A008D0F60E2224226ED1
:107F0C00FF0E2320236E244A252A25BE0ED0255091
:107F1C0004E10A0E245CD8A008D0F60E2424246EAA
:107F2C00FF0E2520256E264A272A27BE0CD0275067
:107F3C0004E10A0E265CD8A006D0F60E2624266E86
:107F4C00FF0E2720276E000E1F6E000E1E6E1C0EDD
:107F5C00016E3B0EE82EFED7012EFCD706D081A871
:107F6C0004D0000E1F6E010E1E6E010E806E20508E
:107F7C00020DF350020FD96EDA6ADF50836E0E0ECB
:107F8C00016E9D0EE82EFED7012EFCD7020E806EE0
:107F9C002250020DF350020FD96EDA6ADF50836E55
:107FAC000E0E016E9D0EE82EFED7012EFCD7040E90
:107FBC00806E2450020DF350020FD96EDA6ADF5036
:107FCC00836E0E0E016E9D0EE82EFED7012EFCD791
:107FDC00080E806E2650020DF350020FD96EDA6A2D
:107FEC00DF50836E0E0E016E9D0EE82EFED7012E15
:047FFC00FCD7C5D613
:020000040030CA
:0E000000FF021900FFA580FF0FC00FE00F40A8
:00000001FF
