:040000001CEF38F0C9
:10703800000EF86E000115EF3CF0056E010E036EB0
:107048000550C00989EC38F0020E036E0550C009DE
:1070580089EC38F01200056E010E036E0550B80970
:1070680089EC38F0020E036E0550B80989EC38F047
:107078001200818A010E036E3F0E89EC38F0020E71
:10708800036E3F0E89EC38F0000E21EC38F0120048
:107098000F6E0DC006F0010E076E0F5094EC39F01C
:1070A8000DC006F0010E076E0F5094EC39F00E6E0D
:1070B8000E50120001500302F3CF05F0F4CF06F092
:1070C80001500402F350062602500302F35006262C
:1070D80005C001F006C002F01200026E9568000EAD
:1070E800936E0204D8B48190020E0218D8B481922B
:1070F8008186819400F0818800F083CF01F0819827
:1071080001BEF9D7818081821200046E035071ECB0
:1071180038F0000E936E0304D8B48190020E031861
:10712800D8B481928196819400F0818800F004C0DF
:1071380083FF000E956E00F0819881808182120095
:10714800056E400E05600CD0010E036E0550400917
:1071580089EC38F0020E036E400E89EC38F012000C
:10716800010E036E7F0E89EC38F0020E036E055097
:10717800C00F400989EC38F01200000E206E000E96
:107188001F6E1B50050DF304106E1D50080DF350B3
:107198001F24C4EC39F01B28050DF3CF10F01D5047
:1071A800080DF3501F24C4EC39F01F4A202A20BED2
:1071B800E8D7205005E1080E1F5CD8B01200E1D7CF
:1071C8001200000E206E000E1F6E1B50050DF304FA
:1071D800106E1D50080DF3501F24F5EC39F01B28D4
:1071E800050DF3CF10F01D50080DF3501F24F5ECDA
:1071F80039F01F4A202A20BEE8D7205005E1080EA2
:107208001F5CD8B01200E1D71200086E400E06606D
:1072180004D0000E0A6E010E03D0000E0A6E020E94
:10722800096E09C00BF008502FEC38F00650A4EC9A
:1072380038F00B5071EC38F0000E936E0B04D8B494
:107248008190020E0B18D8B481928196818400F047
:10725800818800F007C083FF000E956E00F08198CA
:107268008180818212001E6E000E206E000E1F6E3D
:1072780015D019501F240C6E1AC0F6FF1BC0F7FF5B
:107288000800F5CF0DF01CC00EF01DC00FF01E5009
:1072980026EC3AF01A4A1B2A1F4A202A1AC0F6FF7F
:1072A8001BC0F7FF0800F5500A0AD8B412001AC02C
:1072B800F6FF1BC0F7FF0800F5500009D8B412000C
:1072C800D8D7126E12C013F0146A1CD00DC015F076
:1072D800166A09D015C006F0000E076E135009ECA7
:1072E80039F0154A162A0E500F6E106A15500F5CA9
:1072F8001050800A116E1650800A1158D8B0EAD77B
:10730800134A142A0C500F6E106A13500F5C105059
:10731800800A116E1450800A1158D8A01200D6D7CE
:10732800086E400E066004D0000E0A6E010E03D0EF
:10733800000E0A6E020E096E09C00CF00750D8B490
:1073480006D008502FEC38F00650A4EC38F00C505A
:1073580071EC38F09568000E936E0C04D8B48190E7
:10736800020E0C18D8B481928186818400F081883D
:1073780000F083CF0BF08198818081820B5012003E
:107388001A6E1AC011F0D8901132D8901132D890D4
:1073980011321150186E196A1AC011F0070E111621
:1073A800010E126E000E136E112A03D0D8901236F9
:1073B8001336112EFBD7121C146E131C156E10C039
:1073C8000DF018504CEC38F0116E1150166E176A0B
:1073D80010C006F014501614076E185009EC39F056
:1073E80012001A6E1AC011F0D8901132D8901132CA
:1073F800D89011321150186E196A1AC011F0070E80
:107408001116010E126E000E136E112A03D0D890B9
:1074180012361336112EFBD712C014F013C015F014
:1074280010C00DF018504CEC38F0116E1150166E5B
:10743800176A10C006F014501610076E185009ECA1
:1074480039F01200126EE00E0D24016E026AFF0E72
:107458000222000E046E050E036E5EEC38F001C0C9
:1074680015F002C016F00C50050DF3CF0CF0000E0D
:10747800186E000E176E0E500F10D8A40BD0750E94
:107488001524F66E7D0E1620F76E0800F550136E63
:10749800146A0ED0750E1524F66E7D0E1620F76E42
:1074A8000800F550106E116A101C136E111C146E32
:1074B8000CC006F013C007F0125009EC39F00C2A82
:1074C800154A162A174A182A18BED5D7185005E1A2
:1074D800050E175CD8B01200CED7120003040410B2
:1074E800D8A464D0030E01180210D8A405D0BB0E8E
:1074F800016E7F0E026E1200050E01180210D8A44C
:1075080005D0BD0E016E7F0E026E1200070E011827
:107518000210D8A405D0BF0E016E7F0E026E1200B5
:10752800090E01180210D8A405D0C10E016E7F0EF5
:10753800026E12000B0E01180210D8A405D0C30E5B
:10754800016E7F0E026E12000D0E01180210D8A4F3
:1075580005D0C50E016E7F0E026E12000F0E0118C7
:107568000210D8A405D0C70E016E7F0E026E12005D
:10757800110E01180210D8A405D0C90E016E7F0E95
:10758800026E1200130E01180210D8A405D0CB0EFB
:10759800016E7F0E026E1200150E01180210D8A49B
:1075A80005D07B0E016E7F0E026E1200020E0318CC
:1075B8000410D8A464D0030E01180210D8A405D072
:1075C800EB0E016E7F0E026E1200050E01180210FE
:1075D800D8A405D0F70E016E7F0E026E1200070EBA
:1075E80001180210D8A405D0D50E016E7F0E026EC8
:1075F8001200090E01180210D8A405D0ED0E016E74
:107608007F0E026E12000B0E01180210D8A405D0CE
:10761800F10E016E7F0E026E12000D0E011802109F
:10762800D8A405D0FB0E016E7F0E026E12000F0E5D
:1076380001180210D8A405D0F30E016E7F0E026E59
:107648001200110E01180210D8A405D0DD0E016E2B
:107658007F0E026E1200130E01180210D8A405D076
:10766800E90E016E7F0E026E1200150E011802104F
:10767800D8A405D0A30E016E7F0E026E1200030E71
:1076880003180410D8A464D0030E01180210D8A45B
:1076980005D0CD0E016E7F0E026E1200050E011888
:1076A8000210D8A405D0EF0E016E7F0E026E1200F4
:1076B800070E01180210D8A405D0D30E016E7F0E54
:1076C800026E1200090E01180210D8A405D0D70EB8
:1076D800016E7F0E026E12000B0E01180210D8A464
:1076E80005D0D90E016E7F0E026E12000D0E011824
:1076F8000210D8A405D0DB0E016E7F0E026E1200B8
:107708000F0E01180210D8A405D0DF0E016E7F0EEF
:10771800026E1200110E01180210D8A405D0E10E55
:10772800016E7F0E026E1200130E01180210D8A40B
:1077380005D0E30E016E7F0E026E1200150E0118C1
:107748000210D8A405D08F0E016E7F0E026E1200B3
:10775800040E03180410D8A41200030E0118021016
:10776800D8A405D0FD0E016E7F0E026E1200050E24
:1077780001180210D8A405D0F90E016E7F0E026E12
:107788001200070E01180210D8A405D0D10E016E00
:107798007F0E026E1200090E01180210D8A405D03F
:1077A800F50E016E7F0E026E12000B0E011802100C
:1077B800D8A405D0CF0E016E7F0E026E12000D0EFA
:1077C80001180210D8A405D0E70E016E7F0E026ED4
:1077D80012000F0E01180210D8A405D0E50E016E94
:1077E8007F0E026E1200110E01180210D8A405D0E7
:1077F800B90E016E7F0E026E1200130E01180210F0
:10780800D8A405D0B50E016E7F0E026E1200150EBB
:1078180001180210D8A41200B70E016E7F0E026E76
:107828001200000E0F01386F000E396F000E3A6F0C
:10783800000E3B6F000E956E000E936E9268000E60
:10784800836E000E816E000E806E3DEC38F0070EE0
:107858000C6E000E0D6E7F0E0E6E000E65EC39F08C
:10786800000E21EC38F0030E196E690E1A6E7F0EA9
:107878001B6E000E1D6E000E1C6E010E37EC39F0EB
:10788800030E196E910E1A6E7F0E1B6E000E1D6E82
:10789800000E1C6E020E37EC39F0030E196E7D0EC9
:1078A8001A6E7F0E1B6E000E1D6E000E1C6E030EF0
:1078B80037EC39F0030E196EA50E1A6E7F0E1B6E8B
:1078C800000E1D6E000E1C6E040E37EC39F0150EFE
:1078D800196EB70E1A6E7F0E1B6E000E1D6E010E0E
:1078E8001C6E040E37EC39F0000E336E150E326E36
:1078F800000E356E040E346E000E256E000E246EDA
:10790800000E276E000E266E000E296E000E286EE1
:10791800000E2B6E000E2A6E000E2D6E000E2C6EC1
:10792800000E236E030E226E000E2F6E0B0E2E6EAF
:107938002EC010F02E0EF5EC39F02EC010F0380ED7
:10794800F5EC39F02E4A2F2A2FBEF2D72F5004E13A
:10795800720E2E5CD8A0ECD7000E316E2E0E306E53
:107968000B0E106E3050F5EC39F0710E106E305071
:10797800F5EC39F0304A312A31BEF2D7315004E102
:10798800390E305CD8A0ECD732C01BF033C01CF0E5
:1079980034C01DF035C01EF0E5EC38F080A05FD093
:1079A80024502510D8A45BD0000E256E010E246E3D
:1079B80033BE06D033504AE1150E325CD8B046D0FB
:1079C80032C019F032C001F033C002F034C003F005
:1079D80035C004F072EC3AF001C01AF002C01BF096
:1079E800000E1D6E000E1C6E345037EC39F032C09C
:1079F8001BF033C01CF034C01DF035C01EF0C1ECC4
:107A080038F0020E3226000E332232C019F032C08E
:107A180001F033C002F034C003F035C004F072EC5A
:107A28003AF001C01AF002C01BF0000E1D6E010EE4
:107A38001C6E345037EC39F032C01BF033C01CF0E8
:107A480034C01DF035C01EF0E5EC38F0060E216E8E
:107A5800300EE82EFED7212EFCD700D00AD080B0F9
:107A680008D024502510D8B404D0000E256E000E7E
:107A7800246E80A25FD026502710D8A45BD0000EB9
:107A8800276E010E266E33BE4CD0335004E1040E2F
:107A9800325CD8A046D032C019F032C001F033C0F1
:107AA80002F034C003F035C004F072EC3AF001C0C3
:107AB8001AF002C01BF0000E1D6E000E1C6E345032
:107AC80037EC39F032C01BF033C01CF034C01DF065
:107AD80035C01EF0C1EC38F0FE0E3226FF0E332200
:107AE80032C019F032C001F033C002F034C003F0E4
:107AF80035C004F072EC3AF001C01AF002C01BF075
:107B0800000E1D6E010E1C6E345037EC39F032C079
:107B18001BF033C01CF034C01DF035C01EF0E5EC7E
:107B280038F0060E216E300EE82EFED7212EFCD737
:107B380000D00AD080B208D026502710D8B404D07C
:107B4800000E276E000E266E80A45ED028502910E5
:107B5800D8A45AD0000E296E010E286E35BE4BD01F
:107B6800355004E1020E345CD8A045D032C019F07B
:107B780032C001F033C002F034C003F035C004F065
:107B880072EC3AF001C01AF002C01BF0000E1D6E34
:107B9800000E1C6E345037EC39F032C01BF033C085
:107BA8001CF034C01DF035C01EF0C1EC38F03406AE
:107BB800D8A0350632C019F032C001F033C002F047
:107BC80034C003F035C004F072EC3AF001C01AF08A
:107BD80002C01BF0000E1D6E010E1C6E345037ECF7
:107BE80039F032C01BF033C01CF034C01DF035C072
:107BF8001EF0E5EC38F0060E216E300EE82EFED7AA
:107C0800212EFCD700D00AD080B408D028502910E3
:107C1800D8B404D0000E296E000E286E80A65DD060
:107C28002A502B10D8A459D0000E2B6E010E2A6EA4
:107C380035BE06D0355048E1040E345CD8B044D087
:107C480032C019F032C001F033C002F034C003F082
:107C580035C004F072EC3AF001C01AF002C01BF013
:107C6800000E1D6E000E1C6E345037EC39F032C019
:107C78001BF033C01CF034C01DF035C01EF0C1EC41
:107C880038F0344A352A32C019F032C001F033C016
:107C980002F034C003F035C004F072EC3AF001C0D1
:107CA8001AF002C01BF0000E1D6E010E1C6E34503F
:107CB80037EC39F032C01BF033C01CF034C01DF073
:107CC80035C01EF0E5EC38F0060E216E300EE82EB9
:107CD800FED7212EFCD700D00AD080B608D02A5073
:107CE8002B10D8B404D0000E2B6E000E2A6E80B86C
:107CF80032D02C502D10D8B42ED0000E2D6E000E80
:107D08002C6E23BE06D023501DE1160E225CD8B07F
:107D180019D022C019F032C001F033C002F034C0CB
:107D280003F035C004F072EC3AF001C01AF002C05A
:107D38001BF0000E1D6E000E1C6E060E37EC39F09F
:107D4800224A232A060E216E300EE82EFED7212E57
:107D5800FCD700D023D680A821D62C502D10D8A42B
:107D68001DD6000E2D6E010E2C6E18D600000000D8
:107D7800000000005F00000007000700147F147F68
:107D880014242A7F2A122313086462364955225084
:107D98000005030000001C2241000041221C0008CD
:107DA8002A1C2A0808083E08080050300000080865
:107DB800080808003030000020100804023E51492D
:107DC800453E00427F400042615149462141454BB2
:107DD800311814127F1027454545393C4A49493026
:107DE80001710905033649494936064949291E00E2
:107DF80036360000005636000000081422410014F0
:107E0800141400412214080002015109063249796C
:107E1800413E7E1111117E7F494949363E4141411B
:107E2800227F4141221C7F494949417F09090101BB
:107E38003E414151327F0808087F00417F410020C0
:107E480040413F017F081422417F404040407F026B
:107E580004027F7F0408107F3E4141413E7F0909AB
:107E680009063E4151215E7F09192946464949497B
:107E78003101017F01013F4040403F1F2040201F4A
:107E88007F2018207F6314081463030478040361B7
:107E98005149454300007F414102040810204141F7
:107EA8007F000004020102044040404040000102FB
:107EB800040020545454787F484444383844444497
:107EC80020384444487F3854545418087E09010225
:107ED800081454543C7F0804047800447D40002072
:107EE80040443D00007F10284400417F40007C044E
:107EF8001804787C0804047838444444387C141402
:107F08001408081414187C7C0804040848545454B1
:107F180020043F4440203C4040207C1C2040201C42
:107F28003C4030403C44281028440C5050503C44BD
:107F380064544C44000836410000007F00000041B2
:107F480036080008082A1C08081C2A08080800AA7D
:107F58000008003838380000000000000000000069
:107F68000031203220332034203520362037203885
:107F78002039203000412053204420462047204803
:107F8800204A204B204C20400051205720452052A9
:107F98002054205920552049204F2050005A20585D
:107FA800204320562042204E204D202C202E0020F9
:107FB800002C003100320033003400350036003721
:107FC80000380039004100420043004400450046A3
:107FD800004700480049004A004B004C004D004E45
:107FE800004F0051005200530054005500560057EE
:087FF80000580059005A000076
:020000040030CA
:0E000000FF021900FFA580FF0FC00FE00F40A8
:00000001FF
