:0400000025EF00F0F8
:100008005C829DBC9EAC17D0C4CF5AF05B6AC3CF4C
:1000180058F0596A5AC001F05BC002F0040E036E32
:10002800023402320132032EFBD701C05AF002C05B
:100038005BF09E9CC2829DB29EA201D09E925C9271
:1000480011008CEF06F0BAEC01F0000E4F6E000EB6
:100058004E6E9E9CF28EF28C9D8CC282040E1C6E9B
:100068005AC01DF05BC01EF0000E206E000E1F6E01
:10007800000EB5EC02F05BBE06D05B5012E10A0E32
:100088005A5CD8B00ED0050E1C6EF70E1D6E7F0E92
:100098001E6E000E206E000E1F6E000E74EC05F032
:1000A8002BD05BBE06D05B5012E1640E5A5CD8B010
:1000B8000ED0060E1C6EF80E1D6E7F0E1E6E000E04
:1000C800206E000E1F6E000E74EC05F015D05BBE9E
:1000D80006D0E80E5A5C030E5B58D8B00DD0070E58
:1000E8001C6EF90E1D6E7F0E1E6E000E206E000E29
:1000F8001F6E000E74EC05F0320E136EC80E146EEF
:100108003D0E156E5AC00CF05BC00DF0EDEC05F01D
:100118000CC010F00DC011F00EC012F03BEC02F054
:1001280010C01FF011C020F012C021F02DEC03F018
:100138001FC056F020C057F00B0E1C6E56C01DF0A5
:1001480057C01EF0000E206E000E1F6E060EB5EC96
:1001580002F057BE06D0575012E10A0E565CD8B0CE
:100168000ED00C0E1C6EF80E1D6E7F0E1E6E000E4D
:10017800206E000E1F6E060E74EC05F015D057BEEB
:1001880006D0575011E1640E565CD8B00DD00D0E54
:100198001C6EF90E1D6E7F0E1E6E000E206E000E78
:1001A8001F6E060E74EC05F05A500A0DF3CFBEFF11
:1001B80056C004F057C005F0000E076E050E066E17
:1001C8003CEC06F004C054F005C055F054C004F0EF
:1001D80055C005F0000E076E640E066E39EC04F08B
:1001E80004C046F005C047F0000E1C6E46C01DF066
:1001F80047C01EF0000E206E000E1F6E020EB5ECFA
:1002080002F054C004F055C005F0000E076E640EED
:10021800066E7BEC04F005BE22D0055004E10A0E00
:10022800045CD8A01CD054C004F055C005F0000EE2
:10023800076E640E066E7BEC04F004C04CF005C03B
:100248004DF0020E1C6E4CC01DF04DC01EF0000E8D
:10025800206E000E1F6E020EB5EC02F028D0020EC2
:100268001C6E000E1E6E000E1D6E000E206E000E1F
:100278001F6E020EB5EC02F054C004F055C005F034
:10028800000E076E640E066E7BEC04F004C04CF0A2
:1002980005C04DF0030E1C6E4CC01DF04DC01EF085
:1002A800000E206E000E1F6E020EB5EC02F05650C6
:1002B8004E5C4F50800A456E5750800A4558D8B05A
:1002C80027D04EC048F04FC049F017D0000E516EED
:1002D800000E506E4850070F136E5050780FB3EC55
:1002E80004F0504A512A51BEF5D7515004E1070E87
:1002F800505CD8A0EFD7484A492A5650485C495024
:10030800800A456E5750800A4558D8B02AD0DED7A3
:10031800030E56244A6E000E57204B6E18D0000E5E
:10032800536E000E526E4A50070F136E5250780FDC
:10033800E4EC04F0524A532A53BEF5D7535004E173
:10034800070E525CD8A0EFD74A06D8A04B064E50ED
:100358004A5C4B50800A456E4F50800A4558D8B0C9
:10036800DED756C04EF057C04FF078D6000E0F01BA
:10037800396F000E3B6F000E956E000E936E000EE7
:10038800836E000E816E38699268000E806EC2809E
:10039800830EC216FC0EC116F30EC116C19EC050C4
:1003A800C70B0809C06EC050F80B0209C06EC09E8A
:1003B8009468000E496FF90EBB6E000EBE6E0C0EEF
:1003C800BD6E9E92060EBA6E9D82000E946E61EC12
:1003D80006F0070E0F6E000E106E7F0E116E000EE7
:1003E80045EC05F0000E70EC06F0000E1C6EF20EE7
:1003F8001D6E7F0E1E6E000E206E000E1F6E000E0C
:1004080074EC05F0000E1C6EFD0E1D6E7F0E1E6E48
:10041800000E206E000E1F6E070E74EC05F0000E25
:100428001C6EEC0E1D6E7F0E1E6E000E206E000EF2
:100438001F6E020E74EC05F0160E1C6EFB0E1D6E80
:100448007F0E1E6E000E206E000E1F6E070E74ECDF
:1004580005F0070E1C6EE30E1D6E7F0E1E6E000E5D
:10046800206E000E1F6E060E74EC05F0120012C00E
:1004780016F0176A186A1134163601E317801650F9
:10048800196E1950D8A407D0000E106E000E116E08
:10049800000E126E120015C016F0176A186A14348E
:1004A800163601E3178016501E6E1E50D8A407D0CA
:1004B800000E106E000E116E000E126E12001E500D
:1004C8007B0F192612C01EF015501E1A800E1E161C
:1004D800118E148EFF0E1316FF0E1416000E15162D
:1004E800000E1A6E000E1B6E000E1C6E070E1D6E9F
:1004F80010A006D013501A2614501B2215501C2287
:10050800D890123211321032D8901336143615366C
:100518001D2EEED7090E1D6E10A006D013501A26F8
:1005280014501B2215501C22D8901232113210324E
:10053800D8901C321B321A321D2EEED71AC004F086
:100548001BC005F01CC006F019C007F01EC008F05B
:1005580096EC03F004C010F005C011F006C012F0CC
:100568001200426E1EAE19D01CC00FF02D0E106E78
:100578001FC011F020C012F04250EDEC03F01C2A0D
:100588001DC004F01EC005F0FF0E076E06683CECA7
:1005980006F004C01DF005C01EF0000E446E000EEB
:1005A800436E1D501E10D8A426D0300E226E434A2A
:1005B800442A21D04350220FD96EDA6A1DC004F0B4
:1005C8001EC005F0000E076E0A0E066E7BEC04F0E6
:1005D8000450300FDF6E434A442A1DC004F01EC089
:1005E80005F0000E076E0A0E066E39EC04F004C022
:1005F8001DF005C01EF01EBE24D01E50DBE11D04F8
:10060800D8A01FD0D7D74306D8A044064350220FFE
:10061800D96EDA6ADF50216E21501D6E1E6A1CC029
:100628000FF01DC010F01FC011F020C012F0425092
:10063800EDEC03F01C2A7F0E1C6403D0422A000E46
:100648001C6E44BE12004450DEE14304D8A01200E0
:10065800DAD721C023F0246A256A2034233601E33F
:10066800248023502D6E2D50D8A409D0000E1F6E63
:10067800000E206E000E216E000E226E1200170E64
:10068800236E1FC024F020C025F021C026F02328A7
:10069800276E04D0D890263225322432272EFAD756
:1006A8002450286E208EFF0E1F16FF0E2016000EF7
:1006B80021161F50296E20502A6E21502B6E2C6A4D
:1006C8008E0E2D5E2DAE0DD02D50800A8F0FD8A026
:1006D800CDD7D8902C322B322A3229322D3EF9D759
:1006E8000DD0170E2D6407D0C1D7D89029362A36D9
:1006F8002B362C362D062D50D8A4F7D72850D8B431
:1007080008D02C1E2B1E2A1E296C000E2A222B22F2
:100718002C2229C01FF02AC020F02BC021F02CC0A9
:1007280022F012000750D8B405D004500510061066
:10073800D8A40CD0000E046E000E056E000E066ED6
:100748001200072AD890063205320432000E04142B
:10075800096E000E05140A6EFE0E06140B6E095083
:100768000A100B10D8B40CD0ECD7072A010E0426B7
:10077800000E0522000E0622D890063205320432F9
:10078800000E0414096E000E05140A6EFF0E0614FE
:100798000B6E09500A100B10D8B406D0E6D707061E
:1007A800D89004360536063605BE03D0020E07601B
:1007B800F6D707A0059ED8900732075006120850B2
:1007C800D8A4068E04C004F005C005F006C006F0E3
:1007D8001200156EE00E1024046E056AFF0E052245
:1007E800000E076E050E066E3CEC06F004C018F00D
:1007F80005C019F00F50050DF3CF0FF0000E1B6E5A
:10080800000E1A6E11501210D8A40BD0EF0E182437
:10081800F66E7D0E1920F76E0800F550166E176AF1
:100828000ED0EF0E1824F66E7D0E1920F76E080014
:10083800F550136E146A131C166E141C176E0FC035
:1008480009F016C00AF01550A2EC05F00F2A184A54
:10085800192A1A4A1B2A1BBED5D71B5005E1050EBB
:100868001A5CD8B01200CED71200000E096E07AE7F
:1008780006D0066C071ED8B0072A010E096E05AE11
:1008880006D0046C051ED8B0052A010E091A000E00
:100898000B6E000E0A6E06500710D8B41CD0010E5D
:1008A800086E04D0D89006360736082A07AEFAD75D
:1008B800D8900A360B360650045C07500558D8A065
:1008C80005D00650045E0750055A0A80D8900732B2
:1008D8000632082EEDD70950D8B404D00A6C0B1E86
:1008E800D8B00B2A0AC004F00BC005F01200000EA5
:1008F800096E05AE06D0046C051ED8B0052A010E97
:10090800096E07AE04D0066C071ED8B0072A065039
:100918000710D8B418D0010E086E04D0D890063647
:100928000736082A07AEFAD70650045C0750055860
:10093800D8A004D00650045E0750055AD890073254
:100948000632082EF1D70950D8B404D0046C051E1D
:10095800D8B0052A04C004F005C005F012001D6EC9
:100968001DC014F0D8901432D8901432D890143294
:1009780014501B6E1C6A1DC014F0070E1416010ECD
:10098800156E000E166E142A03D0D890153616363A
:10099800142EFBD715C017F016C018F013C010F0AE
:1009A8001B504FEC06F0146E1450196E1A6A13C0DF
:1009B80009F0175019100A6E1B50A2EC05F012002E
:1009C8001D6E1DC014F0D8901432D8901432D890EF
:1009D800143214501B6E1C6A1DC014F0070E141636
:1009E800010E156E000E166E142A03D0D890153617
:1009F8001636142EFBD7151C176E161C186E13C04E
:100A080010F01B504FEC06F0146E1450196E1A6A51
:100A180013C009F0175019140A6E1B50A2EC05F008
:100A280012000B6E400E096004D0000E0D6E010E10
:100A380003D0000E0D6E020E0C6E0CC00FF00A50A3
:100A4800D8B406D00B507EEC06F00950D0EC05F077
:100A58000F5024EC06F09568000E936E0F04D8B47E
:100A68008190020E0F18D8B481928186818400F09B
:100A7800818800F083CF0EF08198818081820E50AA
:100A88001200156E15C016F0176A1CD010C018F0A9
:100A9800196A09D018C009F0000E0A6E1650A2ECA7
:100AA80005F0184A192A1150126E136A1850125C70
:100AB8001350800A146E1950800A1458D8B0EAD717
:100AC800164A172A0F50126E136A1650125C1350EA
:100AD800800A146E1750800A1458D8A01200D6D76E
:100AE800216E000E236E000E226E15D01C5022249B
:100AF8000F6E1DC0F6FF1EC0F7FF0800F5CF10F0FF
:100B08001FC011F020C012F02150EDEC03F01D4A77
:100B18001E2A224A232A1DC0F6FF1EC0F7FF08001E
:100B2800F5500A0AD8B412001DC0F6FF1EC0F7FF20
:100B38000800F5500009D8B41200D8D70B6E400E43
:100B4800096004D0000E0D6E010E03D0000E0D6E6C
:100B5800020E0C6E0CC00EF00B507EEC06F0095025
:100B6800D0EC05F00E5024EC06F0000E936E0E0447
:100B7800D8B48190020E0E18D8B4819281968184DF
:100B880000F0818800F00AC083FF000E956E00F027
:100B98008198818081821200086E400E08600CD016
:100BA800010E066E0850400909EC06F0020E066EAA
:100BB800400E09EC06F01200010E066E7F0E09ECDD
:100BC80006F0020E066E0850C00F400909EC06F048
:100BD8001200000E0F6E0DAE06D00C6C0D1ED8B0B4
:100BE8000D2A010E0F6E0CC004F00DC005F0066A48
:100BF8008E0E076E0FC008F096EC03F004C00CF0E0
:100C080005C00DF006C00EF01200076E065024EC69
:100C180006F0000E936E0604D8B48190020E0618F2
:100C2800D8B481928196819400F0818800F007C041
:100C380083FF000E956E00F08198818081821200FA
:100C4800056E9568000E936E0504D8B48190020E67
:100C58000518D8B481928186819400F0818800F0CB
:100C680083CF04F0819804BEF9D781808182120075
:100C780004500602F3CF08F0F4CF09F0045007023D
:100C8800F350092605500602F350092608C004F05F
:100C980009C005F01200126E10C009F0010E0A6EAC
:100CA800125015EC05F010C009F0010E0A6E125032
:100CB80015EC05F0116E11501200818A010E066EB6
:100CC8003F0E09EC06F0020E066E3F0E09EC06F028
:100CD800000E70EC06F01200086E010E066E085049
:100CE800C00909EC06F0020E066E0850C00909ECAE
:100CF80006F01200086E010E066E0850B80909ECDD
:100D080006F0020E066E0850B80909EC06F012004B
:100D18005B6A5A6A596A586A5C905C92000EF86E6F
:060D2800000127EF00F0BE
:107DEE0000000000000000005F0000000700070018
:107DFE00147F147F14242A7F2A12231308646236F8
:107E0E00495522500005030000001C22410000418C
:107E1E00221C00082A1C2A0808083E0808005030B8
:107E2E000000080808080800303000002010080480
:107E3E00023E5149453E00427F4000426151494653
:107E4E002141454B311814127F1027454545393CC9
:107E5E004A494930017109050336494949360649EF
:107E6E0049291E0036360000005636000000081460
:107E7E002241001414140041221408000201510979
:107E8E0006324979413E7E1111117E7F49494936AC
:107E9E003E414141227F4141221C7F494949417F58
:107EAE00090901013E414151327F0808087F004116
:107EBE007F41002040413F017F081422417F404016
:107ECE0040407F0204027F7F0408107F3E41414103
:107EDE003E7F090909063E4151215E7F0919294657
:107EEE00464949493101017F01013F4040403F1F52
:107EFE002040201F7F2018207F6314081463030482
:107F0E00780403615149454300007F414102040852
:107F1E00102041417F000004020102044040404015
:107F2E0040000102040020545454787F48444438E1
:107F3E003844444420384444487F38545454180834
:107F4E007E090102081454543C7F0804047800444E
:107F5E007D40002040443D00007F10284400417FBA
:107F6E0040007C041804787C0804047838444444A7
:107F7E00387C14141408081414187C7C08040408A3
:107F8E004854545420043F4440203C4040207C1C24
:107F9E002040201C3C4030403C44281028440C50CB
:107FAE0050503C4464544C44000836410000007F5D
:107FBE000000004136080008082A1C08081C2A0880
:107FCE00080800AA00080038383800000000000039
:107FDE0000000000006164633D2020202500302E4B
:107FEE00303056006164633D002020200031303077
:027FFE00000081
:020000040030CA
:0E000000FF021900FFA580FF0FC00FE00F40A8
:00000001FF
