:0400000012EF00F00B
:100008005682F2BAF2A408D05106D8A052063C0E85
:10001800D76EB00ED66EF294569211006CEF04F0C3
:10002800F6EC03F00E0E486E6C0E476E95EC04F07D
:10003800070E0C6E000E0D6E7F0E0E6E000E6BEC32
:1000480003F0000EB2EC04F00E0E0A6E6C0E096E90
:10005800A8EC02F0000E196ECF0E1A6E7F0E1B6E02
:10006800000E1D6E000E1C6E000E9AEC03F0100EB2
:100078000C6E2E0E0D6E000E0F6E000E0E6E040E20
:100088005CEC02F00D0E0C6E3A0E0D6E000E0F6E4B
:10009800000E0E6E040E5CEC02F00A0E0C6E3A0EA8
:1000A8000D6E000E0F6E000E0E6E040E5CEC02F06C
:1000B8003DEC01F0000E466E000E456E000E446EDB
:1000C800000E436E84A073D045504610D8A46FD05C
:1000D800000E466E010E456E49504A10D8A41AD03B
:1000E800494A4A2A000E0C6E000E0D6E7F0E0E6EE7
:1000F800000E6BEC03F0000E196EF00E1A6E7F0EF8
:100108001B6E000E1D6E000E1C6E000E9AEC03F0A6
:10011800F28A44D049044A10D8A41AD0494A4A2A33
:10012800000E0C6E000E0D6E7F0E0E6E000E6BEC48
:1001380003F0000E196EE20E1A6E7F0E1B6E000E93
:100148001D6E000E1C6E000E9AEC03F0F29A26D07B
:10015800000E4A6E000E496E000E0C6E000E0D6EFB
:100168007F0E0E6E000E6BEC03F0000E196ECF0EB4
:100178001A6E7F0E1B6E000E1D6E000E1C6E000E9A
:100188009AEC03F047C053F048C054F047C009F058
:1001980048C00AF0A8EC02F03DEC01F0060E426EF1
:1001A800710EE82EFED7422EFCD700F00AD084B09C
:1001B80008D045504610D8B404D0000E466E000E44
:1001C800456E52AE23D0000E526E090E516E4F0688
:1001D800D8A050065306D8A0540650AE17D0000E2B
:1001E800506E3B0E4F6E4D06D8A04E064EAE0ED04A
:1001F800000E4E6E3B0E4D6E4CBE08D04C5003E1C7
:100208004B04D8A003D04B06D8A04C0649044A108A
:10021800D8A420D04350511804E144505218D8B4FF
:1002280013D0320E556008D02D0E5518D8A402D020
:100238005C0E09D02D0E07D05C0E5518D8A402D03C
:100248007C0E01D02F0E556E51C043F052C044F0C1
:100258003DEC01F053505410D8A434D751505210EB
:10026800D8A430D7000E4A6E020E496E3DEC01F05C
:1002780029D7110E196E51C01AF052C01BF0000E8A
:100288001D6E000E1C6E040EE4EC01F049044A10C9
:10029800D8A40BD00E0E0C6E55C00DF0000E0F6ECC
:1002A800000E0E6E000E5CEC02F050BE14D05050E2
:1002B80004E10A0E4F5CD8A00ED00E0E196E4FC086
:1002C8001AF050C01BF0000E1D6E000E1C6E040EBE
:1002D800E4EC01F018D00E0E0C6E300E0D6E000E10
:1002E8000F6E000E0E6E040E5CEC02F00F0E196E0F
:1002F8004FC01AF050C01BF0000E1D6E000E1C6E91
:10030800040EE4EC01F04EBE14D04E5004E10A0E87
:100318004D5CD8A00ED00B0E196E4DC01AF04EC011
:100328001BF0000E1D6E000E1C6E040EE4EC01F0B6
:1003380018D00B0E0C6E300E0D6E000E0F6E000EE8
:100348000E6E040E5CEC02F00C0E196E4DC01AF025
:100358004EC01BF0000E1D6E000E1C6E040EE4EC69
:1003680001F04CBE14D04C5004E10A0E4B5CD8A0EE
:100378000ED0080E196E4BC01AF04CC01BF0000EC0
:100388001D6E000E1C6E040EE4EC01F01200080E47
:100398000C6E300E0D6E000E0F6E000E0E6E040EFB
:1003A8005CEC02F0090E196E4BC01AF04CC01BF041
:1003B800000E1D6E000E1C6E040EE4EC01F012001F
:1003C8003F6E1BAE19D019C00CF02D0E0D6E1CC05F
:1003D8000EF01DC00FF03F505CEC02F0192A1AC055
:1003E80001F01BC002F0FF0E046E036882EC04F0FB
:1003F80001C01AF002C01BF0000E416E000E406EE4
:100408001A501B10D8A426D0300E1F6E404A412A1D
:1004180021D040501F0FD96EDA6A1AC001F01BC0F4
:1004280002F0000E046E0A0E036E33EC03F0015066
:10043800300FDF6E404A412A1AC001F01BC002F09B
:10044800000E046E0A0E036EF1EC02F001C01AF001
:1004580002C01BF01BBE24D01B50DBE11A04D8A03D
:100468001FD0D7D74006D8A0410640501F0FD96EDD
:10047800DA6ADF501E6E1E501A6E1B6A19C00CF025
:100488001AC00DF01CC00EF01DC00FF03F505CEC00
:1004980002F0192A7F0E196403D03F2A000E196E44
:1004A80041BE12004150DEE14004D8A01200DAD764
:1004B800126EE00E0D24016E026AFF0E0222000E7B
:1004C800046E050E036E82EC04F001C015F002C044
:1004D80016F00C50050DF3CF0CF0000E186E000E40
:1004E800176E0E500F10D8A40BD0DB0E1524F66E25
:1004F8007D0E1620F76E0800F550136E146A0ED0A4
:10050800DB0E1524F66E7D0E1620F76E0800F550EA
:10051800106E116A101C136E111C146E0CC006F0BC
:1005280013C007F01250C8EC03F00C2A154A162A1B
:10053800174A182A18BED5D7185005E1050E175CBA
:10054800D8B01200CED7120009C053F00AC054F038
:1005580053C001F054C002F00E0E046E100E036E6C
:10056800F1EC02F001C04BF002C04CF053C001F0B6
:1005780054C002F00E0E046E100E036E33EC03F03E
:1005880001C053F002C054F053C001F054C002F04F
:10059800000E046E3C0E036EF1EC02F001C04DF04B
:1005A80002C04EF053C001F054C002F0000E046EB9
:1005B8003C0E036E33EC03F001C053F002C054F05C
:1005C80053C04FF054C050F0000E526E000E516EE2
:1005D80009C053F00AC054F01200000E066E04AEB3
:1005E80006D0036C041ED8B0042A010E066E02AEB3
:1005F80006D0016C021ED8B0022A010E061A000E9F
:10060800086E000E076E03500410D8B41CD0010EFB
:10061800056E04D0D89003360436052A04AEFAD7FE
:10062800D890073608360350015C04500258D8A009
:1006380005D00350015E0450025A0780D890043256
:100648000332052EEDD70650D8B404D0076C081E27
:10065800D8B0082A07C001F008C002F01200000E46
:10066800066E02AE06D0016C021ED8B0022A010E38
:10067800066E04AE04D0036C041ED8B0042A0350DE
:100688000410D8B418D0010E056E04D0D8900336E3
:100698000436052A04AEFAD70350015C0450025808
:1006A800D8A004D00350015E0450025AD8900432F6
:1006B8000332052EF1D70650D8B404D0016C021EBF
:1006C800D8B0022A01C001F002C002F01200126E76
:1006D80012C013F0146A1CD00DC015F0166A09D0A8
:1006E80015C006F0000E076E1350C8EC03F0154A4B
:1006F800162A0E500F6E106A15500F5C1050800AA3
:10070800116E1650800A1158D8B0EAD7134A142A25
:100718000C500F6E106A13500F5C1050800A116E47
:100728001450800A1158D8A01200D6D71E6E000E99
:10073800206E000E1F6E15D019501F240C6E1AC0A3
:10074800F6FF1BC0F7FF0800F5CF0DF01CC00EF038
:100758001DC00FF01E505CEC02F01A4A1B2A1F4AFB
:10076800202A1AC0F6FF1BC0F7FF0800F5500A0A36
:10077800D8B412001AC0F6FF1BC0F7FF0800F550E6
:100788000009D8B41200D8D7086E400E066004D00D
:10079800000E0A6E010E03D0000E0A6E020E096EDC
:1007A80009C00BF00850A4EC04F006501CEC04F04F
:1007B8000B5054EC04F0000E936E0B04D8B48190E7
:1007C800020E0B18D8B481928196818400F081883A
:1007D80000F007C083FF000E956E00F081988180BD
:1007E80081821200000E0F01396F000E3A6F000E61
:1007F8003B6F000E3C6F000E956E000E936E0F0E51
:10080800966E000E836E000E816E000E846EF28E60
:10081800F28CD59CD59AD588D596D594D592D58085
:100828003C0ED76EB00ED66EF294F29AD58E1200A8
:10083800056E400E05600CD0010E036E0550400990
:1008480039EC04F0020E036E400E39EC04F012008D
:10085800010E036E7F0E39EC04F0020E036E055094
:10086800C00F400939EC04F01200046E035054EC38
:1008780004F0000E936E0304D8B48190020E03189E
:10088800D8B481928196819400F0818800F004C0E8
:1008980083FF000E956E00F081988180818212009E
:1008A800026E9568000E936E0204D8B48190020E11
:1008B8000218D8B481928186819400F0818800F072
:1008C80083CF01F0819801BEF9D78180818212001F
:1008D800800EF66E090EF76E000EF86E0900F5CF61
:1008E80055F000EE49F00C0EEE6AE806FDE1569070
:1008F8005692000EF86E000114EF00F0015003024A
:10090800F3CF05F0F4CF06F001500402F3500626A9
:1009180002500302F350062605C001F006C002F09B
:100928001200818A010E036E3F0E39EC04F0020EAC
:10093800036E3F0E39EC04F0000EB2EC04F0120026
:10094800056E010E036E0550B80939EC04F0020E6D
:10095800036E0550B80939EC04F01200056E010E5B
:10096800036E0550C00939EC04F0020E036E055001
:09097800C00939EC04F012002D55
:107DDA0000000000000000005F000000070007002C
:107DEA00147F147F14242A7F2A122313086462360C
:107DFA00495522500005030000001C2241000041A1
:107E0A00221C00082A1C2A0808083E0808005030CC
:107E1A000000080808080800303000002010080494
:107E2A00023E5149453E00427F4000426151494667
:107E3A002141454B311814127F1027454545393CDD
:107E4A004A49493001710905033649494936064903
:107E5A0049291E0036360000005636000000081474
:107E6A00224100141414004122140800020151098D
:107E7A0006324979413E7E1111117E7F49494936C0
:107E8A003E414141227F4141221C7F494949417F6C
:107E9A00090901013E414151327F0808087F00412A
:107EAA007F41002040413F017F081422417F40402A
:107EBA0040407F0204027F7F0408107F3E41414117
:107ECA003E7F090909063E4151215E7F091929466B
:107EDA00464949493101017F01013F4040403F1F66
:107EEA002040201F7F2018207F6314081463030496
:107EFA00780403615149454300007F414102040867
:107F0A00102041417F000004020102044040404029
:107F1A0040000102040020545454787F48444438F5
:107F2A003844444420384444487F38545454180848
:107F3A007E090102081454543C7F08040478004462
:107F4A007D40002040443D00007F10284400417FCE
:107F5A0040007C041804787C0804047838444444BB
:107F6A00387C14141408081414187C7C08040408B7
:107F7A004854545420043F4440203C4040207C1C38
:107F8A002040201C3C4030403C44281028440C50DF
:107F9A0050503C4464544C44000836410000007F71
:107FAA000000004136080008082A1C08081C2A0894
:107FBA00080800AA0008003838380000000000004D
:107FCA00000000000050726573732052453020741F
:107FDA006F2073746172740054696D6572207374D2
:107FEA006F707065640054696D6572207374617294
:057FFA00746564000045
:020000040030CA
:0E000000FF021900FFA580FF0FC00FE00F40A8
:00000001FF
